:020000022000DC
:1060000000000420712C0400B12C0400B32C040007
:10601000B52C0400B72C0400B92C040000000000CB
:10602000000000000000000000000000ED2B040054
:10603000BD2C0400000000000D2C0400C12C040045
:10604000C52E0400C32C0400F901040049780300A4
:10605000FD780300C32C0400D1040400C32C040009
:10606000C32C0400C32C0400C32C0400C32C040064
:10607000C32C0400C32C0400C32C0400C32C040054
:10608000C32C04003D290400C32C0400C32C0400CD
:10609000C32C0400C32C040035FB0200C32C0400F5
:1060A000C32C0400C32C0400C32C0400C32C040024
:1060B000C32C0400C32C04000000000000000000FA
:1060C000C32C0400C32C0400C32C0400D9330400E7
:1060D000C32C0400C32C0400C32C0400ED130300E4
:1060E000C32C0400C32C0400C32C040000000000D7
:1060F00000000000C32C0400000000005134040024
:10610000000000000000000000000000000000008F
:10611000000000000000000000000000000000007F
:10612000000000000000000000000000000000006F
:10613000000000000000000000000000000000005F
:10614000000000000000000000000000000000004F
:10615000000000000000000000000000000000003F
:10616000000000000000000000000000000000002F
:10617000000000000000000000000000000000001F
:10618000000000000000000000000000000000000F
:1061900000000000000000000000000000000000FF
:1061A00000000000000000000000000000000000EF
:1061B00000000000000000000000000000000000DF
:1061C00000000000000000000000000000000000CF
:1061D00000000000000000000000000000000000BF
:1061E00000000000000000000000000000000000AF
:1061F000000000000000000000000000000000009F
:10620000F1EE103A43F08073E1EE103A704700BFB0
:1062100010B5054C237833B9044B13B10448AFF3E0
:1062200000800123237010BDFC63002000000000EB
:10623000DC07050008B5034B1BB103490348AFF366
:10624000008008BD0000000000640020DC0705009D
:10625000154B002B08BF134B9D46A3F5803A002138
:106260008B460F461348144A121A22F061FD0F4B59
:10627000002B00D098470E4B002B00D098470020F1
:10628000002104000D000D48002802D00C48AFF397
:10629000008022F0E3FC200029001CF041FD22F0E8
:1062A000B7FC00BF00000800000004200000000050
:1062B00000000000FC630020ECB40020000000009F
:1062C00000000000BFF34F8F0549064BCA6802F477
:1062D000E0621343CB60BFF34F8F00BFFDE700BF09
:1062E00000ED00E00400FA0538B5054CA4F1C00546
:1062F00054F8403D1B6820469847AC42F8D138BD61
:10630000F469002038B5054CA4F1C00554F8403DAF
:106310001B6820469847AC42F8D138BDE0680020A1
:10632000124B984230B4144608D003F14002904218
:1063300016D08033984216D030BC7047012200201E
:10634000002CF9D000EB4005094C91F900300949C7
:10635000C0EBC50004440848A37530BC19F066BB07
:1063600002220120ECE703220220E9E72068002056
:106370003C60002020C30400C882002070B52A4C75
:106380008AB085B20E462046012112F061F905F16E
:1063900010012B234FF001126182204623492382F2
:1063A000626119F055FA0E22214902A823F038FC47
:1063B0009DF8083000228DF8162043B302A823F080
:1063C00004FC00EB40004300C3F1800305F11C0214
:1063D0005B1002A914482382628219F039FA154A27
:1063E0003346102106A823F041FB06A823F0EDFB5D
:1063F00000EB40035B00C3F180035B1006A9273567
:1064000009482382658219F023FA0AB070BD0A4B4D
:106410000A4A18785978CDE900100F219B7802A814
:1064200023F024FBCAE700BFE07700204CC3040040
:106430005079002064C304004879002054C304004C
:1064400010B504201DF05EFC044605201DF05AFC2A
:106450000E4A0F49137840EA440040EA8303DBB256
:10646000C0B2CB5610705BB10A4A1168002901DD39
:10647000002B08DB1168002903DB11680B44136053
:1064800010BD002BF9DD136010BD00BF5078002057
:10649000A0D004005478002010B5044B044640F806
:1064A000083B08F063FD204610BD00BF30D104005A
:1064B00010B5044B044640F80C3B08F057FD20464D
:1064C00010BD00BF04D1040070B5064C064EA4F107
:1064D000540544F80C6C20461C3C08F047FDAC42C7
:1064E000F7D170BD2469002004D1040070B5064CBA
:1064F000064EA4F1540544F80C6C20461C3C08F0F0
:1065000035FDAC42F7D170BD386A002004D10400DB
:1065100010B5074B044640F8183B06F081F92046B9
:10652000044B40F8083B08F021FD204610BD00BF99
:10653000E0D1040030D1040002B97047034B0A785F
:10654000034804491A7019F071BA00BFC8790020D5
:10655000C882002070C30400564B1A68013218BF6D
:106560004FF0FF32F0B518BF1A60534B1C78012C66
:1065700083B0014625D0514809F0D4FA0146C8B18C
:10658000684607F07DF84E4B9DF801101A789DF88B
:1065900002009DF803409DF804509DF805609DF8A9
:1065A0000670022A50D0DA7D022A68D093F82E2095
:1065B000022A30D04349444803B0BDE8F04019F006
:1065C00075B9424B424A43491C70002313700B605B
:1065D0001AF06CF8404A414B527D414D186082B927
:1065E000404E1A6040493848347004232B7019F02B
:1065F0005DF995F90010314803B0BDE8F04009F0AD
:10660000F3B9384B39493048082402222C701A70EB
:1066100019F04CF9EDE793F83EC08C45CAD193F8D8
:106620003F108142C6D193F84010A142C2D193F8E5
:106630004110A942BED193F84210B142BAD193F8A9
:106640004310B94214D0B5E71A7C8A42ABD15A7CC8
:106650008242A8D19A7CA242A5D1DA7CAA42A2D1D8
:106660001A7DB2429FD15A7DBA4208BF00229AD108
:1066700002EB4201C2EBC102012199549AE793F85F
:1066800027208A4292D193F8282082428ED193F813
:106690002920A2428AD193F82A20AA4286D193F8CF
:1066A0002B20B24282D193F82C20BA4208BF01229B
:1066B000DED07BE738600020596B0020487A00204C
:1066C0003C60002000C40400C88200201860002044
:1066D00061790020546B0020386B0020D4790020B1
:1066E0001D6800205A6B0020C8C3040090C304003A
:1066F00038B52B4B1A7C12B11A78022A2AD193F89A
:10670000272012B1DA7D022A24D193F83E201AB153
:1067100093F82E30022B1DD1224B1B78022B0AD16D
:1067200021485022C82107F0EFFC1F4807F0F2FC77
:1067300000282FD038BD1C4807F0ECFC044610BBE5
:106740001A4D2B78002BF5D019491A4819F0AEF8DC
:106750002C7038BD134B1B78022BE1D0124850220D
:106760004FF4967107F0D0FC0F4807F0D3FC0028D7
:10677000E0D101460C4807F0D5FCBDE838400E4991
:106780000C4819F093B8084807F0EEFC074B0122BB
:106790001A7038BD0146BDE83840034807F0C2BC56
:1067A0003C600020586B0020EC80002048640020F2
:1067B00060C40400C882002028C404002DE9F0470A
:1067C000284B294EDFF8A480DFF8A4A0DFF8A490BE
:1067D000186082B001273378022B07D00137042FCD
:1067E00006F11706F7D102B0BDE8F087002501E0F9
:1067F000142D2ED0A9B2404609F094F90135044673
:106800000028F5D006F02CFF0028F1D0214668467C
:1068100006F036FF327C9DF801309A42E8D1727C56
:106820009DF802309A42E3D1B27C9DF803309A423F
:10683000DED1F27C9DF804309A42D9D1327D9DF8A8
:1068400005309A42D4D1727D9DF806309A42C5D067
:10685000CEE73A465146484619F0E8F8012333702E
:10686000BCE700BF7C6700203C600020487A002025
:1068700080C40400C88200202B4B1968084400EB38
:10688000D07040102DE9F041284E186044B214F148
:10689000490F327829DB14F13F0F2BDA022A2BD073
:1068A000012A154638BF0125AA4221D0204F19F0F0
:1068B000FDFE3B68C01AB0F5487F19D319F0F6FE0B
:1068C000022D386035702BD0012D25D0194D0021B7
:1068D0002970194809F088F895F9003017491848C7
:1068E0002246BDE8F04119F0A1B80225AA42DDD147
:1068F000BDE8F0810025F9E714F1450FD0DB0C4D20
:1069000019F0D4FE2B68C01AB0F5487FF0D319F007
:10691000CDFE012328603370064D04212970D8E78D
:10692000044D08212970D4E7106000205A6B002024
:106930004C6400201D680020487A00209CC404009C
:10694000C88200202DE9F04F3C4B3D4E3D4F186072
:106950004FF0000983B006F14508CA463378022B90
:1069600016D01736B045F9D1B9F1000F07D1364B23
:1069700093F90020082A4DD003B0BDE8F08FBAF19A
:10698000000FF9D0504603B0BDE8F04FFFF774BFD9
:10699000002501E0142DE4D0A9B2384609F0C2F870
:1069A000013504460028F5D006F05AFE834600283B
:1069B000F0D02146684606F063FE327C9DF8013037
:1069C0009A42E7D1727C9DF802309A42E2D1B27CC1
:1069D0009DF803309A42DDD1F27C9DF804309A4252
:1069E000D8D1327D9DF805309A42D3D1727D9DF881
:1069F00006309A42CED1FF21204606F073FE204693
:106A000006F07AFE430616D0BAF1000F0ED1D94631
:106A10008246A6E70D4A0B4883F80090494682F863
:106A2000009003B0BDE8F04F08F0DEBF8245A8BF7C
:106A300082464FFA8AFAD94693E700BF6C67002076
:106A40003C600020487A00201D6800205A6B00201E
:106A500030B5142483B000251DF0AEF8013C054488
:106A6000FAD1132D3CD9204B204C9FED217AD4ED47
:106A7000006ADFED205A9FED206AA3FB05352B0944
:106A800007EE903AF8EEE77AF5EE406A67EE877A1D
:106A9000F1EE10FA08BFF0EE676A67EEA57A9FED97
:106AA000177AE6EE867A642300934FF4D27227EECB
:106AB000877A0023BDEEC77A4FF4AA7117EE100A49
:106AC000C4ED007A19F046FD002807DD6428A8BF50
:106AD0006420C0B20A4B187003B030BD0120F9E742
:106AE000074B187803B030BDCDCCCCCC70670020FC
:106AF0000000903B9A99993E3333333F0000C842DF
:106B0000786700202DE9F043032189B0BA48DFF807
:106B10006883BA4CBA4FBB4EDFF86093BA4D0AF0A7
:106B200015FB0121B9480AF011FB04A841F60F0139
:106B300008F024FA04A9404606F0F8FC04A808F07E
:106B400015FA2246B249404622F02AF804A842F635
:106B5000192108F013FA04A9384606F00DFA04A822
:106B600008F004FA2246AB49DFF81483384622F0D5
:106B700017F8A949A94F304608F00EFA22464946AF
:106B8000304622F00DF8A649284608F005FA2246BC
:106B90004946284622F004F8D6E902327168059188
:106BA000404604A907920693049706F0BFFC04A888
:106BB00008F0DCF9D6E9023271680792CDE9047178
:106BC00008F11C0004A9069306F0B0FC04A808F024
:106BD000CDF973680593D6E9026204A908F138007B
:106BE000CDE90662049706F0A1FC04A808F0BEF9FE
:106BF00022468C49DFF88C828B4EDFF88C92002085
:106C000021F0CEFFD5E9023269680792CDE904711F
:106C1000404604A9069306F0AFF904A808F0A6F9C7
:106C2000D5E9023269680792CDE9047108F14000A4
:106C300004A9069306F0A0F904A808F097F96B6878
:106C40000593D5E9025204A908F18000CDE9065266
:106C5000049706F091F904A808F088F922467349D0
:106C6000734D744FDFF82482002021F099FF04A8AF
:106C700041F60F0108F082F904A9304606F056FCEF
:106C800004A808F073F904A841F60F0108F076F99A
:106C900004A906F11C0006F049FC04A808F066F9F6
:106CA00004A841F60F0108F069F904A906F13800BB
:106CB00006F03CFC04A808F059F922465E495F4EF4
:106CC000002021F06DFF04A842F6192108F056F9C2
:106CD00004A9284606F050F904A808F047F904A8CA
:106CE00042F6192108F04AF904A905F1400006F01E
:106CF00043F904A808F03AF904A842F6192108F06B
:106D00003DF904A905F1800006F036F904A808F061
:106D10002DF922464A494B4D002021F041FF4A4BB4
:106D20004A4A02934FF0FF33CDE900323846484BD0
:106D30004022802112F02CF822464649384621F0A4
:106D40002FFF4549454F04A808F046F904A94846D5
:106D500008F0ECF804A808F009F922464146484634
:106D600021F01EFF3E49DFF8289104A808F034F90D
:106D700004A9384606F022F804A808F0F7F82246DD
:106D80003146384621F00CFF284608F02FFF2246F6
:106D90003449354F284621F003FF3449344D4846E5
:106DA00019F0E6FB22463349484621F0F9FE04A8D3
:106DB00041F60F0108F0E2F804A9384608F0B6F8E9
:106DC00004A808F0D3F822464146384621F0E8FEF0
:106DD00004A842F6192108F0D1F804A9284605F0C4
:106DE000EDFF04A808F0C2F822463146284621F0FB
:106DF000D7FE09B0BDE8F083047A002000600020CF
:106E0000D07800209C7900208C790020DC7900204B
:106E1000B164020021CF0200D0C4040048D10400B4
:106E2000F8C40400ED640200E0680020E96202009A
:106E300020680020E0770020C964020021C8020019
:106E400005630200586A0020A0860100801A06002F
:106E50004C970020F18D0300C0D00400C86A0020C8
:106E6000B0D004001165020010790020C4E40400D1
:106E700078780020A5050400287900206DEF020035
:106E8000F469002034690020206B0020996402001E
:106E9000B0790020F0B53148ADB012F0F5FC2F4BC1
:106EA0002F4913A8002213F09BF913A813F064FADA
:106EB00000284CD02B4C0025452201A9C4E90055DF
:106EC000C4E9025513A82561A58213F0B3F9214640
:106ED000162213A813F0AEF9064613A813F020FAF1
:106EE000162E28D1204B0DF1050403F1450601278C
:106EF000002514F8012C022A14BF03F8012C03F812
:106F0000017C21460E22184622F08AFE22460346C4
:106F100052F80F1F857317339288C0F80F10B342D1
:106F2000A0F8132004F11704E3D11049104818F019
:106F30002DFD2DB0F0BDC4E90055C4E902550D4941
:106F4000256125750A48657518F0B0FCCAE70A493D
:106F5000074818F01BFD2DB0F0BD00BFC4980020FD
:106F600020C50400386B00203D60002070C504007F
:106F7000C882002034C504008CC504002DE9F84FF8
:106F800019F094FB1E4B1D68002D37DDDFF874806F
:106F9000DFF874B08146002440F6B83302E00134D3
:106FA000AC422BDAC4EBC40108EB8100E600826935
:106FB000A9EB02029A424FEA8101F0D92F1BC7EBDD
:106FC000C702013D92001C31A542A2F11C024144BE
:106FD0004FEAC70A0EDD21F091FE301980005744B8
:106FE00000F12401BA00243A5944584421F086FEA5
:106FF00040F6B833024AAC421560D3DBBDE8F88FE7
:107000005C6B002068720020606B00202DE9F04767
:1070100090F81C80866984B000240294CDE9004475
:107020000C70CDF80B40B8F1000F2ED00F4603E0E6
:1070300001352C44444525DA355D631C32192B4457
:1070400005B343451EDC5378092B2BD0082BEFD119
:107050009DF80090B9F1000FEAD105F1FF3ABAF1BD
:107060000E0FA8BF4FF00E0AA11C524631446846CD
:1070700021F036FE013504AB9A442C4444450AF80D
:10708000109CD9DB9DF8003013B904B0BDE8F0873F
:107090000E226946384622F0C3FD0023BB7304B0BC
:1070A000BDE8F087013D0E2DA8BF0E250234311931
:1070B0002A46384621F014FE00237B5504B0BDE873
:1070C000F08700BF7C4B2DE9F0411D7804468C46CB
:1070D000002D40F08780D97D002940F0A28093F8F0
:1070E0002E10002940F0C2801CF1550F3DDB734F7C
:1070F000DFF8D0E13968002940DD94F80380734659
:1071000000251878404532D15E78207986422ED10C
:107110009E78607986422AD1DE78A079864226D18F
:107120001E79E079864222D15E79207A86421ED18C
:10713000C5EBC5070EEB8707614E87F806C019F04F
:10714000B5FA4FEAC5084544B86106EB850604F177
:10715000200720686168A268E36835460FC51034CF
:10716000BC422E46F5D120682860BDE8F08101358B
:107170008D4203F11C03C4D13129F6DCC1EBC101FE
:1071800026468B0056F8030F4EF803000EEB8105E0
:1071900007331146B288AA800EEB030085F806C0BB
:1071A0000E2222F03DFD00236B7519F07FFAD7F80F
:1071B00000C0434EA8610CEBCC0306EB830604F140
:1071C000200E20686168A268E36835460FC5103458
:1071D00074452E46F5D1206828600CF101033B6010
:1071E000BDE8F081187CE17888427FF474AF2079A3
:1071F000597C88427FF46FAF987C617988427FF434
:107200006AAFD87CA17988427FF465AFE079197DB7
:1072100088427FF460AF207A597D88423FF467AF9F
:1072200059E793F82700E17888427FF458AF93F844
:107230002800217988427FF452AF93F829006179C0
:1072400088427FF44CAF93F82A00A17988427FF4FA
:1072500046AF93F82B00E17988427FF440AF93F872
:107260002C00217A88423FF442AF38E793F83E0081
:10727000E17888427FF438AF93F83F002179884263
:107280007FF432AF93F84000617988427FF42CAFED
:1072900093F84100A17988427FF426AF93F8420029
:1072A000E17988427FF420AF93F84310237A994222
:1072B0003FF41DAF18E700BF3C6000205C6B00206E
:1072C000606B0020687200202DE9F041704C84B0A2
:1072D00069460546FFF79AFE2378012B5FD0E67DCD
:1072E000012E79D094F82E80B8F1010F00F097802C
:1072F0009DF8002082B1012B44D04FF0FF37012EC2
:1073000010D0B8F1010F2ED0002F1DDA95F913100F
:107310006A462846FFF7D6FE5E4806F01BFF04B01B
:10732000BDE8F081237E002BEBD05B480E2269463E
:1073300022F054FC0028E4D1013740F09680B8F1E7
:10734000010F00F09E80374654497A1C544818F0CB
:107350006DFB504806F008FF2946524805F0DCF95D
:1073600004B0BDE8F08194F82F30002BCCD04E480B
:107370000E22694622F032FC0028C5D10137C5D162
:107380000227E1E76378002BB7D048480E22694610
:1073900022F024FC003818BF01204742AFE7217CCF
:1073A000EA7891429BD1617C2A79914297D1A17C64
:1073B0006A79914293D1E17CAA7991428FD1217D62
:1073C000EA7991428BD1617D2A7A914208BF0026E9
:1073D00085D13749721CB9E794F82710EA789142B1
:1073E00080D194F828102A7991427FF47BAF94F8E9
:1073F00029106A7991427FF475AF94F82A10AA791E
:1074000091427FF46FAF94F82B10EA7991427FF4A8
:1074100069AF94F82C102A7A9142DAD062E794F896
:107420003E10EA7891427FF463AF94F83F102A79D6
:1074300091427FF45DAF94F840106A7991427FF4F5
:1074400057AF94F84110AA7991427FF451AF94F864
:107450004210EA7991427FF44BAF94F843102A7AB4
:1074600091427FF445AF0226B3E7B8F1010F7FF4F4
:107470004DAF94F82F30002B3FF448AF6FF0010769
:1074800075E794F82F304746002B7FF470AF5BE729
:107490003C600020EC80002054600020E4C5040023
:1074A000C8820020587A00206B6000203D600020D8
:1074B000B0C504002DE9F041044619F0F7F8284959
:1074C0000A68821AB2F5C87F31D2264B1D78264A47
:1074D000264B1068632DA4EB000494BF3226962639
:1074E0009C42234C3746237802D94BB3BDE8F08148
:1074F000DFF898801BB998F80030B342F6D01D48E9
:10750000812111F055FD39461A4811F051FD1A48F4
:107510001A4B88F80070632D88BF03460025324659
:10752000257017491748BDE8F04118F07FBA0346A7
:107530000C200B601CF03AFBFFF78AFA0546C6E701
:107540000C48812111F034FD0A48012111F030FD71
:10755000012323700C490B48BDE8F04118F016BA1E
:10756000746700207867002068790020E0930400A9
:1075700060790020E077002030C6040034C60400A3
:1075800054C60400C882002038C604009B6700204F
:107590002DE9F04F444B2DED028B1A689DB0012A66
:1075A0000A927CDD414B4249079306911C3B1146F0
:1075B000C2EBC20203EB820308934B1E0B93002322
:1075C0000993099B0A9A0133934209935DDA079A5A
:1075D000A2F11C0308EE103A069B914618EE100A21
:1075E0004946019322F0CEFA079B069F0597A3F127
:1075F0002308019BCDF8088003F124040DF1300E1F
:10760000A9F1070C13AE0028CDF810E0CDF80CC09E
:107610003D46B2460194A34631DDB8E80F00AEE81E
:107620000F0098E807008EE80700BCE80F00029FF3
:107630000FC79CE80700049B1F4688E807000FCF90
:10764000039F0FC79EE807008CE807000FCD0FC609
:107650000FCD0FC6D5F800C0C6F800C00FCC059EF0
:107660000FC60FCC0FC6BAE80F0026682E60ABE835
:107670000F00BAE80F00ABE80F00C4F800C0089A8A
:10768000019B09F11C099145A8D1069B0B9A243353
:107690000693079B1C330793099B934291D11DB01E
:1076A000BDEC028BBDE8F08F5C6B00208B7200207C
:1076B000606B0020514B1A68002A1A68D8BF5242EA
:1076C000032A2DDD1A68002AF0B423DD01242546A3
:1076D00004271A684A494B4E09783060D21B1A6059
:1076E000494B032918601CD000292FD1474B1B7828
:1076F000002B35D1464B1A680132464A06D0146831
:107700002C44022CA8BF022424EAE47414601C60F8
:10771000F0BC704700246FF003074FF0FF35D8E747
:1077200070473A4B3B491B780A683B48002B08BF1F
:10773000022405EB020318BF0124A342A8BF23467D
:1077400023EAE3730B600360F0BC704701290FD09C
:10775000022919D0042939D00529F5D12F4A08E08A
:107760002B4A2C4B4FF0FF30F0BC10601960704773
:107770002B4A136827492B44022BA8BF022323EA74
:10778000E37313600B60DFE7264A1368EB1826D417
:107790002549204809688B42A8BF0B461360036047
:1077A0000BB3013BD0D49942CEDD204A204C214E70
:1077B000214DC3EBC30302EB830393E803000122D3
:1077C00000232060A18032702B70BDE71B4A114955
:1077D00013682B4483F3010313600B60B4E70D4976
:1077E00000230B601360124A124C1349002301203E
:1077F0002370136093800870A6E700BF54780020C0
:10780000586B00206479002068790020596B0020B3
:107810003060002058780020AC790020506B0020A8
:10782000D8790020CC7900204C78002068720020A4
:1078300084790020627900205F790020546A00205A
:107840001B4AF8B513780446BBB91A4E32680132A8
:1078500012D0194D2A6841F65831821A8A420BD942
:107860001648174A0360174917484FF0FF33136053
:10787000336018F01BF82C60F8BD0F4D296841F6F5
:107880005830611A8142F7D9013B042BF3D8094FD4
:107890000B480A490D4E4FF0FF333B600360002355
:1078A0000B6009480A491370337017F0FFFFE2E7D5
:1078B000586B002030600020687900205878002044
:1078C0003860002098C60400C88200206279002039
:1078D000B4C604002DE9F047684E694DDFF8CC913D
:1078E000DFF8CC81674F84B0306801A909F054FCFF
:1078F00000284DD02B789DF805A0012B79D09DF85C
:1079000004402F2C4FEA241488BF002404EB4403C6
:10791000C4EBC30318F80300A0F10200B0FA80F032
:1079200040090028E0D01AF0800F67D1FB68D90128
:1079300031D5554B1A68D2072DD55B689B09534A40
:1079400052F82410C1EB932000284FEA9323D8BFAC
:107950004B1C63F07F01BAF1F70F42F82430C9B233
:1079600022D92B788DF809108022012B8DF80AA0DE
:107970008DF8082048D0464802A9032200EB841065
:1079800005F03AFC306801A909F006FC0028B1D1E5
:1079900004B0BDE8F0871AF0CDF83E4BA0FB030120
:1079A000830A43EA8153CAE70AF0F003902B9DF85B
:1079B00006009DF807202DD0802B2CD0B02B48D06E
:1079C000E02B50D02B788DF80910012B4FF080015F
:1079D0008DF80AA08DF80B008DF80C208DF808109A
:1079E00027D02B48052200EB841002A905F004FCE7
:1079F0007AE7484608F06CF8002492E718F056FE43
:107A0000254B43F8240091E7032202A9234805F0FF
:107A100057FA69E79AB9224B03EBC41313F800C075
:107A2000BCF1000F3FF460AF4FF0000C03F800C052
:107A3000C8E7052202A9194805F042FA54E7184B95
:107A400003EBC41313F800C094453FF44DAF1A5430
:107A5000B8E7144B03EBC41313F800C094453FF48C
:107A600043AF1A54AEE7104B33F814E040EAC21C9F
:107A7000E6453FF439AF23F814C0A3E72C7A002081
:107A8000596B0020F0ED00E0001000E05864002089
:107A90003469002040420F006C790020C86A002041
:107AA0006C640020EC65002064640020487A0020AB
:107AB0003C600020754A13684EF66021C31A8B4261
:107AC00070B5044600F29780714B1B68E31AB3F55A
:107AD000FA6F02D92046FEF771FE6E4A1368E31A68
:107AE000B3F5FA6F05D36C4B14601B780BB9FEF736
:107AF000FFFD6A4B6A4A1E78022E00F08F801378D1
:107B0000012B00F0B080D57D012D00F0AF8092F800
:107B10002E30A3F10105B5FA85F56D091378022B16
:107B200079D0A3F10103B3FA83F35B090020D17D7F
:107B300092F82E20022921D0012908BF0123022A10
:107B400020D0012A47D0E8B9002D6DD1022E23D1D3
:107B5000544B1A6802B91C60534B93F90020082A51
:107B60002AD0524A5248082119700223137007F094
:107B70003BFF504806F0CEFA18B370BD022A01D080
:107B8000012A2AD04BBB4C4B1B68E31AB3F57A7F12
:107B900046D875B9022E0CD0424B464800221A60D6
:107BA00006F0B8FA0028E8D0BDE87040414806F079
:107BB000DBBA3C4B00221A603E4806F0ABFA0028C4
:107BC000DBD101463B4806F0ADFABDE870403B49C9
:107BD0003B4817F0DBBE0028B6D0334B93F90020AA
:107BE000082AD6D0314A324808211970022313706E
:107BF00007F0FAFECDE7106018F058FD31490A6829
:107C0000821AB2F5C87F034625D22F4B19782F4828
:107C100005F068F958E70023012088E701257DE792
:107C20002046FEF78FFEB4E71E4B1A68002A92D05A
:107C3000022E91D0264BA41A9C428DD91A4B93F94F
:107C40000020002AB8D0194A194800211970117073
:107C500007F0CAFEB0E70C200B601BF0A7FFFEF791
:107C6000F7FE0146D3E71D46002060E7022B7FF4B4
:107C700058AF92F82E20022AAFD0012AADD10A4B7C
:107C800093F90010082994D01546ABE74064002012
:107C90007C67002044640020596B0020586B002052
:107CA0003C600020D07900201D6800205A6B002025
:107CB000487A0020EC8000206C670020D8C60400C1
:107CC000C882002074670020786700207878002040
:107CD000804F1200FEF716BF30B53D48ADB017F02B
:107CE00031FD3C4B1B78012B58D03B4C23460E22D8
:107CF00013F8101B8DF8041093E803000590ADF8FD
:107D000018100DF10500611C21F08AFF2346E57D66
:107D100053F8272FCDF82B209B88ADF82F3004F196
:107D200018010E2207A88DF81B5021F079FF234679
:107D300094F82E5053F83E2FCDF842209B88ADF892
:107D4000463004F12F010E220DF133008DF8325030
:107D500021F066FF13AC2149214812F05DF8204B59
:107D60001E490122204612F03BFA204612F004FB85
:107D700008B92DB030BD01A94522204612F066F8A1
:107D800016221849204612F061F8204612F0C8FA6F
:107D90001549164817F0FAFD2DB030BD13AC104B45
:107DA0000E492046002212F01BFA204612F0E4FA97
:107DB00040B1452201A9204612F03CFA204612F0BB
:107DC000AFFAC8E70146452201A820F0B1FFC2E79B
:107DD0006CA90020596B00203C60002020C50400E5
:107DE000C4980020386B0020FCC60400C882002024
:107DF0002DE9F04F01469BB00746B94807F092FEC7
:107E0000002800F0698105460DF12008404629460A
:107E100005F036FC18F04AFCB24B1B68984254D26D
:107E2000B149B248DFF81893B04E17F03FFDB049A2
:107E3000AE4817F0BBFC9DF82610AC48102217F096
:107E4000AFFE0DF125044946304617F001FD14F848
:107E500001191022304617F0A3FE4445F3D1A54C7A
:107E6000A248DFF8DCA2DFF8849217F06FFDA24988
:107E70009E4817F09BFC61799C48102217F090FEF9
:107E800004F1040846465146484617F0E1FC16F84E
:107E900001191022484617F083FE444540F07181D5
:107EA000924817F053FD934806220DF1210120F06E
:107EB00009FF0446002800F00B8390498B4817F017
:107EC000F5FC8F49894817F0F1FC18F0EFFB8D4E57
:107ED0000446C823002206212846346005F0E0FB52
:107EE000894B1B78012B00F0578100230AA90F2230
:107EF00028460C93CDE90A33CDF8333005F01EFD4A
:107F00009DF8283033B181490AA821F003FE0028EA
:107F100040F000827E4B1C6800218C421491CDE918
:107F20001211CDF853102CDD7A4B9DF821609DF88D
:107F300022C09DF823E09DF824809DF825A09DF89F
:107F400026B006930A461878B04202F1010212D117
:107F5000587860450FD1987870450CD1D878404555
:107F600009D11879504506D15879584503D1D879A7
:107F7000002840F09582A24203F11C0301F11C018C
:107F8000E1D1654B03931B680493013300F0108229
:107F9000624B00221A60049B0593614961481322D9
:107FA00021F03EFE18F082FB5F49604B00F51C504B
:107FB0001030012208601A705D48044617F0C2FBB9
:107FC000C82018F07FFB204617F0BCFB059B594AE0
:107FD0000499C3EBC30302EB830B9B00C1EBC10805
:107FE0000693CB0002EB880800260793204617F083
:107FF000A9FBD8F8003039469B68584698470028B6
:1080000040F09F8218F052FB3E4B052E186000F0A6
:108010009980002E00F0B780012E00F08C82022E95
:1080200000F08C82032E40F2DC5908BF4FF4FA694D
:10803000B9F5C87FCA4628BF4FF4C87A504618F031
:1080400041FB204617F07EFBB9EB0A09F0D101365F
:10805000CCE79DF84830002B40F0CA84049A09EB25
:108060000203C2EBC3035B445B78002B40F0128534
:10807000059B314C03EB4300C3EBC0000130584477
:1080800021460E2221F0CCFD049A0399BDF825402B
:108090000868DDF8211009EB0203C2EBC3030BEB08
:1080A00003020225116101304FF000010BF803506B
:1080B0009482D17306D01B4A1B481C4B11700122BD
:1080C00001601A70FFF708FE039A1C4907484FF039
:1080D000FF33136017F05AFC1BB0BDE8F08F00BFF0
:1080E000487A0020447900202CC70400C882002070
:1080F00044C704004879002058C70400A8C70400FA
:108100003CC8040068790020596B0020D8C70400DF
:108110005C6B00206872002038600020C479002069
:10812000E4C904005C780020707800207478002096
:108130006CA90020F469002020C7040018CA0400BC
:1081400028CB0400B94817F0FDFA039B1B680133E4
:108150000DD0B749B748132221F062FD18F0A6FAF6
:10816000B549B64B00F5FA60012208601A70039A0F
:108170004FF0FF332846136005F0AAFA1BB0BDE8A4
:10818000F08FB0467EE64FF4C87018F09BFA204698
:1081900017F0D8FA012629E7A44817F0D3FA12AC51
:1081A00029460EA805F06CFA002321462022284615
:1081B000CDE91233CDE91533CDE917331493199373
:1081C00005F0BCFB9DF8483023B19D49204621F0C5
:1081D000D9FC50B99DF8393000939DF83B209DF8AB
:1081E0003A309849204621F075FC9749974E9848B7
:1081F00017F05CFB9749964817F0D8FAB11D9448E0
:1082000017F026FB9449924817F050FB9349904889
:1082100017F0CCFA21468E4817F01AFB8E498C488D
:1082200017F044FB8E498A4817F040FB737D002B02
:1082300000F0258232789DF839309A4240F03A8237
:108240009DF83A2073789A4240F034829DF83B20A2
:10825000B3789A4240F02E829DF83C20F3789A42FF
:1082600040F0288232799DF83D309A4240F02282D7
:1082700072799DF83E309A4240F01C82DFF810C2BD
:108280006C4DDFF810E2BCE80F000FC5DCF80030E1
:1082900025F8023B734A1B0C4FF0010800212B709C
:1082A00011608EF8008018F001FA644A624B82F87F
:1082B000008000F6C41018606B4D21460E22681C29
:1082C00021F0AEFCDDF83900BDF83D20674928619A
:1082D0000023EB735E48AA8202232B7017F0E6FAA4
:1082E0006348394605F00CF9002800F0CB8161485D
:1082F00004F088FE002800F0F3815E4804F0D4FF0B
:108300005D49534817F0D2FA5A4804F037FF5B4BE7
:108310001870BBE15A4B03931B68049301337FF43D
:1083200037AE9DF826209DF821409DF822A09DF8AB
:1083300023809DF824609DF825300592DFF858B120
:108340009BF80020002A40F00D824FF0FF3204928B
:108350009BF81720002A40F0DF819BF82E20002A8E
:1083600040F09A82474A1278012A00F0BE81DFF875
:108370002C91039318F09AF9D9F80020039B074633
:10838000002A40F0D782404ADDF82100BDF82530B0
:108390003E49106093802E48C9F8007017F006FA25
:1083A0002B480AA917F0F2FA284605F091F993E64E
:1083B0009DF828209DF826109DF821409DF822A0C8
:1083C0009DF823809DF824609DF825300591002AB2
:1083D000B4D1DFF8C4B09BF80010002940F03D8212
:1083E0009BF81720002A40F015829BF82E20002AC7
:1083F000BDD09BF83E20A242B9D19BF83F20524508
:10840000B5D19BF840204245B1D19BF84120B24202
:10841000ADD19BF842209A42A9D19BF843200599FF
:108420008A42A4D10223CDE9043397E16CA900204C
:10843000F4C904005C780020707800207478002073
:10844000D8C7040054C30400E0C70400386B002000
:10845000C882002000C8040018C804001CC804001A
:1084600034C80400546B00201860002068C8040061
:1084700028790020D078002090C80400C879002016
:10848000386000202F600020BC790020B8C90400AB
:1084900054C80400617900203C600020C4790020A9
:1084A000069B07310B44194612A80E2221F0B8FB97
:1084B0009DF8483000248DF85640002B3FF461AD04
:1084C00012A90E220AA821F0ABFB8DF8364058E520
:1084D000B649B74817F0EAF912A920222846CDE993
:1084E0001244CDE91444CDE91644CDE9184405F011
:1084F00025FA20B19DF84830002B40F00581AD48A9
:108500000378002B00F00982AB4BAC49AC4C184609
:10851000132221F085FB0022C27418F0C7F8A94A83
:1085200000F2DC53012128462360117005F0D0F8D9
:108530001BB0BDE8F08F4FF4966979E54FF4C86938
:1085400076E5A148A14E804617F0FCF8059B404611
:1085500006EB83164FEA831B17F0F4F8304603242A
:1085600004F050FD90B918F0A1F8994B012C186057
:108570004FF4967070D018F0A5F8404617F0E2F866
:108580003046013C04F03EFD0028ECD030469149D5
:10859000012204F081FE304604F086FE002800F03F
:1085A000FF81894817F0CEF8079B049C8A48069AF9
:1085B0001B1B394650F8233010449B68984700280D
:1085C00040F07282DFF848B24FEA4409002428469E
:1085D0000EA90F221094CDE90E44CDF8434005F0CA
:1085E000ADF97E4B12941868A042CDE91344CDF842
:1085F00053402DDD7A4B9DF821509DF822609DF867
:1086000023709DF824C09DF825E09DF826800693F0
:10861000214622461C78AC4202F1010212D15C785C
:10862000B4420FD19C78BC420CD1DC78644509D1AE
:108630001C79744506D15C79444503D1DC79002C62
:1086400040F0BA81824203F11C0301F11C01E1D127
:108650009DF838300EACFEE4039B1B6801333FF4F9
:1086600086AD13225F49544821F0DAFA18F01EF85B
:10867000534A544B00F5FA6010601C7077E55A4A73
:10868000137019E659494A4817F010F9737D002B09
:108690007FF422AD564807F01BFA00283FF41CADCA
:1086A00018F004F8534B5449024641481A6017F039
:1086B000FDF811E551493E4817F0F8F8284605F055
:1086C00007F84F493C48132221F0AAFA17F0EEFFB1
:1086D0003B493C4B00F2DC50012208601A70FBE47D
:1086E0004849334817F0E2F8D0E7049A002A80F2AC
:1086F000FB80049A02327FF43AAE43492C4803933C
:1087000017F0D4F8039B32E62A4B12A918460E2222
:1087100021F086FA8473F7E69BF82720A24240F006
:1087200090819BF82820524540F08B819BF82920AE
:10873000424540F086819BF82A20B24240F0818178
:108740009BF82B209A4240F07C819BF82C200599C5
:108750008A4240F076810123CDE904332B4B00227D
:108760001A6029E49BF81020A24240F081819BF816
:108770001120524540F07C819BF81220424540F088
:1087800077819BF81320B24240F072819BF814204D
:108790009A4240F06D819BF8152005998A4240F07D
:1087A00067810023CDE90433D8E700BF6CC704001C
:1087B000C8820020507900205C78002098C704000F
:1087C00070780020747800206CA9002034690020A3
:1087D00068790020FDB90200E06800205C6B002091
:1087E0006872002008CA040061790020E0C8040013
:1087F000487A0020546B002008C9040048CA0400CD
:1088000068CA0400B8C804007CC90400C479002008
:108810003C6000209BF82720A2427FF4E6AD9BF845
:10882000282052457FF4E1AD9BF8292042457FF492
:10883000DCAD9BF82A20B2427FF4D7AD9BF82B2009
:108840009A427FF4D2AD9BF82C2005998A427FF49E
:10885000CCAD0123CDE9043380E79BF81010A14291
:108860007FF4BEAD9BF8111051457FF4B9AD9BF874
:10887000121041457FF4B4AD9BF81310B1427FF460
:10888000AFAD9BF8141099427FF4AAAD9BF8151078
:108890000598814285D0A3E59BF83E20A24240F096
:1088A000B7809BF83F20524540F0B2809BF84020B3
:1088B000424540F0AD809BF84120B24240F0A88094
:1088C0009BF842209A4240F0A3809BF843200599F0
:1088D0008A4240F09D800223CDE904333EE7012A1D
:1088E0007FF445AD0223049389498A4816F05EFF60
:1088F000049C88480A22214617F05AF9864985487F
:1089000016F0D4FF039B854A1B68059400210133B0
:1089100011603FF451ABFFF740BB9DF821209DF85B
:1089200022300F21CDE900329DF823307C4A21F01E
:108930009DF8E9E57B4A1178A1427FF425AD517895
:1089400051457FF421AD917841457FF41DADD1783B
:10895000B1427FF419AD117999427FF415AD537985
:1089600005998B427FF410AD6F496A4816F01EFFDF
:1089700068480AA917F00AF8D9F80030FB1AB3F5CD
:10898000FA7FFFF411AD69496948132221F048F9D3
:108990006849694B07F57A7701220F601A7003E581
:1089A000132266496248634C21F03AF917F07EFEC3
:1089B000614A00F6C413B5E5069B07310B4412ACBF
:1089C00019460E22204621F02BF99DF8383000225E
:1089D0008DF85620002B3FF43CAB204621F0F5F8F3
:1089E00005460EA821F0F1F885423FF632AB0EACF9
:1089F0005349204621F08EF800283FF42FAB059B09
:108A000003EB4300C3EBC00001305844FFF738BB11
:108A10009BF82F20002A3FF4A5AC4A4806930E226B
:108A20000AA921F0DBF8069B00287FF49BAC049A8E
:108A30000132454A12783FF452AF012A7FF497ACD5
:108A40005BE69BF81820002A3FF487AC3F4806936A
:108A50000E220AA921F0C2F8069B00287FF47DAC03
:108A6000049A511C14BF6FF001020122049274E4B5
:108A70009BF80120002A3FF468AC354806930E228B
:108A80000AA921F0ABF8003818BF01204342049333
:108A9000069B5DE4059B03EB4304C3EBC404013474
:108AA0005C442046FFF7ECBA2A4B9B44584604F03E
:108AB000A9FA28B9049BDFF8A0B04FEA430985E57D
:108AC000584604F0F1FB584604F058FB642802466F
:108AD0004FF003044FF078000DD9012CEAD017F0C5
:108AE000F1FD584604F04AFB6428024604F1FF34C5
:108AF0004FF07800F1D80499DFF85CB001EB410346
:108B0000C1EBC3035B444FEA41099A755EE500BFC0
:108B100038C90400C882002048C90400C479002074
:108B200054C30400BC790020B8C90400D4C90400AF
:108B30005C780020707800207478002038CA040027
:108B4000D8C704006B6000202F6000205460002014
:108B50003D600020206800203C6000202DE9F843A3
:108B600004466148614D06F0B3FF18BB2B688BB912
:108B70005F4D2B6823BB5C4806F0AAFF10B15D4E29
:108B8000357855B35C4A1368E31AB3F5FA6F35D8F4
:108B9000BDE8F883594AE31A9342E9D9584B93F94F
:108BA0000020082A06D1574A01464F481970117013
:108BB00006F01AFF00232B604D4D2B68002BDAD0F6
:108BC00017F074FD2B689842D5D34F4A4F490023C4
:108BD000136093802B600B70CDE74D4F3B68002BEB
:108BE000D0D017F063FD3B68834280463CD91E23FA
:108BF000484A11689942C5D01360C3E73A481460E7
:108C000006F066FF0028C3D03748002106F08AFF2F
:108C100010B1FF2104F066FD3F4A13684EF6602153
:108C2000E01A884201D8002BB2D1146017F03EFD43
:108C30003A490A68821AB2F5C87F034620D2384BF7
:108C40001C783848214606F0C9FF3749374816F0E6
:108C5000ADFD214635480A2216F0A2FFBDE8F843D3
:108C60003349324816F022BEC31A47F22F529342BC
:108C70000ED8304AA2FB03239B09C3F11E03B7E7BA
:108C80000C200B601AF092FFFDF7E2FE0446D8E7D5
:108C9000294BDFF8B89093E803000E22C9F80000D2
:108CA000A9F8041009F10600A3F10F0120F0B8FFA4
:108CB0004FF48073A9F81430FFF70EF8DFF854C0B2
:108CC0001E491F483D60012313223370CCF8005029
:108CD00020F0A6FF1B4A1C49144808F5FA631360EC
:108CE00016F0E4FD4EE700BF487A0020D47900205A
:108CF000447900206179002054640020804F1200E4
:108D00001D6800205A6B002048790020507900200F
:108D1000546B0020346000205064002074670020F1
:108D200078670020586A0020A8CA0400C882002082
:108D3000C8CA0400D34D6210286000207CCA040019
:108D40005C780020707800208CCA0400386B00200A
:108D50002DE9F04F3B4CDFF8049187B04FF0010A4A
:108D600000220E231146CDE9003A204680230EF062
:108D70003FFF0025344B354923612046656116F0DD
:108D800067FD334BB4F910601F6801954FF00A0B73
:108D9000023631B257442046CDF800B009230322F1
:108DA0000EF026FF02365A46042339464FF00118CA
:108DB000204663822682C4F8148016F0F9FE254905
:108DC0006561204616F0E2FD3023CDF804A0294667
:108DD00020460093102280230EF052FF1E4B93E892
:108DE000070003AF87E80700A24618264FF0050BDF
:108DF000D9F80030AB42504610D057F8041BC4F8E5
:108E00001480A4F810B06682013516F0BFFD0C3650
:108E1000032DB6B2ECD107B0BDE8F08F01210B23D2
:108E2000721ECDE9003112B27C2302210EF0E0FE69
:108E3000002357F8041BA4F810B050460135668291
:108E40006361E2E7E077002002000400D0CA04007A
:108E500038600020D8CA040084D00400D8790020EB
:108E6000F0B52A4C2A4E83B0204610F083FB012532
:108E700000220E231146CDE90035204680230EF056
:108E8000B7FE0027234B244923612046676116F073
:108E9000DFFC3023394600930195204680231022C1
:108EA0000EF0EEFE3768D7B14FF0011363611B4B34
:108EB0001B491648236116F0CBFC3368012B19D0EF
:108EC0004FF001136361174B17491048236116F0E7
:108ED000BFFC0E4803B0BDE8F04010F05BBB0B23B5
:108EE000CDE9003517227C23022120460EF080FEBA
:108EF0006761DCE70B22CDE9002304487C232522AF
:108F000002210EF075FE00236361DCE7E0770020AC
:108F1000546A002002000300E4CA0400050018009F
:108F2000F8C2040005002600F4CA04002DE9F04F41
:108F3000DFF8EC92AB4999F80030AB48AB4A0A61D4
:108F4000002B87B014BF4FF0010B4FF0030B002232
:108F50005844A74FDFF8CC82A64DA74CA24E0290F2
:108F60004A6103921BBB2878A0F10200B0FA80F09E
:108F7000400908B399F80030002B60D0002120464A
:108F800006F0D0FD824620B104F06AFB002840F0D4
:108F90001C81029B01369E4207F1010708F104087B
:108FA00005F117050FD099F80030002BDBD02046D3
:108FB00006F08EFD0028DDD13070387017F076FB9A
:108FC000C8F80000E5E799F80040002C40F09680D2
:108FD0008A4D2B68013340F0D480039B002B40F076
:108FE000968087497F4816F033FC17F05FFB854970
:108FF0000A68821AB2F5C87F034680F0EA80824B85
:109000001C78632C00F2DE80282C00F20D810C23EA
:109010000022CDE9003273481623012234210EF0DC
:109020002FFE7048794B036121460A2216F0B8FDE5
:1090300077496C4807B0BDE8F04F16F009BC9A4676
:1090400002E0BAF1140FA4D01FFA8AF1204606F00C
:1090500069FD0AF1010A83460028F2D004F000FB02
:109060000028EED0594604A804F00AFB2A7C9DF89B
:1090700011309A42E5D19DF812206B7C9A42E0D1E2
:109080009DF81320AB7C9A42DBD1EA7C9DF814302A
:109090009A42D6D12A7D9DF815309A42D1D16A7D67
:1090A0009DF816309A42CCD1584604F025FB10F1B9
:1090B000800F3FF46EAF327822BB4B30ACBF002341
:1090C00001233978994206D03B7017F0EFFA3278D5
:1090D0003B78C8F8000093420AD017F0E7FAD8F8B6
:1090E0000030C01AB0F52F7F2ABF3A78327832703C
:1090F000039B002A18BF134603934AE7039B33B927
:1091000044496FE74730ACBF00230123D9E7424908
:10911000344816F09DFB99F80040002C40F0A180E7
:10912000314B1B78002B40F0DC802F4B5B78002B01
:1091300040F0B3802C4B9B78002B43D0294BB3F9E4
:1091400010400A2701344FF000081E46184621B28D
:10915000CDE90078A4B2092302220EF049FD0325CF
:109160003A464FF00113A71C2946304637827582D4
:109170007361073416F01CFD3482C6F814807582C2
:1091800020E02649174816F063FB164B2D68B3F90B
:109190001060144801940A27711C09B20097092332
:1091A00002220EF025FD0F48013529463A460323D9
:1091B000074603364FF0011506824561438216F0DB
:1091C000F7FC7C6107B0BDE8F08F504604F094FADC
:1091D0006DE70C200B601AF0E9FCFDF739FC044642
:1091E0000FE700BFE077002098670020020003002F
:1091F000886700203C600020487A0020386000200A
:1092000008CB040074670020786700203600030054
:109210002CCB040010CB040020CB040018CB04009E
:10922000596B00208C67002000250C23CDE9003508
:109230003D481623012234210EF0DAFC3A483B4B1C
:1092400003614FF001122146426104460A2216F0E2
:10925000A7FC3749204616F0FBFA656107B0BDE868
:10926000F08F314FB7F910400A26611C0025CDE977
:109270000065384609B2092302220EF0B9FC033416
:10928000324603234FF00116012138463C827E61AD
:109290007B8216F08DFC7D6194E7234BB3F910407F
:1092A0000A27013400261D46184621B2CDE9007672
:1092B000A4B2092302220EF09BFC4FF003083A46A9
:1092C0004FF00113A71C022128462F826B61A5F8DD
:1092D0001280073416F06CFC2C826E61A5F81280A7
:1092E00028E7114BB3F9105001941E460A270135A7
:1092F00029B20097ADB20923022230460EF078FC65
:109300004FF003083A464FF00113AF1C01213046DD
:1093100037827361A6F81280073516F049FC358252
:10932000A6F81280746100E7E077002036000300A1
:109330002CCB040030B583B017F0B8F9404B1B6854
:1093400098423BD23F4C2378002B37D03E4D2B68C0
:1093500063B117F0ABF92B68984207D23B4A2168FA
:10936000914252D0394A2168914229D0384C162571
:109370000023CDE90053204678231D2204210EF05E
:1093800037FC0123204601931D22042100957823F8
:109390000EF076FC4FF0011363612A4820F015FCB3
:1093A000284900EB4000C0F14003242220462382DC
:1093B000628203B0BDE8304016F04ABA03B030BD57
:1093C0006168244A9142D1D1234A244910688842D5
:1093D000CCD1918844F245329142C7D19BB117F06C
:1093E00065F92C68A0420ED217F060F9201A10F52A
:1093F0007A7F00F2E7331AD90121102003B0BDE8CB
:109400003040FCF7BBBF0021F7E7124A6168914288
:10941000A8D102F12852A168A2F56E02073A914242
:10942000A0D1A18944F2435291429BD1D6E70C4985
:10943000A1FB032399096329A8BF6321DDE700BFCE
:10944000707800205C78002044790020424C4F4323
:10945000E07700204B4544206478002033302053CF
:10946000D34D62102DE9F04F814C824E89B03023EC
:1094700001271022CDE900372046802300214FF03C
:109480000118C4F814800EF0FBFB7B4B7B49236171
:10949000204616F0DDF90A223168204616F05AFB04
:1094A000774A336815689D4231DC0A23CDE90037DD
:1094B0001F227C23022120460EF09AFB714B4FF0B5
:1094C000000AC4E9043A002D6DD0336805F1FF3974
:1094D00099451FDB32686B1C934218DC6A4F4FF0D2
:1094E0000111C4E90471002B00F0B580954264DBE2
:1094F0003268AB1C9A420ADB64484FF00111C4E9A0
:109500000401002B00F0AC800135AA4226DC09B032
:10951000BDE8F08FDFF88881C9EBC90108EB810154
:1095200002AF0731384617F023F8049B0E2B4FEAA1
:10953000C90B66D8ABEB090908EB890839464C48DA
:1095400016F062F9524B98F90610494823610A2235
:1095500016F02EFB384617F025F8BBE7DFF8408100
:10956000C5EBC50108EB810102AF0731384616F0A3
:10957000FFFF049B0E2B4FEAC5065ED8751B08EB58
:10958000850839463A4816F03FF9424B98F90610DB
:10959000374823610A2216F00BFB384617F002F811
:1095A00009B0BDE8F08F3C49204616F0EFF933686A
:1095B000002BACDD344BC4E90438DFF8E480C5EBA4
:1095C000C50108EB810102AF0731384616F0D0FF24
:1095D000049B0E2B4FEAC50921D8A9EB050908EB1E
:1095E00089083946224816F00FF92C4B98F90610D5
:1095F0001F4823610A2216F0DBFA384616F0D2FF24
:1096000076E7524605A80E23394617F01FF805A93C
:10961000384616F0CFFF05A816F0C4FF8AE705A864
:109620000E230022394617F011F805A9384616F026
:10963000C1FF05A816F0B6FFCFE705A80E2300224C
:10964000394617F003F805A9384616F0B3FF05A808
:1096500016F0A8FF92E71049054816F097F947E77A
:109660000D49034816F092F909B0BDE8F08F00BF2C
:10967000E07700204C7800200500140040CB040067
:10968000CC7900200500200005002A0005003400E8
:109690006400200064003400F8C2040064002A0062
:1096A000687200202DE9F04F3C4B1B7887B043B126
:1096B00016F0FCFF3A4B1A6841F28833801A984240
:1096C0004DD8384C20460FF055FF012700220E23BD
:1096D0001146CDE90037204680230EF089FA002597
:1096E000314B324923612046656116F05FF8304BFB
:1096F00030492361204616F059F830230093102298
:1097000080230197294620460EF0BAFA2A4B2B4AAD
:109710001B7803924BB32A4ADFF8B0A0DFF884909D
:1097200006AB03EB87030DF10C0843F80C2C18254E
:1097300000264FF0050BDAF80030B342484619D046
:109740004FF0011358F8041B6361A4F810B0658250
:10975000013616F01BF90C35BE42ADB2EBDD1148F7
:1097600007B0BDE8F04F0FF015BF164B164A049333
:109770000227D1E701210D23AA1ECDE9003112B243
:109780007C2302210EF034FA002358F8041BA4F8BD
:1097900010B04846013665826361DAE7506A0020FE
:1097A0004C6A0020E07700200200030068CB040030
:1097B0005400030074CB0400596B0020F8C204006D
:1097C00058CB04007CCB040048CB0400AC790020CB
:1097D0002DE9F04F3A4DDFF8FC90DFF8FCA087B0A0
:1097E00028460FF0C7FE012600220E231146CDE9C0
:1097F0000036284680230EF0FBF90024314B324915
:109800002B6128466C6115F0D1FF3023019621466B
:1098100028460093102280230EF032FA2B4B93E857
:10982000070003AF87E80700A8461826D9F80030DC
:10983000A34228D04FF001136B61052257F8041B97
:109840002A820FFA86FB4046A5F812B016F000F8FF
:10985000012C0CD0022C24D001340C36032CB6B2CF
:10986000E4D1174807B0BDE8F04F0FF093BE9AF867
:10987000002002BB71221649A5F812B040462A8288
:1098800015F0E6FFE8E701210D23B21ECDE9003116
:1098900012B27C23022140460EF0AAF900236B612C
:1098A000CBE79AF80020012AE4D0054807B0BDE8CC
:1098B000F04F0FF06FBE0C36B6B20224B6E700BF11
:1098C000E0770020020003007CCB040090D004006D
:1098D0008CCB0400506B00202F600020F0B5264C8C
:1098E00083B0054620460FF045FE012700220E23D7
:1098F0001146CDE90037204680230EF079F9002685
:109900003946204666610EF0A3FE1C4B1C492361BC
:10991000204615F04BFF39464FF001132046636196
:109920000EF096FE284620F050F9A0EB8003BB40D5
:1099300013F1810FA4BF803343F34F0629461C2344
:109940000D486382268215F083FF10230122CDE9A2
:10995000003209483022802300210EF091F9094B92
:1099600009490548236115F021FF034803B0BDE80C
:10997000F0400FF00FBE00BFE07700200A000300A8
:1099800090CB040012003400A4CB04002DE9F04F6A
:109990002DED028BB74C8BB0012781464FF00E0A9C
:1099A0001FFA89F502B2CDE900A7204680230021E5
:1099B0000EF066F9C5F133031BB205F10D02CDE9D6
:1099C000003712B2204680230021AE1C0EF058F959
:1099D00033B208EE103A0A2318EE102A01972046F7
:1099E0000093022105F103080EF002F90FFA88F73F
:1099F00004224FF0000BA04922822046C4F814B084
:109A0000678215F025FF9D48A4F810A0678206F034
:109A10005FF828B1DFF8B0A29AF80020022A49D0F6
:109A2000974E33684FF001126261002B35D1954E8D
:109A3000737D2BB305F114032422638292492282A1
:109A40008C4815F005FFB11D05A816F091FD079B88
:109A5000002B00F0088103EB43035B00C3F180039C
:109A60005B10203505A923826582824815F0CCFE63
:109A700005A816F097FD0BB0BDEC028BBDE8F08F8A
:109A80001A351A2381497B486582238215F0E0FE4E
:109A90000BB0BDEC028BBDE8F08F16F007FE33680B
:109AA0009842C4D2002B40F0F48100214846FCF7D4
:109AB00065FCEDE702A80AF1010116F059FD049AD0
:109AC0000A2A4FF00A0300F25D824FF0011969483B
:109AD000C4F8149002A915F097FE6D4B1B78002B6B
:109AE00000F04981674B5A7D42B319789AF81020EB
:109AF000914223D159789AF8112091421ED1997838
:109B00009AF81220914219D1D9789AF813209142EB
:109B100014D119799AF8142091420FD15A799AF8F0
:109B200015309A420AD12E2205F11A03594951489B
:109B3000C4F814902282638215F038FE16F0B6FD48
:109B4000554B1B68C01A632840F2318216F0AEFDF7
:109B5000524B1B68C01A632840F2218247480021FB
:109B600005F0E0FF814618B103F07AFD00285DD1D1
:109B70004B4BD3ED007A4B4BD3F80090B9F1060F65
:109B800040F3B2809FED487AF4EEC77AF1EE10FA16
:109B900000F37B819FED4E7AF4EEC77AF1EE10FA76
:109BA00040F3838205221A6091464FF0010A05F1C5
:109BB00008023048CDF800A012B2032359210EF05C
:109BC0007BFED14500F38A81384B1D78002D00F0D3
:109BD000C381282D00F36E81142D00F30182344AD5
:109BE00013780133DBB21D2B137000F2F181314B7E
:109BF0001B78002B40F007824FF00113092D6361A1
:109C000000F36A816C2329461A4823820A2267825C
:109C100015F0CEFF2849174815F01AFE02A816F0D5
:109C2000C1FC0BB0BDEC028BBDE8F08F484603F0E1
:109C300063FD00F17703DBB2762B194B88BFD3EDC0
:109C4000007A98D89FED1D7AD3ED007ADFED1C6A7B
:109C500067EE877A07EE100AB8EEC77AE7EE267A43
:109C6000C3ED007A87E7174905A816F0C5FC079BE6
:109C7000F1E600BFE0770020B4CB0400487A002072
:109C800044790020386B0020E8CB0400FCCB0400B2
:109C900061790020DCCB04006C7900207879002009
:109CA0001460002084670020000068C2C87900208A
:109CB00080670020486A00202CCB04009A99193F45
:109CC000CDCCCC3EF4CB04001860002000005CC278
:109CD000000080C200008CC2000098C20000A4C234
:109CE0000000B6C20000BCC2B9F1000FC0F2AA80E9
:109CF000B9F1050F40F093811FED0C7AF4EEC77AAD
:109D0000F1EE10FA00F3C1801FED0F7AF4EEC77A7E
:109D1000F1EE10FA3FF749AF1FED127AF4EEC77A71
:109D2000F1EE10FA00F3BA811FED157AF4EEC77A5E
:109D3000F1EE10FA00F3A5801FED187AF4EEC77A61
:109D4000F1EE10FA00F3A6811FED1B7AB4EEE77A6C
:109D5000F1EE10FA00F153811FED1E7AF4EEC77A8E
:109D6000F1EE10FA40F29E81C3F80090B9F1000FB5
:109D70003FF42AAF19E7DFF87C93D9F80030002BC5
:109D80003FF4DCAE16F092FCD9F8003047F23052C6
:109D9000C31A93423FF6D2AECD49CE4ACE484FF0D9
:109DA000640909FB03F9A1FB09194FF0010A4FEA05
:109DB0005939A2FB0323052105F11202B9F1640F01
:109DC0004FEA931CCDE9001A12B24FF066034FF030
:109DD0000D0114BFCB464FF0630BCCF11E060DF006
:109DE0004FFF05F1130203210FFA89F30091BA48DE
:109DF000CDF804A012B20E210DF0FAFE5B46B74A70
:109E00000096142105A81FF031FE05A81FF0DDFE05
:109E100000EB400000FA0AF3C3F1800343FA0AF3AF
:109E200005F11A0205A923826282AB4815F010FDE4
:109E3000082205F12403AA4922826382A64815F06C
:109E4000B5FC7BE69FEDA77AF4EEC77AF1EE10FA47
:109E50001BDC9FEDA97AF4EEC77AF1EE10FA3FF71A
:109E6000A1AE9FEDA77AF4EEC77AF1EE10FA00F3F7
:109E700015819FEDA57AF4EEC77AF1EE10FA40F362
:109E8000828103221A6091468FE606221A6091466B
:109E90008BE616F00BFC3468A042BFF406AE16F059
:109EA00005FC201A10F57A7F00F2E73140F2888035
:109EB0000121FBE501210A23CDE9003118EE102A2A
:109EC0001823854866210DF093FE0023632D6361FE
:109ED000C8BF67233FF797AE692394E6EA1D7E4823
:109EE000CDF800A012B204235B210EF0E5FCB9F11D
:109EF000020F7FF769AEAA1D7748CDF800A012B215
:109F000005235D210EF0D8FCB9F1030F7FF75CAE9D
:109F10006A1D7148CDF800A012B206235F210EF031
:109F2000CBFCB9F1040F7FF74FAE2A1D6A48CDF87C
:109F300000A012B2072361210EF0BEFCB9F1060F9A
:109F40007FF442AE6448CDF800A00FFA88F20823EF
:109F500063210EF0B1FC37E601210A23CDE900317F
:109F600018EE102A5C48182366210DF089FE4FF088
:109F7000011269235C49678262612382564815F0A9
:109F800067FC4BE65A4605A802A916F05FFB05A937
:109F900002A816F00FFB05A816F004FB95E54B236D
:109FA0001F21678223824C480EF0ACFAD6E551227D
:109FB0002B1D1E212282638247480EF0A3FAC5E5BD
:109FC000444BA3FB013189096329A8BF63216DE5D7
:109FD00046490B78002083F001030B70107008E6EF
:109FE00001210A23CDE9003118EE102A18233A483E
:109FF00066210DF045FE4FF0011363616CE701220D
:10A000001A609146D1E501210A23CDE9003118EE0D
:10A01000102A3148182366210DF032FEECE59FED41
:10A02000317AF4EEC77AF1EE10FA3FF72EAFB9F1BC
:10A03000040F75D19FED2E7AF4EEC77AF1EE10FA87
:10A040003FF7B0AD9FED2E7AF4EEC77AF1EE10FA3D
:10A050003FF7ABAD9FED2C7AF4EEC77AF1EE10FA34
:10A060003FF70FAF9FED2B7AF4EEC77AF1EE10FABF
:10A0700010DC9FED277AF4EEC77AF1EE10FABEDC21
:10A080009FED267AF4EEC77AF1EE10FA0AD904228F
:10A090001A608AE502221A60914686E504221A6057
:10A0A000914682E500221A608EE59FED157AF4EE66
:10A0B000C77AF1EE10FAF1DC9FED137AF4EEC77A6D
:10A0C000F1EE10FA3FF7DDAE4FF0060934E600BFBF
:10A0D00073B2E745D34D6210E0770020B8CB04009F
:10A0E000C8CB0400000068C2E4CB0400486A00202A
:10A0F000000074C2546B0020000080C2000086C2C1
:10A1000000008CC2000092C2000098C200009EC2F3
:10A110000000B6C20000A4C20000B0C20000BCC271
:10A120001FED0B7AF4EEC77AF1EE10FA3FF73AAD75
:10A13000B9F1030F34D11FED0F7AF4EEC77AF1EEC7
:10A1400010FAABDC1FED107AF4EEC77AF1EE10FADC
:10A150003FF797AE1FED117AF4EEC77AF1EE10FAE1
:10A1600098DC1FED157AF4EEC77AF1EE10FA3FF79E
:10A1700046AF1FED167AF4EEC77AF1EE10FA91D9D8
:10A1800003221A6011E51FED1D7AF4EEC77AF1EE95
:10A1900010FA3FF77FAF1FED207A4FF00009D5E5A9
:10A1A0001FED297AF4EEC77AF1EE10FA3FF776AF99
:10A1B000B9F1020F22D11FED2D7AF4EEC77AF1EE3C
:10A1C00010FA3FF75EAE1FED2D7AF4EEC77AF1EE8E
:10A1D00010FA3FF75FAF1FED327AF4EEC77AF1EE77
:10A1E00010FA3FF70CAF1FED337AF4EEC77AF1EEB9
:10A1F00010FA7FF657AF02221A60D6E41FED3E7ABE
:10A20000F4EEC77AF1EE10FA3FF73BAEB9F1010F69
:10A210001AD11FED427AF4EEC77AF1EE10FA3FF749
:10A2200039AF1FED457AF4EEC77AF1EE10FA3FF739
:10A23000E6AE1FED467AF4EEC77AF1EE10FA7FF63D
:10A2400031AFC3F80090B0E41FED4E7AF4EEC77A58
:10A25000F1EE10FA3FF71EAFB9F1000F7FF474ADC5
:10A260001FED537AF4EEC77AF1EE10FA3FF7C7AE5E
:10A270001FED567AF4EEC77AF1EE10FA7FF612AFC0
:10A28000C3F80090A0E400BF2DE9F04FCF4B2DEDB7
:10A29000028B1B688B428FB00C46834654D00E2332
:10A2A0000127CDE9003702B28023C9480297002177
:10A2B0000DF0E6FC00261FFA8BFBC54D029B0193B7
:10A2C0000BF102080FFA88F34FF00A0A1A460BF155
:10A2D00003072846022108EE103A4FF000095346C2
:10A2E000CDF800A066F30F0905970DF081FC39B297
:10A2F00004230F4666F31F49524603912846611C0A
:10A3000004EB44062B82C5F814906F82C4EBC6069A
:10A3100015F04EFCAF4B6F829B5D0E222A82022B02
:10A320004FEA4402049225D00299002261F30F0201
:10A3300061F31F426A61A3B1012B00F0FE800FB0F0
:10A34000BDEC028BBDE8F08F0E230126CDE900366F
:10A3500002B280239E4800210DF04AFC00230293A4
:10A36000A9E79D49284615F073FA0FB0BDEC028BA2
:10A37000BDE8F08F974B711C08A8194408EE900AAD
:10A3800016F0F6F80A9B534500F20881029A9048AD
:10A39000002362F30F0362F31F4318EE901A079332
:10A3A0006B6115F031FA16F081F98C4B53F82430BB
:10A3B000C01A632840F2E88016F078F9884B53F809
:10A3C0002430C01A632840F2D680824B069410369F
:10A3D0004FF0000833444446DFF83CA2029F984601
:10A3E00002E0142C00F01A81A1B2504605F09AFB4D
:10A3F000013406460028F4D003F032F90028F0D0EA
:10A4000031460BA803F03CF998F800109DF82D2078
:10A410009142E6D198F801109DF82E209142E0D1AA
:10A4200098F802109DF82F209142DAD198F8031085
:10A430009DF830209142D4D198F804109DF8312035
:10A440009142CED198F805109DF832209142C8D1A2
:10A450003046069C029703F04FF9064616F026F99F
:10A4600006F17703DBB2762B00F2A9805D4A52F841
:10A470002430C31AC82B40F2A2805B4B9FED5B6A6D
:10A48000DFED5B6A42F8240003EB8403D3ED007A2E
:10A4900007EE106A67EE867AB8EEC77AE7EE267A9C
:10A4A000C3ED007A534B53F82460062E00F3C080AE
:10A4B000002EC0F2E281052E00F089819FED4E7AD8
:10A4C000F4EEC77AF1EE10FA00F3FF81042E40F0AB
:10A4D0006D829FED4A7AF4EEC77AF1EE10FA00F33E
:10A4E000B7809FED477AF4EEC77AF1EE10FA00F3E9
:10A4F000B2809FED447AF4EEC77AF1EE10FA00F3E1
:10A50000F9819FED417AF4EEC77AF1EE10FA00F38B
:10A51000F9819FED3E7AF4EEC77AF1EE10FA00F37E
:10A52000ED819FED3B7AF4EEC77AF1EE10FA40F23E
:10A530003982042243F824208DE03649284615F05C
:10A5400087F9244B711C08A8194408EE900A16F0EC
:10A550000FF80A9B0A2B00F2BC8118EE901A1C48D7
:10A5600015F052F918EE900A16F01CF80FB0BDEC79
:10A57000028BBDE8F08F039A15486A824B231F2196
:10A580002B820DF0BFFF20E751220BF104031E21A7
:10A590000F482A826B820DF0B5FF0DE718EE901A76
:10A5A00053460BA8002216F051F80BAB18EE900A98
:10A5B000194615F0FFFF0BA815F0F4FFE6E60A4B6D
:10A5C00003EB8403D3ED007A6CE700BF306000201A
:10A5D000E07700203C60002010CC04006C79002063
:10A5E0007879002024640020046000206666663FBD
:10A5F000CDCCCC3D30640020000068C2000074C2A5
:10A6000000008CC2000098C20000A4C20000B6C2C4
:10A610000000BCC214CC0400487A0020069C0297BB
:10A6200016F044F8BB4B03EB8403D3ED007A39E713
:10A630009FEDB97AF4EEC77AF1EE10FA00F3458196
:10A640009FEDC07AF4EEC77AF1EE10FA40F3F9808C
:10A65000052643F82460029B00930BF10802AF48E3
:10A6600012B2032359210EF027F9012E44DC049B7A
:10A670002344C4EBC304AA4B1C4494F91640002C99
:10A680001DDB282C6EDC142C00F3EB80A54A13781C
:10A690000133DBB21D2B137040F29680A2490B7878
:10A6A000002083F001030B701070002B40F0D98064
:10A6B000079B6B61092CCCBF69236C2362E09B4B29
:10A6C000029A1B7895480192632B4FF00A0300937E
:10A6D00018EE102A4FF018034FF0660167D90DF0FD
:10A6E00087FA039A92498D48C5F814906A236A82C2
:10A6F0002B8215F0ADF851E0029F884800970BF1CE
:10A70000070212B204235B210EF0D6F8022EAEDD52
:10A710000BF106028148009712B205235D210EF06D
:10A72000CBF8032EA3DD0BF105027C48009712B293
:10A7300006235F210EF0C0F8042E98DD0BF1040211
:10A740007648009712B2072361210EF0B5F8062E65
:10A750008DD1BDF9142071480097082363210EF0B4
:10A76000ABF884E7029A01920A23009318EE102AAC
:10A770006A48182366210DF03BFA632CC5F8149043
:10A7800098DD672321462B826448039B6B820A2253
:10A7900015F00EFA6749614815F05AF818EE900A5C
:10A7A00015F000FF0FB0BDEC028BBDE8F08F0DF08F
:10A7B00067FA079A6A616923039A5F4957486A8270
:10A7C0002B8215F045F8E9E7574B1B786DE79FEDB5
:10A7D0005B7AF4EEC77AF1EE10FA76DC9FED597AE7
:10A7E000F4EEC77AF1EE10FA3FF735AF9FED587AE5
:10A7F000F4EEC77AF1EE10FA00F388809FED537AF9
:10A80000F4EEC77AF1EE10FA74DC9FED547AF4EEB0
:10A81000C77AF1EE10FA75DC9FED4F7AF4EEC77A45
:10A82000F1EE10FA6ADC9FED4F7AF4EEC77AF1EEA2
:10A8300010FA40F2B78043F82460002E3FF417AFBF
:10A8400009E79FED437AF4EEC77AF1EE10FA5DDC8A
:10A850009FED3E7AF4EEC77AF1EE10FA4ADC062656
:10A86000D3E7029A01920A23009318EE102A2B488C
:10A87000182366210DF004FA1AE79FED277AF4EE0B
:10A88000C77AF1EE10FA20DC9FED2E7AF4EEC77A4B
:10A89000F1EE10FA3FF7DCAE9FED2D7AF4EEC77AB9
:10A8A000F1EE10FA32DC9FED297AF4EEC77AF1EE80
:10A8B00010FA1FDC9FED297AF4EEC77AF1EE10FA58
:10A8C00020DC9FED277A0026A8E7062643F82460BF
:10A8D000C1E618EE901A53460BA8002215F0B6FEFA
:10A8E0000BAB18EE900A194615F064FE0BA815F094
:10A8F00059FE32E6032643F82460ACE6012643F80D
:10A900002460A8E6022643F82460A4E6042643F85F
:10A910002460A0E604600020000068C2E077002008
:10A920003C60002020640020486A0020C879002094
:10A930000CCC04002CCB0400E4CB040000005CC26F
:10A9400000009EC2000080C2000086C2000098C2C3
:10A9500000008CC2000092C20000B6C20000A4C277
:10A960000000B0C20000BCC21FED087AF4EEC77A46
:10A97000F1EE10FABEDC012E76D11FED0F7AF4EE67
:10A98000C77AF1EE10FABDDC1FED0D7AF4EEC77A4E
:10A99000F1EE10FAB2DC1FED0D7AF4EEC77AF1EEAB
:10A9A00010FAB4D8002243F8242060E61FED1B7A89
:10A9B000F4EEC77AF1EE10FA3FF74AAE032E26D135
:10A9C0001FED1F7AF4EEC77AF1EE10FA9EDC1FED50
:10A9D000217AF4EEC77AF1EE10FA8BDC1FED217AC2
:10A9E000F4EEC77AF1EE10FA8CDC1FED257AF4EE66
:10A9F000C77AF1EE10FA81DC1FED267AF4EEC77A01
:10AA0000F1EE10FACED9032243F8242023E61FEDFD
:10AA1000307AF4EEC77AF1EE10FA3FF777AF022EF4
:10AA2000A2D11FED347AF4EEC77AF1EE10FA3FF7B7
:10AA300061AF1FED367AF4EEC77AF1EE10FA3FF708
:10AA400061AF1FED3B7AF4EEC77AF1EE10FA3FF7F3
:10AA500055AF1FED3C7AF4EEC77AF1EE10FAA1D9AA
:10AA6000022243F82420F6E51FED447AF4EEC77A7B
:10AA7000F1EE10FA3FF746AF002E7FF4CDAE1FED9A
:10AA8000487AF4EEC77AF1EE10FA3FF737AF1FEDD0
:10AA90004B7AF4EEC77AF1EE10FA83D943F82460CA
:10AAA000E5E500BF2DE9F041C04C82B015F0FEFD98
:10AAB00020460EF05FFD204601210DF0C9FDBC4B84
:10AAC0001A78032A00F0FA80052A00F0FC80B94DBC
:10AAD0002B78012B0FD0022A4AD0002A00F0B68032
:10AAE000012A00F05381FEF725FCB04802B0BDE812
:10AAF000F0410EF04FBD042A00F0A380AE4804F0F0
:10AB0000E7FF002840F02C8100220E23012511468A
:10AB1000CDE90035A54880230DF06AF8A74B002247
:10AB2000C4E90432FEF702FA09F0BEFD002800F085
:10AB30000481A34D95F90030082B00F0EA800C2326
:10AB40000026CDE9003601222A23984855210DF030
:10AB500097F89C4A95F90030C4E90426002B00F0D0
:10AB60008981042B00F095811020FEF70FFFBAE7D2
:10AB7000FCF704FAFCF70CFD934B9449944A1B78BC
:10AB80000868106053B3002828DD924A924B15786C
:10AB90005678977892F803C092F804E092F805800E
:10ABA00000221978A94240F037815978B14240F02B
:10ABB00033819978B94240F02F81D978614540F0CE
:10ABC0002B811979714540F027815979414540F031
:10ABD00023818249824B01320A601A6000220121DE
:10ABE0000E23CDE900317148114680230DF000F8A5
:10ABF000724B7C496D480026C4E9043614F028FEE7
:10AC0000794BB4F910501F68684801964FF00A0854
:10AC1000023529B20137CDF80080092302220CF059
:10AC2000E7FF02353946032342464FF001175F48DC
:10AC300025826761638214F0BBFF6661FEF712FC38
:10AC400051E702B0BDE8F041FEF70AB90E23012634
:10AC500011462046CDE9003680230CF0C9FFFEF7EF
:10AC600065F909F021FD002800F0F180544E96F9B5
:10AC70000030082B00F0D7800C230027CDE90037E7
:10AC800001222A23494855210CF0FAFF4D4A96F932
:10AC90000030C4E90427002B00F0F180042B7FD0A2
:10ACA0002978A9B91020FFF7EFFA01212120FFF739
:10ACB000EBFA02213220FFF7E7FA14E702B0BDE811
:10ACC000F041FEF7EFBC02B0BDE8F041FEF780BDF9
:10ACD00030230122CDE900323448802310220021A4
:10ACE0000CF0CEFF344804F0F3FE002851D03F4B67
:10ACF0003F492E48236114F0ABFD3E4B3E499A6814
:10AD00002161002A00F0C0801968284814F0A0FDD5
:10AD1000E9E60C230022CDE9003224482A2301224F
:10AD200055210CF065FF354B354920484FF0011295
:10AD3000C4E9043214F08CFD16E70C2301902A4676
:10AD400000931A4809234B210CF052FF2D4B2E493A
:10AD500016484FF00112C4E9043214F079FDE8E618
:10AD60001548002104F0DEFE054600283FF4CCAE75
:10AD700002F076FC00283FF4C7AE284602F0BCFC87
:10AD800043063FF4C1AEFBF777FDBDE6FDF7E0FFFC
:10AD9000A9E61E4B1E490548236114F007FDA2E6F3
:10ADA0001C49024814F054FD7AE700BFE077002008
:10ADB000586B0020596B0020487A002002000300E5
:10ADC0001D68002059000300627900205C6B0020A0
:10ADD0004C7800208479002068720020CC79002013
:10ADE000587800203CCC04003860002008001C008B
:10ADF0004CCC0400B079002008002A005C0003005D
:10AE000024CC04004D00030020CC040014002600D4
:10AE1000FCCB040034CC04000132904203F11C034B
:10AE20007FF4BFAEDAE60C230022CDE900321B48E6
:10AE30002A23012255210CF0DBFE194B1949174832
:10AE40004FF00112C4E9043214F002FD28E70C238C
:10AE5000019032460093204609234B210CF0C8FE96
:10AE6000114B124923614FF001122046626114F028
:10AE7000EFFCFBE60E49094814F0EAFC74E60C49C5
:10AE8000064814F0E5FC0BE70A49044814F0E0FC1E
:10AE900029E60949014814F0DBFC65E6E07700206B
:10AEA0005C00030024CC04004D00030020CC04000F
:10AEB0002CCC0400D8C7040034CC040010B51C49C5
:10AEC0009AB004461B480EF033FF58BB01A8184A3D
:10AED000184901230EF022FF01A80FF04DFAD8B156
:10AEE00001220DF1030101A88DF803400EF0AEFF21
:10AEF00001A80FF025F801A80FF012FA0E490F482B
:10AF000014F054FC0E4B0F490C48002C18BF194686
:10AF100014F03CFD1AB010BD0B49084814F0C6FCF3
:10AF20001AB010BD024903480EF076FFCEE700BF0D
:10AF300078C60400C498002070CC0400C8820020A9
:10AF400060CC040054CC04008CCC040010B51C4927
:10AF50009AB004461B480EF0EBFE58BB01A8184AF5
:10AF6000184901230EF0DAFE01A80FF005FAD8B156
:10AF700001220DF1030101A88DF803400EF066FFD8
:10AF800001A80EF0DDFF01A80FF0CAF90E490F4825
:10AF900014F05EFC0E4B0F490C48002C18BF1946EC
:10AFA00014F0F4FC1AB010BD0B49084814F0EEFC84
:10AFB0001AB010BD024903480EF02EFFCEE700BFC5
:10AFC00088C60400C4980020C4CC0400C8820020B5
:10AFD00010CB040008CB0400DCCC04002DE9F04FBA
:10AFE000044685B0092018F08DFEF8B9B74B1A78E1
:10AFF000002A58D0B64B1D6841F28833651B9D422C
:10B0000040F29380B34EA6FB0536B609C6F108069A
:10B01000002E64DCB5F5FA5F40F28780AE4B1A78FB
:10B02000002A00F07C8305B0BDE8F08FA74D2B7897
:10B03000002BF8D0A64B1B68E31AA3F59C52093AE3
:10B0400040F6B7318A4237D9A44A1678002E3ED14D
:10B05000322B3CD9A24FA34A3B781460032B7ED0FD
:10B06000052B00F0A880002B40F0B2809E4B1B788F
:10B07000002B40F08B819D4A1368591C00F03382ED
:10B0800003EB43029A489B49C3EBC2020B60825C0C
:10B09000002A00F055829848984900230122036055
:10B0A0000B603A7013E08A498C480C6001210270F1
:10B0B000197005B0BDE8F08F9149924814F0F6FB85
:10B0C00087498A4B00204FF0FF3208701A60002336
:10B0D00032202B7005B0BDE8F04F15F0F3BA8A4F5F
:10B0E00038460EF047FA384601210DF0B1FA874B89
:10B0F0003B614FF001127A618549384614F056FBE6
:10B10000844B3B610A223146384614F051FD3846E3
:10B1100001210DF09DFA804B80493B61384614F0C7
:10B1200045FB38460EF036FA74E76C4B1A78002A65
:10B130007FF479AF684A1278002A7FF474AFB5F5CE
:10B14000966F7FF670AF674875490460644D6B4831
:10B150000A60032401212C700260197063E7704BB0
:10B160001B68002B00F0E880012B00F078815E4A1C
:10B170001278002AABD1022B08BF0120A7D1624C64
:10B18000FFF7E4FE20460EF0F5F9204601210DF010
:10B190005FFA644B644923614FF0011262612046FB
:10B1A00014F004FB20460EF0F5F96049554814F000
:10B1B0007DFBFBF787F85E4B1C68002C40F0C580D8
:10B1C00057484E490123032203600B603A707EE723
:10B1D000042B00F0F880022B00F04C81012B7FF44F
:10B1E00076AF454B1B68002B00F07481012B00F0FB
:10B1F000E181022B7FF46BAFDFF8F890DFF8F0808D
:10B20000DFF830A100264FF0170B02E00136142EB4
:10B2100037D0B1B2504604F085FC04460028F5D082
:10B2200002F01EFA0028F1D0214602A802F028FA06
:10B23000D9F800309DF809100BFB03F3103308EB2D
:10B24000030218F803308B42E0D151789DF80A30A0
:10B250009942DBD191789DF80B309942D6D1D178C3
:10B260009DF80C309942D1D111799DF80D30994259
:10B27000CCD152799DF80E309A42C7D1204602F0C7
:10B2800027FAD9F80020172303FB02F3002403F167
:10B2900010015A1C08F8034008EB010008EB0203F8
:10B2A00048F80140848048F802409C605C60C3F824
:10B2B0000B40FCF711FD11490C4A3C704FF0FF3375
:10B2C0000C601360C9F8003001E700BF506A00202D
:10B2D0004C6A0020D34D62103D6400203C64002085
:10B2E000586B002068790020596B002030600020E6
:10B2F0003C60002038600020D87900205878002079
:10B3000078CD0400C8820020E077002004001200FD
:10B3100014CD04003D0020000D002E002CCD0400B3
:10B32000AC79002025001E0094CD0400A0CD0400BF
:10B33000506B0020487A0020AC49AD4A00234FF002
:10B34000FF30086013603B70C1E6012C00F0D38031
:10B35000022C7FF4BCAEA74BA74E012420461C70E4
:10B36000FFF7ACFDA549132230461EF059FC00231F
:10B37000F37415F09BF9A24BA2499D4A1C6000F59D
:10B3800096600323086014603B70A0E69E4C23780F
:10B3900023B99E4E3368002B40F0E2809C4B5B7DCE
:10B3A0002BB99C4804F094FB002800F0F2809A4CE2
:10B3B0008F4A9A499A4800232360136004233B7004
:10B3C00014F074FA83E6944B1E68002EB4D0012E5C
:10B3D0007FF47DAE934B8E4A8B488C4992F8158052
:10B3E0000024C3F809409C821C61C3F80140C3F8E3
:10B3F0000540DC601C701460948094715475047076
:10B400000C60FCF769FC8849854814F04FFA874ABC
:10B41000874B80481E700421117004F0E5FA7D48C6
:10B4200004F056FB002840F02D811322B8F1000FE4
:10B4300000F0BB807F4970481EF0F2FB6E4B002489
:10B44000DC7415F033F96A4A6E49684B146000F5F4
:10B45000FA604FF0FF323C7008601A6037E6764BB6
:10B460001B78002B42D1754A6149136005220B609D
:10B470003A702CE6724B1C6864B3013C4ED4714B9D
:10B480001B68A3424ADD704B1B78002B46D06F4AE5
:10B490006F491C2303FB04235A1E053311F8010BCB
:10B4A00012F8016F864239D19342F7D1694802F010
:10B4B0005BFE642015F006F9674B6848242101FB08
:10B4C000043101F029F9494A4FF0FF31002311609E
:10B4D0003B70FCE5454862494FF0FF3300220360B2
:10B4E0000B603A70F3E500231360F0E5012B7FF465
:10B4F000EEAD002043E63F4BDFF8FC801E70304687
:10B50000FFF7DCFC5749132240461EF089FB88F800
:10B51000136015F0CBF83B49394B2EE7364B5249B7
:10B52000184613221EF07CFB0022C27415F0BEF8F0
:10B5300034494E4B00F57A70012208601A70C6E556
:10B540003F492B483F4B0A60494902601A603E4818
:10B550003F4B0A60022102701A609A803970B6E58A
:10B56000254F44492E4814F0A1F94FF0000801235B
:10B570004149237013223846C6F800801EF050FB64
:10B5800087F8138015F092F81E4B00F2DC5018601B
:10B590009DE53A49184813221EF042FB15F086F843
:10B5A000184B00F2DC50186091E5354912481EF046
:10B5B00037FB43E7244A23492D48214E0C4C0023F6
:10B5C0001370234A0B6003600221224813609380AA
:10B5D00039703360236002F09DFD014600287FF43E
:10B5E00076AD1C4802F09EFD71E500BF3060002082
:10B5F000587800202F6000205C780020D8CD04000F
:10B60000AC7900207078002061790020546B002014
:10B61000386B0020487A0020546A002028CE0400AD
:10B62000C88200203C60002054CE04001D68002029
:10B630005A6B0020D8CE0400596B0020506B0020BC
:10B64000CC7900205C6B00206279002068720020B9
:10B6500084790020EC800020606B0020587A002064
:10B6600038600020C8CD0400E8CE040074780020C3
:10B670004C780020E8CD040018CE040048CE040029
:10B6800030CB04004548214604F04CFA0646002819
:10B690003FF4CBAE0DF108094846314601F0F0FF0A
:10B6A0003F4BB8F1000F6DD1BDF80D20DDF809005A
:10B6B0009A80186014F0FAFF3A4C3B4A3B4900F577
:10B6C000EA433033136020460E221EF0A9FA237895
:10B6D00084F80E80002B47D035493648DFF8F4B0A7
:10B6E000DFF8D0A014F062F89DF80E103148102257
:10B6F00014F056FA05245946504614F0A9F819F8E2
:10B7000004101022504614F04BFA013CF3D12A49A0
:10B71000284814F0CBF8304601F0DAFF85E6274CD4
:10B720002749244801251D7014F0C0F820460DF06B
:10B7300021FF294620460CF08BFF224B23614FF05E
:10B74000011262612049204614F030F820460DF0C5
:10B7500021FF4FF4FA7014F0B5FF4FF080435722E9
:10B76000C3F81C25FAF7AEFD9DF809209DF80A30B4
:10B7700001920093154A9DF80B3020460F211EF0D0
:10B7800075F9A9E70849074A0C601C6010499C80BC
:10B790000848147014F08AF8BDE700BF487A00200A
:10B7A0004879002050790020447900201960002059
:10B7B0007CCE0400C882002090CE0400E0770020F8
:10B7C00040CD040011001C0064CD040054C30400EB
:10B7D0009CCE040028CB04002DE9F04F5C4D2B7863
:10B7E000012B85B000F0A4805A4B1C78A4F1020410
:10B7F000B4FA84F4640908F057FF00B96CB9564CE8
:10B8000001E014F091FA204614F086FA034620462F
:10B81000002BF6D105B0BDE8F08F14F047FF4E4C79
:10B82000DFF84C8160F07F070646FFB2204614F037
:10B8300073FA0028EED0204614F072FA0206C3B262
:10B840000FD4F72B52D8204614F06EFA204614F08D
:10B8500063FA0028DED0204614F062FA0206C3B272
:10B86000EFD53E4AF72B166040D800F0E000C02824
:10B8700020460CBF4FF0020B4FF0030B14F04CFAB4
:10B880005845C7DB364B00221B7E8DF804300DF186
:10B890000409ADF805200BEB090A204614F044FA20
:10B8A00009F8010BCA45F8D19DF8043003F0F00205
:10B8B000902A2FD0802A30D09DF806209DF80510C0
:10B8C00028788DF80A3001284FF080038DF80B108E
:10B8D0008DF80C208DF809708DF808300BF10202FC
:10B8E00002A913D0404601F087FC9FE7204614F0E0
:10B8F0001BFA2B788DF80A008022012B8DF8082086
:10B900008DF809704FF0030202A9EBD1154801F040
:10B91000D7FA8BE79DF806207AB99DF80510124AF0
:10B92000505C002882D0002050549DF80620C7E7C4
:10B930000E4804F0CDF804465DE79DF805100A486E
:10B9400010F801C094453FF471AF4254B8E700BF0E
:10B95000596B00203C60002070A900206C79002009
:10B9600084D00400C86A00209C670020487A002028
:10B970003469002070B51C481C4D1D4E13F0E2FECA
:10B9800014F094FE044608F08FFE1A4B1A78824297
:10B9900018BF1870FFF720FF2046FBF78BFE2046EC
:10B9A000FFF71CFB2B788BB93368E31A202B0DD8DB
:10B9B0002046FBF745FF2046FBF77CFD0E4B1B782E
:10B9C000204663B9BDE87040FCF774B8FFF76AF829
:10B9D0002B783460002BEBD000232B70E8E7BDE818
:10B9E0007040FDF7BBB800BF6CA900207478002040
:10B9F0001C6400201C680020596B0020022A0DD90D
:10BA0000F0B52C4B984283B009D003F14004A0421A
:10BA100049D08033984249D003B0F0BD7047002030
:10BA20000546032A8C7839D0042ACE7839D00F798C
:10BA30008DF80540F72C40EA141388BF40F00F0042
:10BA40008DF804308DF8066088BF8DF804008DF8FD
:10BA5000077008F029FE60B1174B186848B101A9BA
:10BA600005F096FB14F022FE144B43F8250003B0BA
:10BA7000F0BD002DF6D11248214614F079F9F72CCB
:10BA8000F0D80F48314604F0E00414F071F9C02CEE
:10BA9000E8D039460A4814F06BF9E3E70026374648
:10BAA000C6E70027C4E710200125BAE720200225B9
:10BAB000B7E700BF346900202C7A00207879002095
:10BAC00070A90020022B31D970B5032B947882B075
:10BAD0001AD0042BD57839D0167908F0E5FDC8B115
