:020000022000DC
:106000000000042095300400D5300400D73004008F
:10601000D9300400DB300400DD3004000000000053
:10602000000000000000000000000000113004002B
:10603000E13004000000000031300400E5300400CD
:10604000E9320400E73004001D0604006D7C030003
:10605000217D0300E7300400F5080400E730040068
:10606000E7300400E7300400E7300400E7300400C4
:10607000E7300400E7300400E7300400E7300400B4
:10608000E7300400612D0400E7300400E73004002D
:10609000E7300400E730040059FF0200E730040055
:1060A000E7300400E7300400E7300400E730040084
:1060B000E7300400E73004000000000000000000AA
:1060C000E7300400E7300400E7300400FD37040047
:1060D000E7300400E7300400E73004001118030043
:1060E000E7300400E7300400E7300400000000005F
:1060F00000000000E73004000000000075380400D4
:10610000000000000000000000000000000000008F
:10611000000000000000000000000000000000007F
:10612000000000000000000000000000000000006F
:10613000000000000000000000000000000000005F
:10614000000000000000000000000000000000004F
:10615000000000000000000000000000000000003F
:10616000000000000000000000000000000000002F
:10617000000000000000000000000000000000001F
:10618000000000000000000000000000000000000F
:1061900000000000000000000000000000000000FF
:1061A00000000000000000000000000000000000EF
:1061B00000000000000000000000000000000000DF
:1061C00000000000000000000000000000000000CF
:1061D00000000000000000000000000000000000BF
:1061E00000000000000000000000000000000000AF
:1061F000000000000000000000000000000000009F
:10620000F1EE103A43F08073E1EE103A704700BFB0
:1062100010B5054C237833B9044B13B10448AFF3E0
:1062200000800123237010BDFC63002000000000EB
:10623000CC0C050008B5034B1BB103490348AFF371
:10624000008008BD0000000000640020CC0C0500A8
:10625000154B002B08BF134B9D46A3F5803A002138
:106260008B460F461348144A121A22F073FF0F4B45
:10627000002B00D098470E4B002B00D098470020F1
:10628000002104000D000D48002802D00C48AFF397
:10629000008022F0F5FE200029001CF053FF22F0C0
:1062A000C9FE00BF0000080000000420000000003C
:1062B00000000000FC630020F4B400200000000097
:1062C00000000000BFF34F8F0549064BCA6802F477
:1062D000E0621343CB60BFF34F8F00BFFDE700BF09
:1062E00000ED00E00400FA0538B5054CA4F1C00546
:1062F00054F8403D1B6820469847AC42F8D138BD61
:10630000F469002038B5054CA4F1C00554F8403DAF
:106310001B6820469847AC42F8D138BDE0680020A1
:10632000124B984230B4144608D003F14002904218
:1063300016D08033984216D030BC7047012200201E
:10634000002CF9D000EB4005094C91F900300949C7
:10635000C0EBC50004440848A37530BC19F078BDF3
:1063600002220120ECE703220220E9E72068002056
:106370003C600020A8C70400D082002070B52A4CE1
:106380008AB085B20E462046012112F073FB05F15A
:1063900010012B234FF001126182204623492382F2
:1063A000626119F067FC0E22214902A823F04AFE1F
:1063B0009DF8083000228DF8162043B302A823F080
:1063C00016FE00EB40004300C3F1800305F11C0200
:1063D0005B1002A914482382628219F04BFC154A13
:1063E0003346102106A823F053FD06A823F0FFFD35
:1063F00000EB40035B00C3F180035B1006A9273567
:1064000009482382658219F035FC0AB070BD0A4B39
:106410000A4A18785978CDE900100F219B7802A814
:1064200023F036FDCAE700BFE0770020D4C70400A0
:1064300054790020ECC704004C790020DCC704002C
:1064400010B504201DF070FE044605201DF06CFE02
:106450000E4A0F49137840EA440040EA8303DBB256
:10646000C0B2CB5610705BB10A4A1168002901DD39
:10647000002B08DB1168002903DB11680B44136053
:1064800010BD002BF9DD136010BD00BF5078002057
:1064900098D504005478002010B5044B044640F809
:1064A000083B08F075FF204610BD00BF28D6040049
:1064B00010B5044B044640F80C3B08F069FF204639
:1064C00010BD00BFFCD5040070B5064C064EA4F10B
:1064D000540544F80C6C20461C3C08F059FFAC42B3
:1064E000F7D170BD24690020FCD5040070B5064CBE
:1064F000064EA4F1540544F80C6C20461C3C08F0F0
:1065000047FFAC42F7D170BD386A0020FCD50400CB
:1065100010B5074B044640F8183B06F093FB2046A5
:10652000044B40F8083B08F033FF204610BD00BF85
:10653000D8D6040028D6040002B97047034B0A7865
:10654000034804491A7019F083BC00BFCC790020BD
:10655000D0820020F8C70400564B1A68013218BFD9
:106560004FF0FF32F0B518BF1A60534B1C78012C66
:1065700083B0014625D0514809F0E6FC0146C8B178
:10658000684607F08FFA4E4B9DF801101A789DF877
:1065900002009DF803409DF804509DF805609DF8A9
:1065A0000670022A50D0DA7D022A68D093F82E2095
:1065B000022A30D04349444803B0BDE8F04019F006
:1065C00087BB424B424A43491C70002313700B6047
:1065D0001AF07EFA404A414B527D414D186082B913
:1065E000404E1A6040493848347004232B7019F02B
:1065F0006FFB95F90010314803B0BDE8F04009F099
:1066000005BC384B39493048082402222C701A70D6
:1066100019F05EFBEDE793F83EC08C45CAD193F8C4
:106620003F108142C6D193F84010A142C2D193F8E5
:106630004110A942BED193F84210B142BAD193F8A9
:106640004310B94214D0B5E71A7C8A42ABD15A7CC8
:106650008242A8D19A7CA242A5D1DA7CAA42A2D1D8
:106660001A7DB2429FD15A7DBA4208BF00229AD108
:1066700002EB4201C2EBC102012199549AE793F85F
:1066800027208A4292D193F8282082428ED193F813
:106690002920A2428AD193F82A20AA4286D193F8CF
:1066A0002B20B24282D193F82C20BA4208BF01229B
:1066B000DED07BE738600020596B0020507A002044
:1066C0003C60002088C80400D082002018600020B0
:1066D00066790020546B0020386B0020D8790020A8
:1066E0001D6800205A6B002050C8040018C8040020
:1066F00038B52B4B1A7C12B11A78022A2AD193F89A
:10670000272012B1DA7D022A24D193F83E201AB153
:1067100093F82E30022B1DD1224B1B78022B0AD16D
:1067200021485022C82107F001FF1F4807F004FF4D
:1067300000282FD038BD1C4807F0FEFE044610BBD1
:106740001A4D2B78002BF5D019491A4819F0C0FAC8
:106750002C7038BD134B1B78022BE1D0124850220D
:106760004FF4967107F0E2FE0F4807F0E5FE0028AF
:10677000E0D101460C4807F0E7FEBDE838400E497D
:106780000C4819F0A5BA084807F000FF074B012292
:106790001A7038BD0146BDE83840034807F0D4BE42
:1067A0003C600020586B0020F480002048640020EA
:1067B000E8C80400D0820020B0C804002DE9F047EA
:1067C000284B294EDFF8A480DFF8A4A0DFF8A490BE
:1067D000186082B001273378022B07D00137042FCD
:1067E00006F11706F7D102B0BDE8F087002501E0F9
:1067F000142D2ED0A9B2404609F0A6FB013504465F
:106800000028F5D007F03EF90028F1D0214668466F
:1068100007F048F9327C9DF801309A42E8D1727C49
:106820009DF802309A42E3D1B27C9DF803309A423F
:10683000DED1F27C9DF804309A42D9D1327D9DF8A8
:1068400005309A42D4D1727D9DF806309A42C5D067
:10685000CEE73A465146484619F0FAFA012333701A
:10686000BCE700BF7C6700203C600020507A00201D
:1068700008C90400D08200202B4B1968084400EBA3
:10688000D07040102DE9F041284E186044B214F148
:10689000490F327829DB14F13F0F2BDA022A2BD073
:1068A000012A154638BF0125AA4221D0204F1AF0EF
:1068B0000FF93B68C01AB0F5487F19D31AF008F9F0
:1068C000022D386035702BD0012D25D0194D0021B7
:1068D0002970194809F09AFA95F9003017491848B3
:1068E0002246BDE8F04119F0B3BA0225AA42DDD133
:1068F000BDE8F0810025F9E714F1450FD0DB0C4D20
:106900001AF0E6F82B68C01AB0F5487FF0D31AF0F9
:10691000DFF8012328603370064D04212970D8E781
:10692000044D08212970D4E7106000205A6B002024
:106930004C6400201D680020507A002024C9040007
:10694000D08200202DE9F04F3C4B3D4E3D4F18606A
:106950004FF0000983B006F14508CA463378022B90
:1069600016D01736B045F9D1B9F1000F07D1364B23
:1069700093F90020082A4DD003B0BDE8F08FBAF19A
:10698000000FF9D0504603B0BDE8F04FFFF774BFD9
:10699000002501E0142DE4D0A9B2384609F0D4FA5C
:1069A000013504460028F5D007F06CF8834600282E
:1069B000F0D02146684607F075F8327C9DF801302A
:1069C0009A42E7D1727C9DF802309A42E2D1B27CC1
:1069D0009DF803309A42DDD1F27C9DF804309A4252
:1069E000D8D1327D9DF805309A42D3D1727D9DF881
:1069F00006309A42CED1FF21204607F085F8204686
:106A000007F08CF8430616D0BAF1000F0ED1D94624
:106A10008246A6E70D4A0B4883F80090494682F863
:106A2000009003B0BDE8F04F09F0F0B98245A8BF6F
:106A300082464FFA8AFAD94693E700BF6C67002076
:106A40003C600020507A00201D6800205A6B002016
:106A500030B5142483B000251DF0C0FA013C054474
:106A6000FAD1132D3CD9204B204C9FED217AD4ED47
:106A7000006ADFED205A9FED206AA3FB05352B0944
:106A800007EE903AF8EEE77AF5EE406A67EE877A1D
:106A9000F1EE10FA08BFF0EE676A67EEA57A9FED97
:106AA000177AE6EE867A642300934FF4D27227EECB
:106AB000877A0023BDEEC77A4FF4AA7117EE100A49
:106AC000C4ED007A19F058FF002807DD6428A8BF3C
:106AD0006420C0B20A4B187003B030BD0120F9E742
:106AE000074B187803B030BDCDCCCCCC70670020FC
:106AF0000000903B9A99993E3333333F0000C842DF
:106B0000786700202DE9F043032189B0BA48DFF807
:106B10006883BA4CBA4FBB4EDFF86093BA4D0AF0A7
:106B200027FD0121B9480AF023FD04A841F60F0111
:106B300008F036FC04A9404606F00AFF04A808F055
:106B400027FC2246B249404622F03CFA04A842F60D
:106B5000192108F025FC04A9384606F01FFC04A8FA
:106B600008F016FC2246AB49DFF81483384622F0C1
:106B700029FAA949A94F304608F020FC2246494687
:106B8000304622F01FFAA649284608F017FC224694
:106B90004946284622F016FAD6E902327168059174
:106BA000404604A907920693049706F0D1FE04A874
:106BB00008F0EEFBD6E9023271680792CDE9047164
:106BC00008F11C0004A9069306F0C2FE04A808F010
:106BD000DFFB73680593D6E9026204A908F1380067
:106BE000CDE90662049706F0B3FE04A808F0D0FBD6
:106BF00022468C49DFF88C828B4EDFF88C92002085
:106C000022F0E0F9D5E9023269680792CDE9047112
:106C1000404604A9069306F0C1FB04A808F0B8FB9F
:106C2000D5E9023269680792CDE9047108F14000A4
:106C300004A9069306F0B2FB04A808F0A9FB6B6850
:106C40000593D5E9025204A908F18000CDE9065266
:106C5000049706F0A3FB04A808F09AFB22467349A8
:106C6000734D744FDFF82482002022F0ABF904A8A2
:106C700041F60F0108F094FB04A9304606F068FEC7
:106C800004A808F085FB04A841F60F0108F088FB72
:106C900004A906F11C0006F05BFE04A808F078FBCE
:106CA00004A841F60F0108F07BFB04A906F13800A7
:106CB00006F04EFE04A808F06BFB22465E495F4ECC
:106CC000002022F07FF904A842F6192108F068FBA1
:106CD00004A9284606F062FB04A808F059FB04A8A2
:106CE00042F6192108F05CFB04A905F1400006F00A
:106CF00055FB04A808F04CFB04A842F6192108F043
:106D00004FFB04A905F1800006F048FB04A808F039
:106D10003FFB22464A494B4D002022F053F94A4B93
:106D20004A4A02934FF0FF33CDE900323846484BD0
:106D30004022802112F03EFA22464649384622F08F
:106D400041F94549454F04A808F058FB04A94846B5
:106D500008F0FEFA04A808F01BFB2246414648460C
:106D600022F030F93E49DFF8289104A808F046FBEC
:106D700004A9384606F034FA04A808F009FB2246B4
:106D80003146384622F01EF9284609F041F92246DC
:106D90003449354F284622F015F93449344D4846D8
:106DA00019F0F8FD22463349484622F00BF904A8B1
:106DB00041F60F0108F0F4FA04A9384608F0C8FAC1
:106DC00004A808F0E5FA22464146384622F0FAF8CF
:106DD00004A842F6192108F0E3FA04A9284606F0AF
:106DE000FFF904A808F0D4FA22463146284622F0DA
:106DF000E9F809B0BDE8F0830C7A002000600020BB
:106E0000D4780020A079002090790020E479002037
:106E1000B164020045D3020058C9040040D6040002
:106E200080C90400ED640200E0680020E96202000D
:106E300020680020E0770020C964020045CC0200F1
:106E400005630200586A0020A0860100801A06002F
:106E50005497002015920300B8D50400C86A00209A
:106E6000A8D504001165020014790020B4E90400DB
:106E70007C780020C90904002C79002091F30200DD
:106E8000F469002034690020206B0020996402001E
:106E9000B4790020F0B53148ADB012F007FF2F4BA8
:106EA0002F4913A8002213F0ADFB13A813F076FCB2
:106EB00000284CD02B4C0025452201A9C4E90055DF
:106EC000C4E9025513A82561A58213F0C5FB21462C
:106ED000162213A813F0C0FB064613A813F032FCC9
:106EE000162E28D1204B0DF1050403F1450601278C
:106EF000002514F8012C022A14BF03F8012C03F812
:106F0000017C21460E22184623F09CF822460346B7
:106F100052F80F1F857317339288C0F80F10B342D1
:106F2000A0F8132004F11704E3D11049104818F019
:106F30003FFF2DB0F0BDC4E90055C4E902550D492D
:106F4000256125750A48657518F0C2FECAE70A4929
:106F5000074818F02DFF2DB0F0BD00BFCC980020E1
:106F6000A8C90400386B00203D600020F8C9040067
:106F7000D0820020BCC9040014CA04002DE9F84FD7
:106F800019F0A6FD1E4B1D68002D37DDDFF874805B
:106F9000DFF874B08146002440F6B83302E00134D3
:106FA000AC422BDAC4EBC40108EB8100E600826935
:106FB000A9EB02029A424FEA8101F0D92F1BC7EBDD
:106FC000C702013D92001C31A542A2F11C024144BE
:106FD0004FEAC70A0EDD22F0A3F8301980005744AB
:106FE00000F12401BA00243A5944584422F098F898
:106FF00040F6B833024AAC421560D3DBBDE8F88FE7
:107000005C6B002068720020606B00202DE9F04767
:1070100090F81C80866984B000240294CDE9004475
:107020000C70CDF80B40B8F1000F2ED00F4603E0E6
:1070300001352C44444525DA355D631C32192B4457
:1070400005B343451EDC5378092B2BD0082BEFD119
:107050009DF80090B9F1000FEAD105F1FF3ABAF1BD
:107060000E0FA8BF4FF00E0AA11C524631446846CD
:1070700022F048F8013504AB9A442C4444450AF800
:10708000109CD9DB9DF8003013B904B0BDE8F0873F
:107090000E226946384622F0D5FF0023BB7304B0A8
:1070A000BDE8F087013D0E2DA8BF0E250234311931
:1070B0002A46384622F026F800237B5504B0BDE866
:1070C000F08700BF7C4B2DE9F0411D7804468C46CB
:1070D000002D40F08780D97D002940F0A28093F8F0
:1070E0002E10002940F0C2801CF1550F3DDB734F7C
:1070F000DFF8D0E13968002940DD94F80380734659
:1071000000251878404532D15E78207986422ED10C
:107110009E78607986422AD1DE78A079864226D18F
:107120001E79E079864222D15E79207A86421ED18C
:10713000C5EBC5070EEB8707614E87F806C019F04F
:10714000C7FC4FEAC5084544B86106EB850604F163
:10715000200720686168A268E36835460FC51034CF
:10716000BC422E46F5D120682860BDE8F08101358B
:107170008D4203F11C03C4D13129F6DCC1EBC101FE
:1071800026468B0056F8030F4EF803000EEB8105E0
:1071900007331146B288AA800EEB030085F806C0BB
:1071A0000E2222F04FFF00236B7519F091FCD7F8E7
:1071B00000C0434EA8610CEBCC0306EB830604F140
:1071C000200E20686168A268E36835460FC5103458
:1071D00074452E46F5D1206828600CF101033B6010
:1071E000BDE8F081187CE17888427FF474AF2079A3
:1071F000597C88427FF46FAF987C617988427FF434
:107200006AAFD87CA17988427FF465AFE079197DB7
:1072100088427FF460AF207A597D88423FF467AF9F
:1072200059E793F82700E17888427FF458AF93F844
:107230002800217988427FF452AF93F829006179C0
:1072400088427FF44CAF93F82A00A17988427FF4FA
:1072500046AF93F82B00E17988427FF440AF93F872
:107260002C00217A88423FF442AF38E793F83E0081
:10727000E17888427FF438AF93F83F002179884263
:107280007FF432AF93F84000617988427FF42CAFED
:1072900093F84100A17988427FF426AF93F8420029
:1072A000E17988427FF420AF93F84310237A994222
:1072B0003FF41DAF18E700BF3C6000205C6B00206E
:1072C000606B0020687200202DE9F041704C84B0A2
:1072D00069460546FFF79AFE2378012B5FD0E67DCD
:1072E000012E79D094F82E80B8F1010F00F097802C
:1072F0009DF8002082B1012B44D04FF0FF37012EC2
:1073000010D0B8F1010F2ED0002F1DDA95F913100F
:107310006A462846FFF7D6FE5E4807F02DF904B00E
:10732000BDE8F081237E002BEBD05B480E2269463E
:1073300022F066FE0028E4D1013740F09680B8F1D3
:10734000010F00F09E80374654497A1C544818F0CB
:107350007FFD504807F01AF92946524805F0EEFB28
:1073600004B0BDE8F08194F82F30002BCCD04E480B
:107370000E22694622F044FE0028C5D10137C5D14E
:107380000227E1E76378002BB7D048480E22694610
:1073900022F036FE003818BF01204742AFE7217CBB
:1073A000EA7891429BD1617C2A79914297D1A17C64
:1073B0006A79914293D1E17CAA7991428FD1217D62
:1073C000EA7991428BD1617D2A7A914208BF0026E9
:1073D00085D13749721CB9E794F82710EA789142B1
:1073E00080D194F828102A7991427FF47BAF94F8E9
:1073F00029106A7991427FF475AF94F82A10AA791E
:1074000091427FF46FAF94F82B10EA7991427FF4A8
:1074100069AF94F82C102A7A9142DAD062E794F896
:107420003E10EA7891427FF463AF94F83F102A79D6
:1074300091427FF45DAF94F840106A7991427FF4F5
:1074400057AF94F84110AA7991427FF451AF94F864
:107450004210EA7991427FF44BAF94F843102A7AB4
:1074600091427FF445AF0226B3E7B8F1010F7FF4F4
:107470004DAF94F82F30002B3FF448AF6FF0010769
:1074800075E794F82F304746002B7FF470AF5BE729
:107490003C600020F4800020546000206CCA04008E
:1074A000D0820020607A00206B6000203D600020C8
:1074B00038CA04002DE9F041044619F009FB2849B7
:1074C0000A68821AB2F5C87F31D2264B1D78264A47
:1074D000264B1068632DA4EB000494BF3226962639
:1074E0009C42234C3746237802D94BB3BDE8F08148
:1074F000DFF898801BB998F80030B342F6D01D48E9
:10750000812111F067FF39461A4811F063FF1A48CC
:107510001A4B88F80070632D88BF03460025324659
:10752000257017491748BDE8F04118F091BC034693
:107530000C200B601CF04CFDFFF78AFA0546C6E7ED
:107540000C48812111F046FF0A48012111F042FF49
:10755000012323700C490B48BDE8F04118F028BC0A
:1075600074670020786700206C790020E0930400A5
:1075700064790020E0770020B8CA0400BCCA040087
:10758000DCCA0400D0820020C0CA04009B6700202F
:107590002DE9F04F444B2DED028B1A689DB0012A66
:1075A0000A927CDD414B4249079306911C3B1146F0
:1075B000C2EBC20203EB820308934B1E0B93002322
:1075C0000993099B0A9A0133934209935DDA079A5A
:1075D000A2F11C0308EE103A069B914618EE100A21
:1075E0004946019322F0E0FC079B069F0597A3F113
:1075F0002308019BCDF8088003F124040DF1300E1F
:10760000A9F1070C13AE0028CDF810E0CDF80CC09E
:107610003D46B2460194A34631DDB8E80F00AEE81E
:107620000F0098E807008EE80700BCE80F00029FF3
:107630000FC79CE80700049B1F4688E807000FCF90
:10764000039F0FC79EE807008CE807000FCD0FC609
:107650000FCD0FC6D5F800C0C6F800C00FCC059EF0
:107660000FC60FCC0FC6BAE80F0026682E60ABE835
:107670000F00BAE80F00ABE80F00C4F800C0089A8A
:10768000019B09F11C099145A8D1069B0B9A243353
:107690000693079B1C330793099B934291D11DB01E
:1076A000BDEC028BBDE8F08F5C6B00208B7200207C
:1076B000606B00205D4B1A68002A1A68D8BF5242DE
:1076C000032A3EDD1A68002AF0B532DD0122144695
:1076D00000264FF0FF3C4FF0040E554F1968554DF2
:1076E0003F782D78A1EB0E01002F1960524F534BBC
:1076F00038601CBF32466446032D186022D0072D27
:1077000044D0002D30D0012D5CD0022D5CD0042D52
:107710004FD0052D7AD0062D0AD1494B494A196818
:107720000C44022CA8BF022424EAE4741C601460F8
:10773000F0BD0126B44600226FF0030E4FF0FF3477
:10774000CBE77047404B3F4A187813683F49002801
:107750001C440CBF022001208442A8BF044624EA36
:10776000E47414600C60F0BD374B1B78D3B9384B10
:1077700019680131334906D00A682244022AA8BF99
:10778000022222EAE2720A601A60F0BD314A1368EE
:107790002C491C44022CA8BF022424EAE47414607F
:1077A0000C60F0BD2A4A274B4FF0FF3111601D607D
:1077B000F0BD294A234913681C4484F30104146072
:1077C0000C60F0BD254AE2E7254A1368E4181FD48F
:1077D000244B1C491B689C42A8BF1C4614600C60CB
:1077E000D4B1013CA4D4A342A2DD1F4B1F4A204EBA
:1077F000204DC4EBC40403EB840494E8030000238D
:1078000001241060918034702B70F0BD1A4ABEE7DD
:107810000C4900230B601360144A154C15490023D2
:1078200001201360938023700870F0BD547800200D
:1078300065790020586B0020687900206C79002061
:10784000587800205C780020596B0020B079002027
:1078500030600020DC790020546A0020E0790020AC
:10786000D07900204C7800206872002088790020B0
:107870006779002063790020506B00201B4AF8B51F
:1078800013780446BBB91A4E3268013212D0194D32
:107890002A6841F65831821A8A420BD91648174A8B
:1078A0000360174917484FF0FF331360336018F037
:1078B0000FFA2C60F8BD0F4D296841F65830611A57
:1078C0008142F7D9013B062BF3D8094F0B480A49EF
:1078D0000D4E4FF0FF333B60036000230B600948FF
:1078E0000A491370337018F0F3F9E2E7586B00207F
:1078F000306000206C7900205C7800203860002027
:1079000030CB0400D0820020677900204CCB0400EB
:107910002DE9F047684E694DDFF8CC91DFF8CC8156
:10792000674F84B0306801A909F048FE00284DD0A7
:107930002B789DF805A0012B79D09DF804402F2CC1
:107940004FEA241488BF002404EB4403C4EBC303B0
:1079500018F80300A0F10200B0FA80F040090028F6
:10796000E0D01AF0800F67D1FB68D90131D5554BB3
:107970001A68D2072DD55B689B09534A52F8241028
:10798000C1EB932000284FEA9323D8BF4B1C63F030
:107990007F01BAF1F70F42F82430C9B222D92B780F
:1079A0008DF809108022012B8DF80AA08DF808208F
:1079B00048D0464802A9032200EB841005F02EFEB1
:1079C000306801A909F0FAFD0028B1D104B0BDE882
:1079D000F0871AF0C1FA3E4BA0FB0301830A43EA89
:1079E0008153CAE70AF0F003902B9DF806009DF83A
:1079F00007202DD0802B2CD0B02B48D0E02B50D09E
:107A00002B788DF80910012B4FF080018DF80AA01A
:107A10008DF80B008DF80C208DF8081027D02B481E
:107A2000052200EB841002A905F0F8FD7AE748462C
:107A300008F060FA002492E719F04AF8254B43F861
:107A4000240091E7032202A9234805F04BFC69E7D3
:107A50009AB9224B03EBC41313F800C0BCF1000F1A
:107A60003FF460AF4FF0000C03F800C0C8E70522F8
:107A700002A9194805F036FC54E7184B03EBC41370
:107A800013F800C094453FF44DAF1A54B8E7144BB7
:107A900003EBC41313F800C094453FF443AF1A54EA
:107AA000AEE7104B33F814E040EAC21CE6453FF461
:107AB00039AF23F814C0A3E7347A0020596B0020B3
:107AC000F0ED00E0001000E0586400203469002070
:107AD00040420F0070790020C86A00206C640020CA
:107AE000EC65002064640020507A00203C60002097
:107AF000754A13684EF66021C31A8B4270B504466E
:107B000000F29780714B1B68E31AB3F5FA6F02D944
:107B10002046FEF753FE6E4A1368E31AB3F5FA6F78
:107B200005D36C4B14601B780BB9FEF7E1FD6A4B73
:107B30006A4A1E78022E00F08F801378012B00F025
:107B4000B080D57D012D00F0AF8092F82E30A3F1EA
:107B50000105B5FA85F56D091378022B79D0A3F1EB
:107B60000103B3FA83F35B090020D17D92F82E2044
:107B7000022921D0012908BF0123022A20D0012A8D
:107B800047D0E8B9002D6DD1022E23D1544B1A688D
:107B900002B91C60534B93F90020082A2AD0524A9C
:107BA0005248082119700223137008F02FF9504829
:107BB00006F0C2FC18B370BD022A01D0012A2AD0F7
:107BC0004BBB4C4B1B68E31AB3F57A7F46D875B9AB
:107BD000022E0CD0424B464800221A6006F0ACFC44
:107BE0000028E8D0BDE87040414806F0CFBC3C4BCF
:107BF00000221A603E4806F09FFC0028DBD10146B7
:107C00003B4806F0A1FCBDE870403B493B4818F0FA
:107C1000CFB80028B6D0334B93F90020082AD6D02D
:107C2000314A3248082119700223137008F0EEF827
:107C3000CDE7106018F04CFF31490A68821AB2F59E
:107C4000C87F034625D22F4B19782F4805F05CFBDF
:107C500058E70023012088E701257DE72046FEF74D
:107C600071FEB4E71E4B1A68002A92D0022E91D002
:107C7000264BA41A9C428DD91A4B93F90020002A56
:107C8000B8D0194A194800211970117008F0BEF8CF
:107C9000B0E70C200B601CF09BF9FEF7D9FE014603
:107CA000D3E71D46002060E7022B7FF458AF92F81F
:107CB0002E20022AAFD0012AADD10A4B93F9001031
:107CC000082994D01546ABE7406400207C6700206B
:107CD00044640020596B0020586B00203C60002059
:107CE000D47900201D6800205A6B0020507A0020B3
:107CF000F48000206C67002070CB0400D08200204C
:107D000074670020786700207C780020804F120084
:107D1000FEF7F8BE30B53D48ADB017F025FF3C4B3F
:107D20001B78012B58D03B4C23460E2213F8101B16
:107D30008DF8041093E803000590ADF818100DF1CC
:107D40000500611C22F07EF92346E57D53F8272FBC
:107D5000CDF82B209B88ADF82F3004F118010E22AE
:107D600007A88DF81B5022F06DF9234694F82E5089
:107D700053F83E2FCDF842209B88ADF8463004F1F1
:107D80002F010E220DF133008DF8325022F05AF9F6
:107D900013AC2149214812F051FA204B1E4901220F
:107DA000204612F02FFC204612F0F8FC08B92DB046
:107DB00030BD01A94522204612F05AFA1622184970
:107DC000204612F055FA204612F0BCFC1549164820
:107DD00017F0EEFF2DB030BD13AC104B0E4920460E
:107DE000002212F00FFC204612F0D8FC40B14522D0
:107DF00001A9204612F030FC204612F0A3FCC8E78F
:107E00000146452201A821F0A5F9C2E774A9002086
:107E1000596B00203C600020A8C90400CC980020C9
:107E2000386B002094CB0400D08200202DE9F04F65
:107E300001469BB00746B94808F086F8002800F0D4
:107E4000698105460DF120084046294605F02AFEC5
:107E500018F03EFEB24B1B68984254D2B149B2486A
:107E6000DFF81893B04E17F033FFB049AE4817F063
:107E7000AFFE9DF82610AC48102218F0A3F80DF1C3
:107E800025044946304617F0F5FE14F80119102272
:107E9000304618F097F84445F3D1A54CA248DFF8D6
:107EA000DCA2DFF8849217F063FFA2499E4817F026
:107EB0008FFE61799C48102218F084F804F10408C0
:107EC00046465146484617F0D5FE16F801191022CD
:107ED000484618F077F8444540F07181924817F011
:107EE00047FF934806220DF1210121F0FDF80446D9
:107EF000002800F00B8390498B4817F0E9FE8F496A
:107F0000894817F0E5FE18F0E3FD8D4E0446C823BE
:107F1000002206212846346005F0D4FD894B1B78E9
:107F2000012B00F0578100230AA90F2228460C9349
:107F3000CDE90A33CDF8333005F012FF9DF8283033
:107F400033B181490AA821F0F7FF002840F00082F0
:107F50007E4B1C6800218C421491CDE91211CDF8A2
:107F600053102CDD7A4B9DF821609DF822C09DF8BE
:107F700023E09DF824809DF825A09DF826B0069367
:107F80000A461878B04202F1010212D158786045D1
:107F90000FD1987870450CD1D878404509D118791F
:107FA000504506D15879584503D1D879002840F07A
:107FB0009582A24203F11C0301F11C01E1D1654B42
:107FC00003931B680493013300F01082624B00227C
:107FD0001A60049B059361496148132222F032F82C
:107FE00018F076FD5F49604B00F51C5010300122FF
:107FF00008601A705D48044617F0B6FDC82018F0F6
:1080000073FD204617F0B0FD059B594A0499C3EB58
:10801000C30302EB830B9B00C1EBC1080693CB00AB
:1080200002EB880800260793204617F09DFDD8F83C
:10803000003039469B6858469847002840F09F8298
:1080400018F046FD3E4B052E186000F09980002E7A
:1080500000F0B780012E00F08C82022E00F08C829E
:10806000032E40F2DC5908BF4FF4FA69B9F5C87F16
:10807000CA4628BF4FF4C87A504618F035FD20464E
:1080800017F072FDB9EB0A09F0D10136CCE79DF883
:108090004830002B40F0CA84049A09EB0203C2EB7B
:1080A000C3035B445B78002B40F01285059B314C89
:1080B00003EB4300C3EBC0000130584421460E22BD
:1080C00021F0C0FF049A0399BDF825400868DDF847
:1080D000211009EB0203C2EBC3030BEB03020225E1
:1080E000116101304FF000010BF803509482D173FD
:1080F00006D01B4A1B481C4B1170012201601A70EC
:10810000FFF708FE039A1C4907484FF0FF3313603E
:1081100017F04EFE1BB0BDE8F08F00BF507A002074
:1081200048790020C4CB0400D0820020DCCB0400BE
:108130004C790020F0CB040040CC0400D4CC0400E7
:108140006C790020596B002070CC04005C6B00201F
:108150006872002038600020C87900207CCE0400BE
:1081600060780020747800207878002074A90020BE
:10817000F4690020B8CB0400B0CE0400C0CF0400E6
:10818000B94817F0F1FC039B1B6801330DD0B749C8
:10819000B748132221F056FF18F09AFCB549B64BA8
:1081A00000F5FA60012208601A70039A4FF0FF335D
:1081B0002846136005F09EFC1BB0BDE8F08FB0466A
:1081C0007EE64FF4C87018F08FFC204617F0CCFC08
:1081D000012629E7A44817F0C7FC12AC29460EA8CF
:1081E00005F060FC0023214620222846CDE9123309
:1081F000CDE91533CDE917331493199305F0B0FD8C
:108200009DF8483023B19D49204621F0CDFE50B95C
:108210009DF8393000939DF83B209DF83A309849FD
:10822000204621F069FE9749974E984817F050FD77
:108230009749964817F0CCFCB11D944817F01AFDE9
:108240009449924817F044FD9349904817F0C0FCB8
:1082500021468E4817F00EFD8E498C4817F038FDE8
:108260008E498A4817F034FD737D002B00F025827B
:1082700032789DF839309A4240F03A829DF83A209F
:1082800073789A4240F034829DF83B20B3789A424A
:1082900040F02E829DF83C20F3789A4240F02882EC
:1082A00032799DF83D309A4240F0228272799DF8F1
:1082B0003E309A4240F01C82DFF810C26C4DDFF86D
:1082C00010E2BCE80F000FC5DCF8003025F8023BD7
:1082D000734A1B0C4FF0010800212B7011608EF8BF
:1082E000008018F0F5FB644A624B82F8008000F6CB
:1082F000C41018606B4D21460E22681C21F0A2FEAE
:10830000DDF83900BDF83D20674928610023EB7393
:108310005E48AA8202232B7017F0DAFC63483946C4
:1083200005F000FB002800F0CB81614805F07CF8E7
:10833000002800F0F3815E4805F0C8F95D49534814
:1083400017F0C6FC5A4805F02BF95B4B1870BBE1DF
:108350005A4B03931B68049301337FF437AE9DF8A7
:1083600026209DF821409DF822A09DF823809DF8AD
:1083700024609DF825300592DFF858B19BF8002065
:10838000002A40F00D824FF0FF3204929BF8172034
:10839000002A40F0DF819BF82E20002A40F09A82CC
:1083A000474A1278012A00F0BE81DFF82C9103932E
:1083B00018F08EFBD9F80020039B0746002A40F0F6
:1083C000D782404ADDF82100BDF825303E491060D3
:1083D00093802E48C9F8007017F0FAFB2B480AA9C1
:1083E00017F0E6FC284605F085FB93E69DF828206B
:1083F0009DF826109DF821409DF822A09DF823802D
:108400009DF824609DF825300591002AB4D1DFF84D
:10841000C4B09BF80010002940F03D829BF8172063
:10842000002A40F015829BF82E20002ABDD09BF830
:108430003E20A242B9D19BF83F205245B5D19BF8CE
:1084400040204245B1D19BF84120B242ADD19BF8CA
:1084500042209A42A9D19BF8432005998A42A4D18F
:108460000223CDE9043397E174A900208CCE0400E7
:1084700060780020747800207878002070CC0400A8
:10848000DCC7040078CC0400386B0020D0820020C8
:1084900098CC0400B0CC0400B4CC0400CCCC0400D4
:1084A000546B00201860002000CD04002C790020BF
:1084B000D478002028CD0400CC790020386000203A
:1084C0002F600020C079002050CE0400ECCC0400C6
:1084D000667900203C600020C8790020069B0731A7
:1084E0000B44194612A80E2221F0ACFD9DF848302D
:1084F00000248DF85640002B3FF461AD12A90E22E6
:108500000AA821F09FFD8DF8364058E5B649B748D6
:1085100017F0DEFB12A920222846CDE91244CDE94E
:108520001444CDE91644CDE9184405F019FC20B1F6
:108530009DF84830002B40F00581AD480378002BB2
:1085400000F00982AB4BAC49AC4C1846132221F029
:1085500079FD0022C27418F0BBFAA94A00F2DC537C
:10856000012128462360117005F0C4FA1BB0BDE854
:10857000F08F4FF4966979E54FF4C86976E5A14824
:10858000A14E804617F0F0FA059B404606EB831695
:108590004FEA831B17F0E8FA3046032404F044FF47
:1085A00090B918F095FA994B012C18604FF4967019
:1085B00070D018F099FA404617F0D6FA3046013CD0
:1085C00004F032FF0028ECD030469149012205F03A
:1085D00075F8304605F07AF8002800F0FF818948E8
:1085E00017F0C2FA079B049C8A48069A1B1B39465F
:1085F00050F8233010449B689847002840F072825E
:10860000DFF848B24FEA4409002428460EA90F2299
:108610001094CDE90E44CDF8434005F0A1FB7E4B0C
:1086200012941868A042CDE91344CDF853402DDDD3
:108630007A4B9DF821509DF822609DF823709DF89B
:1086400024C09DF825E09DF8268006932146224609
:108650001C78AC4202F1010212D15C78B4420FD115
:108660009C78BC420CD1DC78644509D11C797445F6
:1086700006D15C79444503D1DC79002C40F0BA8105
:10868000824203F11C0301F11C01E1D19DF8383055
:108690000EACFEE4039B1B6801333FF486AD13224E
:1086A0005F49544821F0CEFC18F012FA534A544B5B
:1086B00000F5FA6010601C7077E55A4A137019E6ED
:1086C00059494A4817F004FB737D002B7FF422AD13
:1086D000564807F00FFC00283FF41CAD18F0F8F9DD
:1086E000534B5449024641481A6017F0F1FA11E51C
:1086F00051493E4817F0ECFA284605F0FBF94F497E
:108700003C48132221F09EFC18F0E2F93B493C4B17
:1087100000F2DC50012208601A70FBE4484933483B
:1087200017F0D6FAD0E7049A002A80F2FB80049A68
:1087300002327FF43AAE43492C48039317F0C8FA4B
:10874000039B32E62A4B12A918460E2221F07AFC2E
:108750008473F7E69BF82720A24240F090819BF8B3
:108760002820524540F08B819BF82920424540F05B
:1087700086819BF82A20B24240F081819BF82B2011
:108780009A4240F07C819BF82C2005998A4240F067
:1087900076810123CDE904332B4B00221A6029E4B2
:1087A0009BF81020A24240F081819BF81120524595
:1087B00040F07C819BF81220424540F077819BF885
:1087C0001320B24240F072819BF814209A4240F08C
:1087D0006D819BF8152005998A4240F0678100233E
:1087E000CDE90433D8E700BF04CC0400D0820020D8
:1087F000547900206078002030CC04007478002088
:108800007878002074A90020346900206C79002059
:10881000C9BD0200E06800205C6B00206872002087
:10882000A0CE04006679002078CD0400507A0020A4
:10883000546B0020A0CD0400E0CE040000CF040063
:1088400050CD040014CE0400C87900203C60002004
:108850009BF82720A2427FF4E6AD9BF828205245E2
:108860007FF4E1AD9BF8292042457FF4DCAD9BF815
:108870002A20B2427FF4D7AD9BF82B209A427FF496
:10888000D2AD9BF82C2005998A427FF4CCAD012310
:10889000CDE9043380E79BF81010A1427FF4BEAD10
:1088A0009BF8111051457FF4B9AD9BF8121041456A
:1088B0007FF4B4AD9BF81310B1427FF4AFAD9BF8D9
:1088C000141099427FF4AAAD9BF8151005988142C7
:1088D00085D0A3E59BF83E20A24240F0B7809BF8EC
:1088E0003F20524540F0B2809BF84020424540F086
:1088F000AD809BF84120B24240F0A8809BF8422016
:108900009A4240F0A3809BF8432005998A4240F0A8
:108910009D800223CDE904333EE7012A7FF445AD73
:108920000223049389498A4817F052F9049C884825
:108930000A22214617F04EFB8649854817F0C8F9F0
:10894000039B854A1B6805940021013311603FF4A5
:1089500051ABFFF740BB9DF821209DF822300F213D
:10896000CDE900329DF823307C4A21F091FAE9E507
:108970007B4A1178A1427FF425AD517851457FF4AF
:1089800021AD917841457FF41DADD178B1427FF49E
:1089900019AD117999427FF415AD537905998B4240
:1089A0007FF410AD6F496A4817F012F968480AA9B8
:1089B00017F0FEF9D9F80030FB1AB3F5FA7FFFF48F
:1089C00011AD69496948132221F03CFB6849694BA4
:1089D00007F57A7701220F601A7003E513226649C2
:1089E0006248634C21F02EFB18F072F8614A00F6E1
:1089F000C413B5E5069B07310B4412AC19460E2291
:108A0000204621F01FFB9DF8383000228DF85620BB
:108A1000002B3FF43CAB204621F0E9FA05460EA8B6
:108A200021F0E5FA85423FF632AB0EAC53492046C1
:108A300021F082FA00283FF42FAB059B03EB4300A3
:108A4000C3EBC00001305844FFF738BB9BF82F2020
:108A5000002A3FF4A5AC4A4806930E220AA921F049
:108A6000CFFA069B00287FF49BAC049A0132454A5A
:108A700012783FF452AF012A7FF497AC5BE69BF883
:108A80001820002A3FF487AC3F4806930E220AA91B
:108A900021F0B6FA069B00287FF47DAC049A511CA5
:108AA00014BF6FF001020122049274E49BF80120CC
:108AB000002A3FF468AC354806930E220AA921F03B
:108AC0009FFA003818BF012043420493069B5DE4DF
:108AD000059B03EB4304C3EBC40401345C44204610
:108AE000FFF7ECBA2A4B9B44584604F09DFC28B98A
:108AF000049BDFF8A0B04FEA430985E5584604F02F
:108B0000E5FD584604F04CFD642802464FF003048E
:108B10004FF078000DD9012CEAD017F0E5FF584648
:108B200004F03EFD6428024604F1FF344FF0780063
:108B3000F1D80499DFF85CB001EB4103C1EBC3034A
:108B40005B444FEA41099A755EE500BFD0CD040051
:108B5000D0820020E0CD0400C8790020DCC70400EA
:108B6000C079002050CE04006CCE04006078002054
:108B70007478002078780020D0CE040070CC0400F7
:108B80006B6000202F600020546000203D600020BA
:108B9000206800203C6000202DE9F843044661482D
:108BA000614D07F0A7F918BB2B688BB95F4D2B6897
:108BB00023BB5C4807F09EF910B15D4E357855B384
:108BC0005C4A1368E31AB3F5FA6F35D8BDE8F88349
:108BD000594AE31A9342E9D9584B93F90020082ADD
:108BE00006D1574A01464F481970117007F00EF927
:108BF00000232B604D4D2B68002BDAD017F068FF57
:108C00002B689842D5D34F4A4F4900231360938075
:108C10002B600B70CDE74D4F3B68002BD0D017F089
:108C200057FF3B68834280463CD91E23484A11685F
:108C30009942C5D01360C3E73A48146007F05AF967
:108C40000028C3D03748002107F07EF910B1FF217A
:108C500004F05AFF3F4A13684EF66021E01A88423A
:108C600001D8002BB2D1146017F032FF3A490A68DC
:108C7000821AB2F5C87F034620D2384B1C78384898
:108C8000214607F0BDF93749374816F0A1FF2146C4
:108C900035480A2217F096F9BDE8F84333493248BF
:108CA00017F016B8C31A47F22F5293420ED8304A23
:108CB000A2FB03239B09C3F11E03B7E70C200B6043
:108CC0001BF086F9FDF7C4FE0446D8E7294BDFF810
:108CD000B89093E803000E22C9F80000A9F8041028
:108CE00009F10600A3F10F0121F0ACF94FF48073F4
:108CF000A9F81430FFF70EF8DFF854C01E491F48DA
:108D00003D60012313223370CCF8005021F09AF912
:108D10001B4A1C49144808F5FA63136016F0D8FF83
:108D20004EE700BF507A0020D87900204879002013
:108D30006679002054640020804F12001D680020D6
:108D40005A6B00204C79002054790020546B00208D
:108D50003460002050640020746700207867002091
:108D6000586A002040CF0400D082002060CF040069
:108D7000D34D62102860002014CF040060780020DA
:108D80007478002024CF0400386B00202DE9F04FC8
:108D90003B4CDFF8049187B04FF0010A00220E230C
:108DA0001146CDE9003A204680230FF033F9002523
:108DB000344B354923612046656116F05BFF334B28
:108DC000B4F910601F6801954FF00A0B023631B2FA
:108DD00057442046CDF800B0092303220FF01AF9BA
:108DE00002365A46042339464FF001182046638262
:108DF0002682C4F8148017F0EDF8254965612046F5
:108E000016F0D6FF3023CDF804A029462046009363
:108E1000102280230FF046F91E4B93E8070003AFA2
:108E200087E80700A24618264FF0050BD9F8003056
:108E3000AB42504610D057F8041BC4F81480A4F875
:108E400010B06682013516F0B3FF0C36032DB6B2B2
:108E5000ECD107B0BDE8F08F01210B23721ECDE9E4
:108E6000003112B27C2302210FF0D4F8002357F80E
:108E7000041BA4F810B05046013566826361E2E736
:108E8000E07700200200040068CF04003860002072
:108E900070CF040050D50400E0790020F0B52A4CD2
:108EA0002A4E83B0204610F077FD012500220E23C4
:108EB0001146CDE90035204680230FF0ABF800279E
:108EC000234B244923612046676116F0D3FE3023EB
:108ED0003946009301952046802310220FF0E2F8D6
:108EE0003768D7B14FF0011363611B4B1B4916481C
:108EF000236116F0BFFE3368012B19D04FF0011328
:108F00006361174B17491048236116F0B3FE0E48F2
:108F100003B0BDE8F04010F04FBD0B23CDE90035A4
:108F200017227C23022120460FF074F86761DCE7EA
:108F30000B22CDE9002304487C23252202210FF0D7
:108F400069F800236361DCE7E0770020546A0020C1
:108F5000020003007CCF04000500180018C70400BD
:108F6000050026008CCF04002DE9F04FDFF8EC92CD
:108F7000AB4999F80030AB48AB4A0A61002B87B087
:108F800014BF4FF0010B4FF0030B00225844A74FC2
:108F9000DFF8CC82A64DA74CA24E02904A61039204
:108FA0001BBB2878A0F10200B0FA80F0400908B39A
:108FB00099F80030002B60D00021204606F0C4FF55
:108FC000824620B104F05EFD002840F01C81029B27
:108FD00001369E4207F1010708F1040805F1170563
:108FE0000FD099F80030002BDBD0204606F082FF2E
:108FF0000028DDD13070387017F06AFDC8F8000025
:10900000E5E799F80040002C40F096808A4D2B68E7
:10901000013340F0D480039B002B40F096808749B9
:109020007F4816F027FE17F053FD85490A68821A1B
:10903000B2F5C87F034680F0EA80824B1C78632C2F
:1090400000F2DE80282C00F20D810C230022CDE9F5
:10905000003273481623012234210FF023F87048A0
:10906000794B036121460A2216F0ACFF77496C4820
:1090700007B0BDE8F04F16F0FDBD9A4602E0BAF128
:10908000140FA4D01FFA8AF1204606F05DFF0AF102
:10909000010A83460028F2D004F0F4FC0028EED048
:1090A000594604A804F0FEFC2A7C9DF811309A422F
:1090B000E5D19DF812206B7C9A42E0D19DF81320F7
:1090C000AB7C9A42DBD1EA7C9DF814309A42D6D12F
:1090D0002A7D9DF815309A42D1D16A7D9DF81630CF
:1090E0009A42CCD1584604F019FD10F1800F3FF49C
:1090F0006EAF327822BB4B30ACBF002301233978EE
:10910000994206D03B7017F0E3FC32783B78C8F800
:10911000000093420AD017F0DBFCD8F80030C01AE8
:10912000B0F52F7F2ABF3A7832783270039B002A3D
:1091300018BF134603934AE7039B33B944496FE7CB
:109140004730ACBF00230123D9E74249344816F029
:1091500091FD99F80040002C40F0A180314B1B7824
:10916000002B40F0DC802F4B5B78002B40F0B3806D
:109170002C4B9B78002B43D0294BB3F910400A2786
:1091800001344FF000081E46184621B2CDE90078A0
:10919000A4B2092302220EF03DFF03253A464FF008
:1091A0000113A71C29463046378275827361073444
:1091B00016F010FF3482C6F81480758220E026492C
:1091C000174816F057FD164B2D68B3F91060144878
:1091D00001940A27711C09B20097092302220EF09C
:1091E00019FF0F48013529463A460323074603363F
:1091F0004FF0011506824561438216F0EBFE7C615B
:1092000007B0BDE8F08F504604F088FC6DE70C20F5
:109210000B601AF0DDFEFDF71BFC04460FE700BFF4
:10922000E077002098670020020003008867002094
:109230003C600020507A002038600020A0CF04005D
:10924000746700207867002036000300C4CF040054
:10925000A8CF0400B8CF0400B0CF0400596B0020A1
:109260008C67002000250C23CDE900353D481623EE
:10927000012234210EF0CEFE3A483B4B03614FF001
:1092800001122146426104460A2216F09BFE37492C
:10929000204616F0EFFC656107B0BDE8F08F314F56
:1092A000B7F910400A26611C0025CDE90065384653
:1092B00009B2092302220EF0ADFE03343246032325
:1092C0004FF00116012138463C827E617B8216F008
:1092D00081FE7D6194E7234BB3F910400A270134E6
:1092E00000261D46184621B2CDE90076A4B2092316
:1092F00002220EF08FFE4FF003083A464FF00113A2
:10930000A71C022128462F826B61A5F81280073422
:1093100016F060FE2C826E61A5F8128028E7114BD2
:10932000B3F9105001941E460A27013529B200975F
:10933000ADB20923022230460EF06CFE4FF0030856
:109340003A464FF00113AF1C01213046378273615A
:10935000A6F81280073516F03DFE3582A6F8128079
:10936000746100E7E077002036000300C4CF0400FA
:1093700030B583B017F0ACFB404B1B6898423BD232
:109380003F4C2378002B37D03E4D2B6863B117F04C
:109390009FFB2B68984207D23B4A2168914252D0EA
:1093A000394A2168914229D0384C16250023CDE94D
:1093B0000053204678231D2204210EF02BFE0123AA
:1093C000204601931D220421009578230EF06AFEA9
:1093D0004FF0011363612A4820F009FE284900EB91
:1093E0004000C0F14003242220462382628203B061
:1093F000BDE8304016F03EBC03B030BD6168244A81
:109400009142D1D1234A244910688842CCD1918815
:1094100044F245329142C7D19BB117F059FB2C68F9
:10942000A0420ED217F054FB201A10F57A7F00F2FA
:10943000E7331AD90121102003B0BDE83040FCF712
:109440009DBF0021F7E7124A61689142A8D102F15D
:109450002852A168A2F56E02073A9142A0D1A189D3
:1094600044F2435291429BD1D6E70C49A1FB03231E
:1094700099096329A8BF6321DDE700BF7478002044
:109480006078002048790020424C4F43E07700206C
:109490004B4544206878002033302053D34D621070
:1094A0002DE9F04F814C824E89B0302301271022E4
:1094B000CDE900372046802300214FF00118C4F881
:1094C00014800EF0EFFD7B4B7B492361204616F0A4
:1094D000D1FB0A223168204616F04EFD774A3368E8
:1094E00015689D4231DC0A23CDE900371F227C2319
:1094F000022120460EF08EFD714B4FF0000AC4E9A8
:10950000043A002D6DD0336805F1FF3999451FDB12
:1095100032686B1C934218DC6A4F4FF00111C4E9AA
:109520000471002B00F0B580954264DB3268AB1CFF
:109530009A420ADB64484FF00111C4E90401002B90
:1095400000F0AC800135AA4226DC09B0BDE8F08FFE
:10955000DFF88881C9EBC90108EB810102AF07314F
:10956000384617F017FA049B0E2B4FEAC90B66D842
:10957000ABEB090908EB890839464C4816F056FB55
:10958000524B98F90610494823610A2216F022FD31
:10959000384617F019FABBE7DFF84081C5EBC50183
:1095A00008EB810102AF0731384617F0F3F9049B4D
:1095B0000E2B4FEAC5065ED8751B08EB85083946A9
:1095C0003A4816F033FB424B98F9061037482361AE
:1095D0000A2216F0FFFC384617F0F6F909B0BDE88C
:1095E000F08F3C49204616F0E3FB3368002BACDDDE
:1095F000344BC4E90438DFF8E480C5EBC50108EB5F
:10960000810102AF0731384617F0C4F9049B0E2BD5
:109610004FEAC50921D8A9EB050908EB89083946A5
:10962000224816F003FB2C4B98F906101F482361C3
:109630000A2216F0CFFC384617F0C6F976E75246F4
:1096400005A80E23394617F013FA05A9384617F076
:10965000C3F905A817F0B8F98AE705A80E23002278
:10966000394617F005FA05A9384617F0B5F905A8E7
:1096700017F0AAF9CFE705A80E230022394617F004
:10968000F7F905A9384617F0A7F905A817F09CF9CE
:1096900092E71049054816F08BFB47E70D49034850
:1096A00016F086FB09B0BDE8F08F00BFE077002020
:1096B0004C78002005001400D8CF0400D079002099
:1096C0000500200005002A00050034006400200089
:1096D0006400340018C7040064002A006872002087
:1096E0002DE9F04F384C89B0204610F055F901268D
:1096F00000220E231146CDE90036204680230EF0CD
:1097000089FC0025314B324923612046656116F002
:109710005FFA304B30492361204616F059FA302366
:109720002946019620460093102280230EF0BAFCB1
:109730002A4B2B4D93E8070005AE86E80700D3E9D6
:1097400003012A7803AB83E80300002A39D01E46C0
:109750004FF0020BDFF88C90DFF86C80043E182588
:1097600000274FF0050AD9F80030BB42404614D01C
:109770004FF0011356F8041F6361A4F810A065822E
:10978000013716F015FB0C35BB45ADB2EBD10E48D9
:1097900009B0BDE8F04F10F00FB901210D23AA1E4A
:1097A000CDE9003112B27C2302210EF033FC0023FC
:1097B00056F8041FA4F810A0404601376582636183
:1097C000DFE74FF0030BC5E7E0770020020003005E
:1097D000E0CF040054000300ECCF04005CD504008B
:1097E000596B0020B07900202DE9F04F2D4CDFF8A7
:1097F000C49087B0204610F0CFF8012600220E2337
:109800001146CDE90036204680230EF003FC0025EA
:10981000254B264923612046656116F0D9F930238E
:109820000196294620460093102280230EF03AFC30
:109830001F4B93E8070003AF87E80700A0461826F0
:109840004FF0011B4FF0050AD9F80030AB424046FB
:1098500013D057F8041BC4F814B0A4F810A0668203
:10986000013516F0A5FA0C36032DB6B2ECD10D4831
:1098700007B0BDE8F04F10F09FB801210D23B21ED4
:10988000CDE9003112B27C2302210EF0C3FB00238C
:1098900057F8041BA4F810A04046013566826361A6
:1098A000DFE700BFE0770020020003003CC70400B0
:1098B00070D50400DC7900202DE9F04F3A4DDFF837
:1098C000FC90DFF8FCA087B0284610F065F8012670
:1098D00000220E231146CDE90036284680230EF0E3
:1098E00099FB0024314B32492B6128466C6116F0FC
:1098F0006FF93023019621462846009310228023D9
:109900000EF0D0FB2B4B93E8070003AF87E807006E
:10991000A8461826D9F80030A34228D04FF00113EA
:109920006B61052257F8041B2A820FFA86FB40461A
:10993000A5F812B016F09EF9012C0CD0022C24D000
:1099400001340C36032CB6B2E4D1174807B0BDE899
:10995000F04F10F031B89AF8002002BB712216497E
:10996000A5F812B040462A8216F084F9E8E70121F2
:109970000D23B21ECDE9003112B27C2302214046F4
:109980000EF048FB00236B61CBE79AF80020012A18
:10999000E4D0054807B0BDE8F04F10F00DB80C3624
:1099A000B6B20224B6E700BFE07700200200030051
:1099B0006CC704007CD50400F4CF0400506B002079
:1099C0002F6000202DE9F04F374DDFF8F090DFF8E1
:1099D000F0A087B028460FF0DFFF012600220E23FB
:1099E0001146CDE90036284680230EF013FB0024F3
:1099F0002E4B2F492B6128466C6116F0E9F8302375
:109A00000196214628460093102280230EF04AFB3F
:109A1000284B93E8070003AF87E80700A8461826FD
:109A2000D9F80030A34228D04FF001136B61052212
:109A300057F8041B2A820FFA86FB4046A5F812B09D
:109A400016F018F9012C0CD0022C24D001340C365D
:109A5000032CB6B2E4D1144807B0BDE8F04F0FF0C4
:109A6000ABBF9AF80020DAB971221349A5F812B0F9
:109A700040462A8216F0FEF8E8E701210D23B21EC7
:109A8000CDE9003112B27C23022140460EF0C2FA29
:109A900000236B61CBE79AF80020002ADBD0E3E7D4
:109AA0000C36B6B20224BBE7E077002002000300C8
:109AB0007CC7040088D50400F4CF04005878002047
:109AC00065790020F0B5264C83B0054620460FF09E
:109AD00063FF012700220E231146CDE900372046FF
:109AE00080230EF097FA00263946204666610EF074
:109AF000C1FF1C4B1C492361204616F069F839460A
:109B00004FF00113204663610EF0B4FF284620F0A9
:109B10006EFAA0EB8003BB4013F1810FA4BF80332A
:109B200043F34F0629461C230D486382268216F014
:109B3000A1F810230122CDE9003209483022802308
:109B400000210EF0AFFA094B09490548236116F0D0
:109B50003FF8034803B0BDE8F0400FF02DBF00BF51
:109B6000E07700200A000300F8CF04001200340060
:109B70000CD004002DE9F04F2DED028BB74C8BB0CB
:109B8000012781464FF00E0A1FFA89F502B2CDE98E
:109B900000A72046802300210EF084FAC5F133038C
:109BA0001BB205F10D02CDE9003712B22046802329
:109BB0000021AE1C0EF076FA33B208EE103A0A23FA
:109BC00018EE102A019720460093022105F10308A0
:109BD0000EF020FA0FFA88F704224FF0000BA0498C
:109BE00022822046C4F814B0678216F043F89D48DC
:109BF000A4F810A0678206F07DF928B1DFF8B0A2C2
:109C00009AF80020022A49D0974E33684FF001128B
:109C10006261002B35D1954E737D2BB305F1140392
:109C200024226382924922828C4816F023F8B11DC7
:109C300005A816F0AFFE079B002B00F0088103EB90
:109C400043035B00C3F180035B10203505A9238229
:109C50006582824815F0EAFF05A816F0B5FE0BB044
:109C6000BDEC028BBDE8F08F1A351A2381497B4881
:109C70006582238215F0FEFF0BB0BDEC028BBDE8C0
:109C8000F08F16F025FF33689842C4D2002B40F0C5
:109C9000F48100214846FCF771FBEDE702A80AF1C8
:109CA000010116F077FE049A0A2A4FF00A0300F227
:109CB0005D824FF001196948C4F8149002A915F0AB
:109CC000B5FF6D4B1B78002B00F04981674B5A7D27
:109CD00042B319789AF81020914223D159789AF812
:109CE000112091421ED199789AF81220914219D1EF
:109CF000D9789AF81320914214D119799AF814203E
:109D000091420FD15A799AF815309A420AD12E22EF
:109D100005F11A0359495148C4F81490228263820C
:109D200015F056FF16F0D4FE554B1B68C01A632879
:109D300040F2318216F0CCFE524B1B68C01A6328E9
:109D400040F221824748002106F0FEF8814618B112
:109D500003F098FE00285DD14B4BD3ED007A4B4BBE
:109D6000D3F80090B9F1060F40F3B2809FED487A26
:109D7000F4EEC77AF1EE10FA00F37B819FED4E7A94
:109D8000F4EEC77AF1EE10FA40F3838205221A60EE
:109D900091464FF0010A05F108023048CDF800A0C5
:109DA00012B2032359210EF099FFD14500F38A81A5
:109DB000384B1D78002D00F0C381282D00F36E81F3
:109DC000142D00F30182344A13780133DBB21D2BCA
:109DD000137000F2F181314B1B78002B40F00782A9
:109DE0004FF00113092D636100F36A816C2329464A
:109DF0001A4823820A22678216F0ECF8284917488D
:109E000015F038FF02A816F0DFFD0BB0BDEC028B99
:109E1000BDE8F08F484603F081FE00F17703DBB226
:109E2000762B194B88BFD3ED007A98D89FED1D7A19
:109E3000D3ED007ADFED1C6A67EE877A07EE100A31
:109E4000B8EEC77AE7EE267AC3ED007A87E71749BE
:109E500005A816F0E3FD079BF1E600BFE0770020C0
:109E60001CD00400507A002048790020386B002074
:109E700050D0040064D004006679002044D004006F
:109E8000707900207C790020146000208467002015
:109E9000000068C2CC79002080670020486A00205A
:109EA000C4CF04009A99193FCDCCCC3E5CD00400BD
:109EB0001860002000005CC2000080C200008CC25C
:109EC000000098C20000A4C20000B6C20000BCC2DC
:109ED000B9F1000FC0F2AA80B9F1050F40F09381EB
:109EE0001FED0C7AF4EEC77AF1EE10FA00F3C180A0
:109EF0001FED0F7AF4EEC77AF1EE10FA3FF749AF93
:109F00001FED127AF4EEC77AF1EE10FA00F3BA817F
:109F10001FED157AF4EEC77AF1EE10FA00F3A58082
:109F20001FED187AF4EEC77AF1EE10FA00F3A6816D
:109F30001FED1B7AB4EEE77AF1EE10FA00F15381CF
:109F40001FED1E7AF4EEC77AF1EE10FA40F29E8110
:109F5000C3F80090B9F1000F3FF42AAF19E7DFF81A
:109F60007C93D9F80030002B3FF4DCAE16F0B0FD46
:109F7000D9F8003047F23052C31A93423FF6D2AEBE
:109F8000CD49CE4ACE484FF0640909FB03F9A1FB45
:109F900009194FF0010A4FEA5939A2FB03230521A1
:109FA00005F11202B9F1640F4FEA931CCDE9001AD2
:109FB00012B24FF066034FF00D0114BFCB464FF0C5
:109FC000630BCCF11E060EF06DF805F113020321B0
:109FD0000FFA89F30091BA48CDF804A012B20E210D
:109FE0000EF018F85B46B74A0096142105A81FF03A
:109FF0004FFF05A81FF0FBFF00EB400000FA0AF33B
:10A00000C3F1800343FA0AF305F11A0205A923827A
:10A010006282AB4815F02EFE082205F12403AA49FE
:10A0200022826382A64815F0D3FD7BE69FEDA77AD6
:10A03000F4EEC77AF1EE10FA1BDC9FEDA97AF4EE8C
:10A04000C77AF1EE10FA3FF7A1AE9FEDA77AF4EED2
:10A05000C77AF1EE10FA00F315819FEDA57AF4EEC0
:10A06000C77AF1EE10FA40F3828103221A6091461A
:10A070008FE606221A6091468BE616F029FD3468B9
:10A08000A042BFF406AE16F023FD201A10F57A7F29
:10A0900000F2E73140F288800121FBE501210A232B
:10A0A000CDE9003118EE102A1823854866210DF0FD
:10A0B000B1FF0023632D6361C8BF67233FF797AEED
:10A0C000692394E6EA1D7E48CDF800A012B204236D
:10A0D0005B210EF003FEB9F1020F7FF769AEAA1DF6
:10A0E0007748CDF800A012B205235D210EF0F6FDF1
:10A0F000B9F1030F7FF75CAE6A1D7148CDF800A07F
:10A1000012B206235F210EF0E9FDB9F1040F7FF7CB
:10A110004FAE2A1D6A48CDF800A012B20723612174
:10A120000EF0DCFDB9F1060F7FF442AE6448CDF8C5
:10A1300000A00FFA88F2082363210EF0CFFD37E666
:10A1400001210A23CDE9003118EE102A5C481823BA
:10A1500066210DF0A7FF4FF0011269235C49678269
:10A1600062612382564815F085FD4BE65A4605A8E4
:10A1700002A916F07DFC05A902A816F02DFC05A881
:10A1800016F022FC95E54B231F21678223824C4861
:10A190000EF0CAFBD6E551222B1D1E2122826382BE
:10A1A00047480EF0C1FBC5E5444BA3FB01318909CB
:10A1B0006329A8BF63216DE546490B78002083F031
:10A1C00001030B70107008E601210A23CDE900316C
:10A1D00018EE102A18233A4866210DF063FF4FF05D
:10A1E000011363616CE701221A609146D1E50121F8
:10A1F0000A23CDE9003118EE102A314818236621D0
:10A200000DF050FFECE59FED317AF4EEC77AF1EEF8
:10A2100010FA3FF72EAFB9F1040F75D19FED2E7AEA
:10A22000F4EEC77AF1EE10FA3FF7B0AD9FED2E7A5B
:10A23000F4EEC77AF1EE10FA3FF7ABAD9FED2C7A52
:10A24000F4EEC77AF1EE10FA3FF70FAF9FED2B7ADD
:10A25000F4EEC77AF1EE10FA10DC9FED277AF4EEF7
:10A26000C77AF1EE10FABEDC9FED267AF4EEC77ADB
:10A27000F1EE10FA0AD904221A608AE502221A6065
:10A28000914686E504221A60914682E500221A6012
:10A290008EE59FED157AF4EEC77AF1EE10FAF1DC57
:10A2A0009FED137AF4EEC77AF1EE10FA3FF7DDAEC8
:10A2B0004FF0060934E600BF73B2E745D34D621094
:10A2C000E077002020D0040030D00400000068C2F5
:10A2D0004CD00400486A0020000074C2546B002077
:10A2E000000080C2000086C200008CC2000092C242
:10A2F000000098C200009EC20000B6C20000A4C2C6
:10A300000000B0C20000BCC21FED0B7AF4EEC77AA9
:10A31000F1EE10FA3FF73AADB9F1030F34D11FED6A
:10A320000F7AF4EEC77AF1EE10FAABDC1FED107A7B
:10A33000F4EEC77AF1EE10FA3FF797AE1FED117AFF
:10A34000F4EEC77AF1EE10FA98DC1FED157AF4EE10
:10A35000C77AF1EE10FA3FF746AF1FED167AF4EE2A
:10A36000C77AF1EE10FA91D903221A6011E51FEDB8
:10A370001D7AF4EEC77AF1EE10FA3FF77FAF1FEDCA
:10A38000207A4FF00009D5E51FED297AF4EEC77A5F
:10A39000F1EE10FA3FF776AFB9F1020F22D11FEDBF
:10A3A0002D7AF4EEC77AF1EE10FA3FF75EAE1FEDAC
:10A3B0002D7AF4EEC77AF1EE10FA3FF75FAF1FED9A
:10A3C000327AF4EEC77AF1EE10FA3FF70CAF1FEDD8
:10A3D000337AF4EEC77AF1EE10FA7FF657AF022225
:10A3E0001A60D6E41FED3E7AF4EEC77AF1EE10FA69
:10A3F0003FF73BAEB9F1010F1AD11FED427AF4EEEF
:10A40000C77AF1EE10FA3FF739AF1FED457AF4EE57
:10A41000C77AF1EE10FA3FF7E6AE1FED467AF4EE9A
:10A42000C77AF1EE10FA7FF631AFC3F80090B0E4CE
:10A430001FED4E7AF4EEC77AF1EE10FA3FF71EAF39
:10A44000B9F1000F7FF474AD1FED537AF4EEC77AC3
:10A45000F1EE10FA3FF7C7AE1FED567AF4EEC77A69
:10A46000F1EE10FA7FF612AFC3F80090A0E400BF3F
:10A470002DE9F04FCF4B2DED028B1B688B428FB037
:10A480000C46834654D00E230127CDE9003702B293
:10A490008023C948029700210DF004FE00261FFA10
:10A4A0008BFBC54D029B01930BF102080FFA88F359
:10A4B0004FF00A0A1A460BF103072846022108EE5C
:10A4C000103A4FF000095346CDF800A066F30F098B
:10A4D00005970DF09FFD39B204230F4666F31F491F
:10A4E000524603912846611C04EB44062B82C5F8B2
:10A4F00014906F82C4EBC60615F06CFDAF4B6F82F3
:10A500009B5D0E222A82022B4FEA4402049225D040
:10A510000299002261F30F0261F31F426A61A3B145
:10A52000012B00F0FE800FB0BDEC028BBDE8F08F78
:10A530000E230126CDE9003602B280239E48002179
:10A540000DF068FD00230293A9E79D49284615F008
:10A5500091FB0FB0BDEC028BBDE8F08F974B711CE7
:10A5600008A8194408EE900A16F014FA0A9B5345FD
:10A5700000F20881029A9048002362F30F0362F30D
:10A580001F4318EE901A07936B6115F04FFB16F0FE
:10A590009FFA8C4B53F82430C01A632840F2E880AD
:10A5A00016F096FA884B53F82430C01A632840F20C
:10A5B000D680824B069410364FF000083344444650
:10A5C000DFF83CA2029F984602E0142C00F01A81AA
:10A5D000A1B2504605F0B8FC013406460028F4D07C
:10A5E00003F050FA0028F0D031460BA803F05AFAD5
:10A5F00098F800109DF82D209142E6D198F80110AE
:10A600009DF82E209142E0D198F802109DF82F205D
:10A610009142DAD198F803109DF830209142D4D1BC
:10A6200098F804109DF831209142CED198F8051089
:10A630009DF832209142C8D13046069C029703F023
:10A640006DFA064616F044FA06F17703DBB2762B74
:10A6500000F2A9805D4A52F82430C31AC82B40F298
:10A66000A2805B4B9FED5B6ADFED5B6A42F82400E2
:10A6700003EB8403D3ED007A07EE106A67EE867A67
:10A68000B8EEC77AE7EE267AC3ED007A534B53F85B
:10A690002460062E00F3C080002EC0F2E281052E59
:10A6A00000F089819FED4E7AF4EEC77AF1EE10FA50
:10A6B00000F3FF81042E40F06D829FED4A7AF4EEA4
:10A6C000C77AF1EE10FA00F3B7809FED477AF4EE07
:10A6D000C77AF1EE10FA00F3B2809FED447AF4EEFF
:10A6E000C77AF1EE10FA00F3F9819FED417AF4EEAA
:10A6F000C77AF1EE10FA00F3F9819FED3E7AF4EE9D
:10A70000C77AF1EE10FA00F3ED819FED3B7AF4EE9B
:10A71000C77AF1EE10FA40F23982042243F824207D
:10A720008DE03649284615F0A5FA244B711C08A87F
:10A73000194408EE900A16F02DF90A9B0A2B00F234
:10A74000BC8118EE901A1C4815F070FA18EE900AA9
:10A7500016F03AF90FB0BDEC028BBDE8F08F039A0A
:10A7600015486A824B231F212B820EF0DDF820E76B
:10A7700051220BF104031E210F482A826B820EF036
:10A78000D3F80DE718EE901A53460BA8002216F0E6
:10A790006FF90BAB18EE900A194616F01DF90BA8CD
:10A7A00016F012F9E6E60A4B03EB8403D3ED007AC8
:10A7B0006CE700BF30600020E07700203C600020A4
:10A7C00070D10400707900207C790020246400207E
:10A7D000046000206666663FCDCCCC3D306400202E
:10A7E000000068C2000074C200008CC2000098C261
:10A7F0000000A4C20000B6C20000BCC278D00400B1
:10A80000507A0020069C029716F062F9BB4B03EBCE
:10A810008403D3ED007A39E79FEDB97AF4EEC77A75
:10A82000F1EE10FA00F345819FEDC07AF4EEC77A9D
:10A83000F1EE10FA40F3F980052643F82460029BFC
:10A8400000930BF10802AF4812B2032359210EF016
:10A8500045FA012E44DC049B2344C4EBC304AA4BF9
:10A860001C4494F91640002C1DDB282C6EDC142CA3
:10A8700000F3EB80A54A13780133DBB21D2B137074
:10A8800040F29680A2490B78002083F001030B7000
:10A890001070002B40F0D980079B6B61092CCCBF56
:10A8A00069236C2362E09B4B029A1B7895480192C6
:10A8B000632B4FF00A03009318EE102A4FF0180391
:10A8C0004FF0660167D90DF0A5FB039A92498D48B8
:10A8D000C5F814906A236A822B8215F0CBF951E0F7
:10A8E000029F884800970BF1070212B204235B21F4
:10A8F0000EF0F4F9022EAEDD0BF10602814800974E
:10A9000012B205235D210EF0E9F9032EA3DD0BF150
:10A9100005027C48009712B206235F210EF0DEF993
:10A92000042E98DD0BF104027648009712B207233B
:10A9300061210EF0D3F9062E8DD1BDF91420714896
:10A940000097082363210EF0C9F984E7029A019267
:10A950000A23009318EE102A6A48182366210DF086
:10A9600059FB632CC5F8149098DD672321462B8290
:10A970006448039B6B820A2215F02CFB67496148EF
:10A9800015F078F918EE900A16F01EF80FB0BDEC2D
:10A99000028BBDE8F08F0DF085FB079A6A61692391
:10A9A000039A5F4957486A822B8215F063F9E9E7F9
:10A9B000574B1B786DE79FED5B7AF4EEC77AF1EEAB
:10A9C00010FA76DC9FED597AF4EEC77AF1EE10FAC0
:10A9D0003FF735AF9FED587AF4EEC77AF1EE10FAF3
:10A9E00000F388809FED537AF4EEC77AF1EE10FA07
:10A9F00074DC9FED547AF4EEC77AF1EE10FA75DC50
:10AA00009FED4F7AF4EEC77AF1EE10FA6ADC9FED13
:10AA10004F7AF4EEC77AF1EE10FA40F2B78043F8BD
:10AA20002460002E3FF417AF09E79FED437AF4EE60
:10AA3000C77AF1EE10FA5DDC9FED3E7AF4EEC77A4C
:10AA4000F1EE10FA4ADC0626D3E7029A01920A23B5
:10AA5000009318EE102A2B48182366210DF022FBD4
:10AA60001AE79FED277AF4EEC77AF1EE10FA20DCB0
:10AA70009FED2E7AF4EEC77AF1EE10FA3FF7DCAED6
:10AA80009FED2D7AF4EEC77AF1EE10FA32DC9FEDED
:10AA9000297AF4EEC77AF1EE10FA1FDC9FED297ADD
:10AAA000F4EEC77AF1EE10FA20DC9FED277A00264B
:10AAB000A8E7062643F82460C1E618EE901A53462C
:10AAC0000BA8002215F0D4FF0BAB18EE900A194624
:10AAD00015F082FF0BA815F077FF32E6032643F846
:10AAE0002460ACE6012643F82460A8E6022643F879
:10AAF0002460A4E6042643F82460A0E60460002055
:10AB0000000068C2E07700203C6000202064002044
:10AB1000486A0020CC79002074D00400C4CF04001F
:10AB20004CD0040000005CC200009EC2000080C245
:10AB3000000086C2000098C200008CC2000092C2D1
:10AB40000000B6C20000A4C20000B0C20000BCC237
:10AB50001FED087AF4EEC77AF1EE10FABEDC012E92
:10AB600076D11FED0F7AF4EEC77AF1EE10FABDDC64
:10AB70001FED0D7AF4EEC77AF1EE10FAB2DC1FED9C
:10AB80000D7AF4EEC77AF1EE10FAB4D8002243F849
:10AB9000242060E61FED1B7AF4EEC77AF1EE10FA7E
:10ABA0003FF74AAE032E26D11FED1F7AF4EEC77A87
:10ABB000F1EE10FA9EDC1FED217AF4EEC77AF1EE89
:10ABC00010FA8BDC1FED217AF4EEC77AF1EE10FA61
:10ABD0008CDC1FED257AF4EEC77AF1EE10FA81DCF9
:10ABE0001FED267AF4EEC77AF1EE10FACED90322E1
:10ABF00043F8242023E61FED307AF4EEC77AF1EE15
:10AC000010FA3FF777AF022EA2D11FED347AF4EE9F
:10AC1000C77AF1EE10FA3FF761AF1FED367AF4EE26
:10AC2000C77AF1EE10FA3FF761AF1FED3B7AF4EE11
:10AC3000C77AF1EE10FA3FF755AF1FED3C7AF4EE0C
:10AC4000C77AF1EE10FAA1D9022243F82420F6E5E2
:10AC50001FED447AF4EEC77AF1EE10FA3FF746AFF3
:10AC6000002E7FF4CDAE1FED487AF4EEC77AF1EEF8
:10AC700010FA3FF737AF1FED4B7AF4EEC77AF1EEDB
:10AC800010FA83D943F82460E5E500BF2DE9F041CF
:10AC900082B015F01DFFB74B1B7823B10446092085
:10ACA00019F042FA40B3B44C20460EF075FE20462F
:10ACB00001210DF0DFFEB14B1A78032A6DD0052A71
:10ACC00000F0AB80062A00F0AD80072A00F0128168
:10ACD000AB4D2B78012B23D0022A00F0A880002A4C
:10ACE00060D0012A00F01081FEF742FBA24802B0BA
:10ACF000BDE8F0410EF060BEA24B1A6841F2883305
:10AD0000A41A9C42CFD9A04BA3FB0434A409C4F1DC
:10AD10000804002CC7DD9D4B187002B0BDE8F0811F
:10AD2000042A00F0EC809A4805F0E4F8002840F08E
:10AD30007C8100220E2301251146CDE900358E4885
:10AD400080230DF067F9934B0022C4E90432FEF72B
:10AD50000BF909F0BBFE002800F054818E4D95F9E7
:10AD60000030082B00F03A810C230026CDE9003694
:10AD700001222A23804855210DF094F9874A95F93C
:10AD80000030C4E90426002B00F08C81042B00F075
:10AD9000C3801020FEF7EEFEA6E702B0BDE8F0414A
:10ADA000FEF79EBC0E23012611462046CDE9003653
:10ADB00080230DF02FF9FEF7D7F809F087FE002861
:10ADC00000F05D81744E96F90030082B00F043814D
:10ADD0000C230027CDE9003701222A23664855219C
:10ADE0000DF060F96D4A96F90030C4E90427002B94
:10ADF00000F08D80042B00F066812978002940F056
:10AE000096801020FFF734FB01212120FFF730FB53
:10AE100002213220FFF72CFB66E702B0BDE8F041CB
:10AE2000FEF74ABD02B0BDE8F041FEF7CBBDFCF72E
:10AE3000A5F8FCF7ADFB5A4B5A495B4A1B780868EA
:10AE4000106023B3002822DD584A594B15785678F4
:10AE5000977892F803C092F804E092F805800022F7
:10AE60001978A9425DD15978B1425AD19978B9423D
:10AE700057D1D978614554D11979714551D1597952
:10AE800041454ED14B494C4B01320A601A600022B9
:10AE900001210E23CDE900313748114680230DF002
:10AEA000B9F83C4B454934480026C4E9043614F04F
:10AEB000E1FE434BB4F910501F682F4801964FF044
:10AEC0000A08023529B20137CDF800800923022291
:10AED0000DF0A0F80235394603234FF00117424622
:10AEE000258267616382244815F074F86661FEF775
:10AEF000D7FAF9E602B0BDE8F041FEF775BC02B042
:10AF0000BDE8F041FDF7CABFFDF740FFECE62D4973
:10AF1000194814F0AFFE70E72B49174814F0AAFE49
:10AF200037E70132904203F11C0399D1AFE7302398
:10AF30000122CDE9003210488023102200210DF0BB
:10AF4000B1F8134804F0D6FF002800F0B0801F4B82
:10AF50001F492361084814F08DFE1E4B1E499A6854
:10AF60002161002A00F0AA801968034814F082FECB
:10AF7000BAE600BF506A0020E0770020586B00203E
:10AF8000596B00204C6A0020D34D62107878002065
:10AF9000507A0020020003001D68002059000300C1
:10AFA000677900205C6B00204C78002088790020B5
:10AFB00068720020D07900205C78002098D00400CE
:10AFC0003860002094C7040090D0040008001C00E2
:10AFD000A8D00400B479002008002A000C23002225
:10AFE000CDE900323A482A23012255210DF012F80A
:10AFF000384B394936484FF00112C4E9043214F095
:10B0000039FEC6E60C2301902A46009330480923F6
:10B010004B210CF0FFFF314B31492D484FF001120D
:10B02000C4E9043214F026FE98E62E48002104F00C
:10B030008BFF054600283FF47CAE02F023FD00287C
:10B040003FF477AE284602F069FD43063FF471AE47
:10B05000FBF712FC6DE60C230022CDE900321C4800
:10B060002A23012255210CF0D5FF1A4B1A49184802
:10B070004FF00112C4E9043214F0FCFDBDE60C23CC
:10B08000019032460093204609234B210CF0C2FF69
:10B09000124B134923614FF001126261204614F0F4
:10B0A000E9FD8FE610490A4814F0E4FD71E60F4B04
:10B0B0000F492361064814F08BFD15E60D4904483D
:10B0C00014F0D8FD10E60C49014814F0D3FD94E6C5
:10B0D000E07700205C00030088D004004D000300EE
:10B0E00084D00400507A002094C704001400260085
:10B0F00064D0040070CC040090D0040010B51C494A
:10B100009AB004461B480FF025F858BB01A8184A0E
:10B11000184901230FF014F801A80FF03FFBD8B134
:10B1200001220DF1030101A88DF803400FF0A0F8F2
:10B1300001A80FF017F901A80FF004FB0E490F4802
:10B1400014F046FD0E4B0F490C48002C18BF194651
:10B1500014F02EFE1AB010BD0B49084814F0B8FDCB
:10B160001AB010BD024903480FF068F8CEE700BFDF
:10B1700000CB0400CC980020CCD00400D08200206A
:10B18000BCD00400B0D00400E8D0040010B52549BC
:10B190009AB0044624480EF0DDFF00283CD101A8F7
:10B1A000204A214901230EF0CBFF01A80FF0F6FA47
:10B1B00060B3BCB901220DF1030101A88DF8034071
:10B1C0000FF056F801A80FF0CDF801A80FF0BAFA69
:10B1D0001649174814F0FCFC1649154814F0E8FD10
:10B1E0001AB010BD01220DF1030101A88DF8032052
:10B1F0000FF03EF801A80FF0B5F801A80FF0A2FA81
:10B200000A490B4814F0E4FC0B49E6E70B490848EF
:10B2100014F05EFD1AB010BD024903480FF00EF89D
:10B22000BDE700BF10CB0400CC98002054D104002F
:10B23000D082002094C704009CC7040020D10400E1
:10B2400010B51C499AB004461B480EF083FF58BB4A
:10B2500001A8184A184901230EF072FF01A80FF047
:10B260009DFAD8B101220DF1030101A88DF8034028
:10B270000EF0FEFF01A80FF075F801A80FF062FABA
:10B280000E490F4814F0F6FC0E4B0F490C48002CE9
:10B2900018BF194614F08CFD1AB010BD0B490848B0
:10B2A00014F086FD1AB010BD024903480EF0C6FF27
:10B2B000CEE700BF20CB0400CC98002074D104005E
:10B2C000D0820020A8CF0400A0CF04008CD10400BD
:10B2D0002DE9F04F044685B0092018F025FFF8B994
:10B2E000A14B1A78002A5ED0A04B1D6841F288332A
:10B2F000651B9D4240F299809D4EA6FB0536B6091E
:10B30000C6F10806002E6ADCB5F5FA5F40F28D80C2
:10B31000984B1A78002A00F0CE8305B0BDE8F08F74
:10B32000914D2B78002BF8D0904B1B68E31AA3F5B6
:10B330009C52093A40F6B7318A423DD98E4A12787A
:10B34000002A44D1322B42D98C4F8D4B3E781C6061
:10B35000032E00F08480072E00F08D80052E00F073
:10B36000BD80062E00F0D580002E40F0DF80854B9A
:10B370001B78002B40F0BC81834A1168481C00F008
:10B38000638201EB4102814C8148C1EBC202016042
:10B39000A25C002A00F07E827E4A7F49136001226F
:10B3A0000B603A7013E0714973480C600121027020
:10B3B000197005B0BDE8F08F7849794814F088FC21
:10B3C0006E49714B00204FF0FF3208701A60002365
:10B3D00032202B7005B0BDE8F04F15F085BB714FE2
:10B3E00038460EF0D9FA384601210DF043FB6E4B7A
:10B3F0003B614FF001127A616C49384614F0E8FB6A
:10B400006B4B3B610A223146384614F0E3FD384667
:10B4100001210DF02FFB674B67493B61384614F063
:10B42000D7FB38460EF0C8FA6EE7534B1A78002A5D
:10B430007FF473AF4F4A1278002A7FF46EAFB5F5F0
:10B44000966F7FF66AAF4E485C4904604B4D524898
:10B450000A60032401212C70026019705DE7574BCC
:10B460001B68A3B948494C4A00234FF0FF300860DD
:10B4700013603B70ABE7524B1B68002B3BD14F482E
:10B4800045490123032203600B603A709FE7012BBB
:10B4900000F00A813B4A1278002A98D1022B08BF9B
:10B4A000012094D13F4CFFF7CBFE20460EF074FAFA
:10B4B000204601210DF0DEFA424B434923614FF053
:10B4C00001126261204614F083FB20460EF074FAEC
:10B4D0003E49334814F0FCFBFAF7F4FE3C4B1B6882
:10B4E000002B40F0C08036482B490123072203601F
:10B4F0000B603A706BE7012B00F01981022B7FF48F
:10B5000066AF344824490023062203600B603A707A
:10B510005DE7304B1C68002C40F0D28028481E4963
:10B520000223072203600B603A7050E7042E00F0FC
:10B530000581022E00F05881012E7FF448AF154B93
:10B540001B68002B00F08281012B00F04782022B48
:10B550007FF43DAFDFF838800C4EDFF87CA000248C
:10B560004FF017093DE000BF506A00204C6A0020F0
:10B57000D34D62103D6400203C640020586B0020D5
:10B580006C790020596B0020306000203C60002066
:10B5900038600020E07900205C78002028D2040088
:10B5A000D0820020E077002004001200C4D1040003
:10B5B0003D0020000D002E00DCD10400B0790020F9
:10B5C000DC79002025001E0044D2040050D2040083
:10B5D000506B002058780020507A00200134142C41
:10B5E00022D0A1B2504604F0AFFC83460028F5D02B
:10B5F00002F048FA0028F1D0594602A802F052FAA7
:10B60000D8F8003009FB036303F10F020DF10901C3
:10B61000153311F8010B12F801CF8445DED19A429F
:10B62000F7D1584602F066FAD8F80020172303FB3A
:10B6300002F3002403F110015A1CF4547018B318DB
:10B6400074508480B4509C605C60C3F80B40FCF77D
:10B6500061FBAC49AC4A3C704FF0FF330C601360A7
:10B66000C8F80030B3E6012B00F0F980022B7FF41C
:10B67000AEAEA64BA64E012420461C70FFF73EFD41
:10B68000A449132230461EF0DDFC0023F37415F0AC
:10B690001FFAA14BA1499B4A1C6000F59660072345
:10B6A000086014603B7092E69D4B1B78002B40F0C5
:10B6B0009680994A9349136007220B603A7086E698
:10B6C000012C00F00981022C7FF481AE954B904E45
:10B6D00001201870FFF75AFD9349132230461EF0DF
:10B6E000B1FC0023F37415F0F3F98C498A4BD2E7CF
:10B6F0008E4E347834B9DFF85482D8F80030002BFD
:10B7000040F056818A4B5B7D2BB98A4804F0F2FBEE
:10B71000002800F04181884C7A4A884988480023F3
:10B720002360136004233B7014F0D2FA4FE6854B7C
:10B7300074491A6005230A603B7048E67E4BD3F8D3
:10B740000090B9F1000F3FF48DAEB9F1010F7FF415
:10B750003EAE7D4B764A75487C4992F815800024B0
:10B76000C3F809409C821C61C3F80140C3F805403E
:10B77000DC601C70146094809471547504700C60CB
:10B78000FCF7C8FA72496E4814F0A2FA714A724B7B
:10B7900068481670314683F8009004F037FB65481E
:10B7A00004F0A8FB002840F039811322B8F1000F03
:10B7B00000F02F81694956481EF044FC544B002488
:10B7C000DC7415F085F94F4A54494F4B146000F56D
:10B7D000FA604FF0FF323C7008601A60F7E5012B09
:10B7E0007FF4F5AD00205DE65D4B1C6874B3013C51
:10B7F00060D45C4B1B68A3425CDD5B4B1B78002B69
:10B8000058D05A4A5A491C2303FB04235A1E0533B5
:10B8100011F8010B12F8016F86424BD19342F7D118
:10B82000544802F0B3FE642015F05EF9524B5348C1
:10B83000242101FB043101F081F9334A4FF0FF313B
:10B84000002311603B70C2E51360C0E52E484C49EF
:10B850004FF0FF33002203600B603A70B7E52B4BCB
:10B860002B4E002420461C70FFF748FC454930460B
:10B8700013221EF0E7FBF47415F02AF9274E264C2C
:10B88000204900F5966001230722306023600B6099
:10B890003A709CE532491B48324B0A603A490260D3
:10B8A0001A603148324B0A60022102701A609A8095
:10B8B00039708CE5164B3549184613221EF0C2FB31
:10B8C0000022C27415F004F91449314B00F57A7066
:10B8D000012208601A707AE5124B0D4E00242046B2
:10B8E0001C70FFF753FC2B49304613221EF0AAFBB5
:10B8F000F47415F0EDF8094E074C024900F5966016
:10B900000223C1E75C780020306000202F60002017
:10B910006078002088D20400DC7900207478002050
:10B92000596B002065790020A4D2040066790020BC
:10B93000386B0020507A0020546A0020F4D20400B2
:10B94000D0820020506B00203C600020546B00200F
:10B9500020D304001D6800205A6B0020A4D30400EB
:10B96000D07900205C6B002067790020687200208D
:10B9700088790020F4800020606B0020607A00202D
:10B980003860002078D204004C780020B4D3040042
:10B990007878002098D204006649674813221EF088
:10B9A00051FB15F095F8654B00F2DC5018600EE580
:10B9B000614F6349634814F08BF901236249337086
:10B9C00013223846C8F800401EF03CFBFC7415F00A
:10B9D0007FF85A4B00F2DC501860F8E45B4A5C498F
:10B9E0005C485D4E5D4C002313705D4A0B60036044
:10B9F00002215C481360938039703360236002F049
:10BA00009BFD014600287FF4E2AC564802F09CFD05
:10BA1000DDE4554948481EF015FBCFE65348214662
:10BA200004F092FA064600283FF4BFAE0DF1080973
:10BA30004846314602F036F84D4BB8F1000F6DD153
:10BA4000BDF80D20DDF809009A80186015F040F867
:10BA5000484C494A494900F5EA43303313602046CF
:10BA60000E221EF0EFFA237884F80E80002B47D0C8
:10BA700043493448DFF828B1DFF8C8A014F0A8F82B
:10BA80009DF80E102F48102214F09CFA05245946F8
:10BA9000504614F0EFF819F804101022504614F034
:10BAA00091FA013CF3D13749264814F011F9304698
:10BAB00002F020F879E6344C3449224801251D7003
:10BAC00014F006F920460DF067FF294620460CF0D9
:10BAD000D1FF2F4B23614FF0011262612D492046A7
