:020000022000DC
:106000000000042065250400A5250400A725040040
:10601000A9250400AB250400AD2504000000000004
:10602000000000000000000000000000E124040067
:10603000B12504000000000001250400B52504007E
:10604000B9270400B7250400EDFA03003D710300F1
:10605000F1710300B7250400C5FD0300B725040056
:10606000B7250400B7250400B7250400B7250400B0
:10607000B7250400B7250400B7250400B7250400A0
:10608000B725040031220400B7250400B725040019
:10609000B7250400B725040029F40200B725040041
:1060A000B7250400B7250400B7250400B725040070
:1060B000B7250400B7250400000000000000000020
:1060C000B7250400B7250400B7250400CD2C040033
:1060D000B7250400B7250400B7250400E10C030030
:1060E000B7250400B7250400B72504000000000010
:1060F00000000000B725040000000000452D04004A
:10610000000000000000000000000000000000008F
:10611000000000000000000000000000000000007F
:10612000000000000000000000000000000000006F
:10613000000000000000000000000000000000005F
:10614000000000000000000000000000000000004F
:10615000000000000000000000000000000000003F
:10616000000000000000000000000000000000002F
:10617000000000000000000000000000000000001F
:10618000000000000000000000000000000000000F
:1061900000000000000000000000000000000000FF
:1061A00000000000000000000000000000000000EF
:1061B00000000000000000000000000000000000DF
:1061C00000000000000000000000000000000000CF
:1061D00000000000000000000000000000000000BF
:1061E00000000000000000000000000000000000AF
:1061F000000000000000000000000000000000009F
:10620000F1EE103A43F08073E1EE103A704700BFB0
:1062100010B5054C237833B9044B13B10448AFF3E0
:1062200000800123237010BDFC63002000000000EB
:106230001CFF040008B5034B1BB103490348AFF32F
:10624000008008BD00000000006400201CFF040066
:10625000154B002B08BF134B9D46A3F5803A002138
:106260008B460F461348144A121A22F0DBF90F4BE3
:10627000002B00D098470E4B002B00D098470020F1
:10628000002104000D000D48002802D00C48AFF397
:10629000008022F05DF9200029001CF0BBF922F0FB
:1062A00031F900BF000008000000042000000000D9
:1062B00000000000FC630020DCB4002000000000AF
:1062C00000000000BFF34F8F0549064BCA6802F477
:1062D000E0621343CB60BFF34F8F00BFFDE700BF09
:1062E00000ED00E00400FA0538B5054CA4F1C00546
:1062F00054F8403D1B6820469847AC42F8D138BD61
:10630000F469002038B5054CA4F1C00554F8403DAF
:106310001B6820469847AC42F8D138BDE0680020A1
:10632000124B984230B4144608D003F14002904218
:1063300016D08033984216D030BC7047012200201E
:10634000002CF9D000EB4005094C91F900300949C7
:10635000C0EBC50004440848A37530BC18F0E0BF8A
:1063600002220120ECE703220220E9E72068002056
:106370003C600020DCBB0400B882002070B52A4CD1
:106380008AB085B20E462046012111F0DBFD05F1F1
:1063900010012B234FF001126182204623492382F2
:1063A000626118F0CFFE0E22214902A823F096F870
:1063B0009DF8083000228DF8162043B302A823F080
:1063C00062F800EB40004300C3F1800305F11C02BA
:1063D0005B1002A914482382628218F0B3FE154AAA
:1063E0003346102106A822F0BBFF06A823F04BF885
:1063F00000EB40035B00C3F180035B1006A9273567
:1064000009482382658218F09DFE0AB070BD0A4BD0
:106410000A4A18785978CDE900100F219B7802A814
:1064200022F09EFFCAE700BFDC77002008BC040012
:106430004C79002020BC04004479002010BC0400EA
:1064400010B504201DF0D8F8044605201DF0D4F83E
:106450000E4A0F49137840EA440040EA8303DBB256
:10646000C0B2CB5610705BB10A4A1168002901DD39
:10647000002B08DB1168002903DB11680B44136053
:1064800010BD002BF9DD136010BD00BF4C7800205B
:10649000ECC704005078002010B5044B044640F8C7
:1064A000083B08F0DDF9204610BD00BF7CC80400A1
:1064B00010B5044B044640F80C3B08F0D1F92046D7
:1064C00010BD00BF50C8040070B5064C064EA4F1C4
:1064D000540544F80C6C20461C3C08F0C1F9AC4251
:1064E000F7D170BD2469002050C8040070B5064C77
:1064F000064EA4F1540544F80C6C20461C3C08F0F0
:10650000AFF9AC42F7D170BD386A002050C8040022
:1065100010B5074B044640F8183B05F0FBFD20463C
:10652000044B40F8083B08F09BF9204610BD00BF23
:106530002CC904007CC8040002B97047034B0A78D8
:10654000034804491A7018F0EBBE00BFB879002068
:10655000B88200202CBC0400564B1A68013218BFC8
:106560004FF0FF32F0B518BF1A60534B1C78012C66
:1065700083B0014625D0514808F04EFF0146C8B10E
:10658000684606F0F7FC4E4B9DF801101A789DF80E
:1065900002009DF803409DF804509DF805609DF8A9
:1065A0000670022A50D0DA7D022A68D093F82E2095
:1065B000022A30D04349444803B0BDE8F04018F007
:1065C000EFBD424B424A43491C70002313700B60DD
:1065D00019F0E6FC404A414B527D414D186082B9AA
:1065E000404E1A6040493848347004232B7018F02C
:1065F000D7FD95F90010314803B0BDE8F04008F030
:106600006DBE384B39493048082402222C701A706C
:1066100018F0C6FDEDE793F83EC08C45CAD193F85B
:106620003F108142C6D193F84010A142C2D193F8E5
:106630004110A942BED193F84210B142BAD193F8A9
:106640004310B94214D0B5E71A7C8A42ABD15A7CC8
:106650008242A8D19A7CA242A5D1DA7CAA42A2D1D8
:106660001A7DB2429FD15A7DBA4208BF00229AD108
:1066700002EB4201C2EBC102012199549AE793F85F
:1066800027208A4292D193F8282082428ED193F813
:106690002920A2428AD193F82A20AA4286D193F8CF
:1066A0002B20B24282D193F82C20BA4208BF01229B
:1066B000DED07BE738600020556B0020387A002060
:1066C0003C600020BCBC0400B882002018600020A0
:1066D0005D790020506B0020386B0020C4790020C9
:1066E0001D680020566B002084BC04004CBC0400D4
:1066F00038B52B4B1A7C12B11A78022A2AD193F89A
:10670000272012B1DA7D022A24D193F83E201AB153
:1067100093F82E30022B1DD1224B1B78022B0AD16D
:1067200021485022C82107F069F91F4807F06CF989
:1067300000282FD038BD1C4807F066F9044610BB6E
:106740001A4D2B78002BF5D019491A4818F028FD5E
:106750002C7038BD134B1B78022BE1D0124850220D
:106760004FF4967107F04AF90F4807F04DF90028E9
:10677000E0D101460C4807F04FF9BDE838400E491A
:106780000C4818F00DBD084807F068F9074B0122C6
:106790001A7038BD0146BDE83840034807F03CB9DF
:1067A0003C600020546B0020DC8000204864002006
:1067B0001CBD0400B8820020E4BC04002DE9F047B1
:1067C000284B294EDFF8A480DFF8A4A0DFF8A490BE
:1067D000186082B001273378022B07D00137042FCD
:1067E00006F11706F7D102B0BDE8F087002501E0F9
:1067F000142D2ED0A9B2404608F00EFE01350446F5
:106800000028F5D006F0A6FB0028F1D02146684606
:1068100006F0B0FB327C9DF801309A42E8D1727CE0
:106820009DF802309A42E3D1B27C9DF803309A423F
:10683000DED1F27C9DF804309A42D9D1327D9DF8A8
:1068400005309A42D4D1727D9DF806309A42C5D067
:10685000CEE73A465146484618F062FD01233370B0
:10686000BCE700BF7C6700203C600020387A002035
:106870003CBD0400B88200202B4B1968084400EB93
:10688000D07040102DE9F041284E186044B214F148
:10689000490F327829DB14F13F0F2BDA022A2BD073
:1068A000012A154638BF0125AA4221D0204F19F0F0
:1068B00077FB3B68C01AB0F5487F19D319F070FB1D
:1068C000022D386035702BD0012D25D0194D0021B7
:1068D0002970194808F002FD95F900301749184849
:1068E0002246BDE8F04118F01BBD0225AA42DDD1C9
:1068F000BDE8F0810025F9E714F1450FD0DB0C4D20
:1069000019F04EFB2B68C01AB0F5487FF0D319F090
:1069100047FB012328603370064D04212970D8E716
:10692000044D08212970D4E710600020566B002028
:106930004C6400201D680020387A002058BD0400F7
:10694000B88200202DE9F04F3C4B3D4E3D4F186082
:106950004FF0000983B006F14508CA463378022B90
:1069600016D01736B045F9D1B9F1000F07D1364B23
:1069700093F90020082A4DD003B0BDE8F08FBAF19A
:10698000000FF9D0504603B0BDE8F04FFFF774BFD9
:10699000002501E0142DE4D0A9B2384608F03CFDF2
:1069A000013504460028F5D006F0D4FA83460028C5
:1069B000F0D02146684606F0DDFA327C9DF80130C1
:1069C0009A42E7D1727C9DF802309A42E2D1B27CC1
:1069D0009DF803309A42DDD1F27C9DF804309A4252
:1069E000D8D1327D9DF805309A42D3D1727D9DF881
:1069F00006309A42CED1FF21204606F0EDFA20461D
:106A000006F0F4FA430616D0BAF1000F0ED1D946BB
:106A10008246A6E70D4A0B4883F80090494682F863
:106A2000009003B0BDE8F04F08F058BC8245A8BF05
:106A300082464FFA8AFAD94693E700BF6C67002076
:106A40003C600020387A00201D680020566B002032
:106A500030B5142483B000251CF028FD013C05440A
:106A6000FAD1132D3CD9204B204C9FED217AD4ED47
:106A7000006ADFED205A9FED206AA3FB05352B0944
:106A800007EE903AF8EEE77AF5EE406A67EE877A1D
:106A9000F1EE10FA08BFF0EE676A67EEA57A9FED97
:106AA000177AE6EE867A642300934FF4D27227EECB
:106AB000877A0023BDEEC77A4FF4AA7117EE100A49
:106AC000C4ED007A19F0C0F9002807DD6428A8BFDA
:106AD0006420C0B20A4B187003B030BD0120F9E742
:106AE000074B187803B030BDCDCCCCCC70670020FC
:106AF0000000903B9A99993E3333333F0000C842DF
:106B0000786700202DE9F043032189B0BA48DFF807
:106B10006883BA4CBA4FBB4EDFF86093BA4D09F0A8
:106B20008FFF0121B94809F08BFF04A841F60F013E
:106B300007F09EFE04A9404606F072F904A807F08B
:106B40008FFE2246B249404621F0A4FC04A842F63A
:106B5000192107F08DFE04A9384605F087FE04A828
:106B600007F07EFE2246AB49DFF81483384621F059
:106B700091FCA949A94F304607F088FE22464946B4
:106B8000304621F087FCA649284607F07FFE2246C2
:106B90004946284621F07EFCD6E90232716805910B
:106BA000404604A907920693049706F039F904A811
:106BB00007F056FED6E9023271680792CDE90471FA
:106BC00008F11C0004A9069306F02AF904A807F0AE
:106BD00047FE73680593D6E9026204A908F13800FC
:106BE000CDE90662049706F01BF904A807F038FE09
:106BF00022468C49DFF88C828B4EDFF88C92002085
:106C000021F048FCD5E9023269680792CDE90471A8
:106C1000404604A9069305F029FE04A807F020FECB
:106C2000D5E9023269680792CDE9047108F14000A4
:106C300004A9069305F01AFE04A807F011FE6B687C
:106C40000593D5E9025204A908F18000CDE9065266
:106C5000049705F00BFE04A807F002FE22467349D4
:106C6000734D744FDFF82482002021F013FC04A838
:106C700041F60F0107F0FCFD04A9304606F0D0F8FC
:106C800004A807F0EDFD04A841F60F0107F0F0FDA0
:106C900004A906F11C0006F0C3F804A807F0E0FD03
:106CA00004A841F60F0107F0E3FD04A906F138003E
:106CB00006F0B6F804A807F0D3FD22465E495F4E01
:106CC000002021F0E7FB04A842F6192107F0D0FDCF
:106CD00004A9284605F0CAFD04A807F0C1FD04A8D0
:106CE00042F6192107F0C4FD04A905F1400005F0A2
:106CF000BDFD04A807F0B4FD04A842F6192107F071
:106D0000B7FD04A905F1800005F0B0FD04A807F067
:106D1000A7FD22464A494B4D002021F0BBFB4A4BC0
:106D20004A4A02934FF0FF33CDE900323846484BD0
:106D30004022802111F0A6FC22464649384621F027
:106D4000A9FB4549454F04A807F0C0FD04A94846E2
:106D500007F066FD04A807F083FD22464146484639
:106D600021F098FB3E49DFF8289104A807F0AEFD1A
:106D700004A9384605F09CFC04A807F071FD2246E2
:106D80003146384621F086FB284608F0A9FB22460A
:106D90003449354F284621F07DFB3449344D48466F
:106DA00019F060F822463349484621F073FB04A8E5
:106DB00041F60F0107F05CFD04A9384607F030FDED
:106DC00004A807F04DFD22464146384621F062FBFB
:106DD00004A842F6192107F04BFD04A9284605F046
:106DE00067FC04A807F03CFD22463146284621F006
:106DF00051FB09B0BDE8F083F47900200060002069
:106E0000CC7800209879002088790020CC79002067
:106E1000B164020015C802008CBD040094C80400CF
:106E2000B4BD0400ED640200E0680020E9620200E5
:106E300020680020DC770020C964020015C1020030
:106E400005630200586A0020A0860100801A06002F
:106E50003C970020E58603000CC80400C86A0020A7
:106E6000FCC70400116502000C79002004DC04005A
:106E70007478002099FE03002479002061E8020064
:106E8000F469002034690020206B0020996402001E
:106E9000AC790020F0B53148ADB012F06FF92F4B4E
:106EA0002F4913A8002212F015FE13A812F0DEFEDF
:106EB00000284CD02B4C0025452201A9C4E90055DF
:106EC000C4E9025513A82561A58212F02DFE2146C2
:106ED000162213A812F028FE064613A812F09AFEF6
:106EE000162E28D1204B0DF1050403F1450601278C
:106EF000002514F8012C022A14BF03F8012C03F812
:106F0000017C21460E22184622F0E8FA224603466A
:106F100052F80F1F857317339288C0F80F10B342D1
:106F2000A0F8132004F11704E3D11049104818F019
:106F3000A7F92DB0F0BDC4E90055C4E902550D49CB
:106F4000256125750A48657518F02AF9CAE70A49C6
:106F5000074818F095F92DB0F0BD00BFB498002097
:106F6000DCBD0400386B00203D6000202CBE040016
:106F7000B8820020F0BD040048BE04002DE9F047AF
:106F800090F81C80866984B000240294CDE9004406
:106F90000C70CDF80B40B8F1000F2ED00F4603E077
:106FA00001352C44444525DA355D631C32192B44E8
:106FB00005B343451EDC5378092B2BD0082BEFD1AA
:106FC0009DF80090B9F1000FEAD105F1FF3ABAF14E
:106FD0000E0FA8BF4FF00E0AA11C5246314468465E
:106FE00021F0F8FA013504AB9A442C4444450AF8E0
:106FF000109CD9DB9DF8003013B904B0BDE8F087D0
:107000000E226946384622F069FA0023BB7304B0A9
:10701000BDE8F087013D0E2DA8BF0E2502343119C1
:107020002A46384621F0D6FA00237B5504B0BDE845
:10703000F08700BF7C4B2DE9F0411D7804468C465B
:10704000002D40F08780D97D002940F0A28093F880
:107050002E10002940F0C2801CF1550F3DDB734F0C
:10706000DFF8D0E13968002940DD94F803807346E9
:1070700000251878404532D15E78207986422ED19D
:107080009E78607986422AD1DE78A079864226D120
:107090001E79E079864222D15E79207A86421ED11D
:1070A000C5EBC5070EEB8707614E87F806C018F0E1
:1070B00077FF4FEAC5084544B86106EB850604F141
:1070C000200720686168A268E36835460FC5103460
:1070D000BC422E46F5D120682860BDE8F08101351C
:1070E0008D4203F11C03C4D13129F6DCC1EBC1018F
:1070F00026468B0056F8030F4EF803000EEB810571
:1071000007331146B288AA800EEB030085F806C04B
:107110000E2222F0E3F900236B7518F041FFD7F837
:1071200000C0434EA8610CEBCC0306EB830604F1D0
:10713000200E20686168A268E36835460FC51034E8
:1071400074452E46F5D1206828600CF101033B60A0
:10715000BDE8F081187CE17888427FF474AF207933
:10716000597C88427FF46FAF987C617988427FF4C4
:107170006AAFD87CA17988427FF465AFE079197D48
:1071800088427FF460AF207A597D88423FF467AF30
:1071900059E793F82700E17888427FF458AF93F8D5
:1071A0002800217988427FF452AF93F82900617951
:1071B00088427FF44CAF93F82A00A17988427FF48B
:1071C00046AF93F82B00E17988427FF440AF93F803
:1071D0002C00217A88423FF442AF38E793F83E0012
:1071E000E17888427FF438AF93F83F0021798842F4
:1071F0007FF432AF93F84000617988427FF42CAF7E
:1072000093F84100A17988427FF426AF93F84200B9
:10721000E17988427FF420AF93F84310237A9942B2
:107220003FF41DAF18E700BF3C600020586B002002
:107230005C6B00206472002010B584B0694604467F
:10724000FFF79CFE3F4B1A78012A14D0DA7D012A01
:1072500039D093F82E20012A54D09DF800302BB15C
:1072600094F913106A462046FFF7E4FE364806F00C
:10727000EBFB04B010BDE1781A7C9142E6D1217994
:107280005A7C9142E2D1997C62799142DED1D97CDB
:10729000A2799142DAD1197DE2799142D6D1227A4E
:1072A000597D914208BF0022D0D101322749284898
:1072B00018F036F8244806F0D1FB2146254804F0A2
:1072C000A5FE04B010BD93F82700E1788842C0D134
:1072D00093F8280021798842BBD193F8290061797D
:1072E0008842B6D193F82A00A1798842B1D193F8A7
:1072F0002B00E1798842ACD193F82C00217A8842A6
:10730000D3D0A6E793F83E10E2789142A5D193F846
:107310003F1022799142A0D193F8401062799142B6
:107320009BD193F84110A279914296D193F84210E3
:10733000E279914291D193F84320237A9A428CD1F9
:107340000222B2E73C600020DC8000206CBE04001A
:10735000B8820020487A00202DE9F041044618F058
:107360001FFE28490A68821AB2F5C87F31D2264B1F
:107370001D78264A264B1068632DA4EB000494BFA9
:10738000322696269C42234C3746237802D94BB3AB
:10739000BDE8F081DFF898801BB998F80030B3425F
:1073A000F6D01D48812111F07DFA39461A4811F0B6
:1073B00079FA1A481A4B88F80070632D88BF034683
:1073C00000253246257017491748BDE8F04117F0EF
:1073D000A7BF03460C200B601CF062F8FFF738FBD8
:1073E0000546C6E70C48812111F05CFA0A480121E4
:1073F00011F058FA012323700C490B48BDE8F04105
:1074000017F03EBF74670020786700206479002081
:10741000E09304005C790020DC770020A0BE04002B
:10742000A4BE0400C4BE0400B8820020A8BE0400AC
:107430009B6700202DE9F04F444B2DED028B1A681D
:107440009DB0012A0A927CDD414B42490793069187
:107450001C3B1146C2EBC20203EB820308934B1E96
:107460000B9300230993099B0A9A013393420993D2
:107470005DDA079AA2F11C0308EE103A069B9146CA
:1074800018EE100A4946019321F0DAFF079B069F88
:107490000597A3F12308019BCDF8088003F124048C
:1074A0000DF1300EA9F1070C13AE0028CDF810E055
:1074B000CDF80CC03D46B2460194A34631DDB8E894
:1074C0000F00AEE80F0098E807008EE80700BCE860
:1074D0000F00029F0FC79CE80700049B1F4688E827
:1074E00007000FCF039F0FC79EE807008CE8070037
:1074F0000FCD0FC60FCD0FC6D5F800C0C6F800C01F
:107500000FCC059E0FC60FCC0FC6BAE80F00266839
:107510002E60ABE80F00BAE80F00ABE80F00C4F82C
:1075200000C0089A019B09F11C099145A8D1069B4E
:107530000B9A24330693079B1C330793099B9342B2
:1075400091D11DB0BDEC028BBDE8F08F586B0020CF
:10755000877200205C6B0020474A1368002B136879
:10756000D8BF5B42032B23DD44490B68C31A4F2B62
:107570001ED970B41568424C136824780860002D39
:10758000CCBF04256FF003053E49A3EB0503136050
:10759000CCBF01224FF0FF32032C08601BD044B156
:1075A000012C2CD0022C36D0042C25D070BC704776
:1075B0007047354B1B78C3B93449086801303448EB
:1075C00006D003681344022BA8BF022323EAE37307
:1075D00003600B60EAE72E492E480B68134483F3DF
:1075E00001030B60036070BC7047284A284B4FF0C2
:1075F000FF3111601C60D9E727492548EDE727498D
:1076000023480B681344022BA8BF022323EAE37329
:107610000B600360CAE722490B68D3181DD4214AC6
:107620001B4812689342A8BF13460B600360C3B1A6
:10763000013BBBD49A42B9DD1B4A1C4C1C4E1D4D6C
:10764000C3EBC30302EB830393E80300012200238F
:107650002060A18032702B70A8E70D4A00231360D0
:107660000B60124A124C134900230120237013604F
:10767000938008709AE700BF50780020607900205E
:10768000546B002064790020556B0020306000208E
:1076900054780020A8790020546A0020C87900207E
:1076A000BC79002048780020647200208079002096
:1076B0005E7900205B7900201B4AF8B513780446F8
:1076C000BBB91A4E3268013212D0194D2A6841F600
:1076D0005831821A8A420BD91648174A0360174953
:1076E00017484FF0FF331360336017F059FD2C60DB
:1076F000F8BD0F4D296841F65830611A8142F7D91B
:10770000013B032BF3D8094F0B480A490D4E4FF0AC
:10771000FF333B60036000230B6009480A49137084
:10772000337017F03DFDE2E7546B0020306000201D
:10773000647900205478002038600020F8BE0400EE
:10774000B88200205E79002014BF04002DE9F047C4
:10775000684E694DDFF8CC91DFF8CC81674F84B07B
:10776000306801A909F092F900284DD02B789DF8D6
:1077700005A0012B79D09DF804402F2C4FEA24144A
:1077800088BF002404EB4403C4EBC30318F80300D0
:10779000A0F10200B0FA80F040090028E0D01AF011
:1077A000800F67D1FB68D90131D5554B1A68D207D4
:1077B0002DD55B689B09534A52F82410C1EB9320E6
:1077C00000284FEA9323D8BF4B1C63F07F01BAF126
:1077D000F70F42F82430C9B222D92B788DF809105E
:1077E0008022012B8DF80AA08DF8082048D0464849
:1077F00002A9032200EB841005F078F9306801A992
:1078000009F044F90028B1D104B0BDE8F08719F0BF
:107810000BFE3E4BA0FB0301830A43EA8153CAE7F8
:107820000AF0F003902B9DF806009DF807202DD05C
:10783000802B2CD0B02B48D0E02B50D02B788DF85B
:107840000910012B4FF080018DF80AA08DF80B0074
:107850008DF80C208DF8081027D02B48052200EB5E
:10786000841002A905F042F97AE7484607F0AAFD1C
:10787000002492E718F094FB254B43F8240091E78D
:10788000032202A9234804F095FF69E79AB9224B25
:1078900003EBC41313F800C0BCF1000F3FF460AF5A
:1078A0004FF0000C03F800C0C8E7052202A91948F0
:1078B00004F080FF54E7184B03EBC41313F800C027
:1078C00094453FF44DAF1A54B8E7144B03EBC4137F
:1078D00013F800C094453FF443AF1A54AEE7104B81
:1078E00033F814E040EAC21CE6453FF439AF23F810
:1078F00014C0A3E71C7A0020556B0020F0ED00E0D7
:10790000001000E0586400203469002040420F005D
:1079100068790020C86A00206C640020EC650020B3
:1079200064640020387A00203C600020754A1368A7
:107930004EF66021C31A8B4270B5044600F2978060
:10794000714B1B68E31AB3F5FA6F02D92046FEF7B4
:1079500035FF6E4A1368E31AB3F5FA6F05D36C4B23
:1079600014601B780BB9FEF7C3FE6A4B6A4A1E7897
:10797000022E00F08F801378012B00F0B080D57DAF
:10798000012D00F0AF8092F82E30A3F10105B5FA79
:1079900085F56D091378022B79D0A3F10103B3FAB1
:1079A00083F35B090020D17D92F82E20022921D09B
:1079B000012908BF0123022A20D0012A47D0E8B9B3
:1079C000002D6DD1022E23D1544B1A6802B91C60D0
:1079D000534B93F90020082A2AD0524A52480821D2
:1079E00019700223137007F079FC504806F00CF868
:1079F00018B370BD022A01D0012A2AD04BBB4C4BD0
:107A00001B68E31AB3F57A7F46D875B9022E0CD0FD
:107A1000424B464800221A6005F0F6FF0028E8D0E5
:107A2000BDE87040414806F019B83C4B00221A608E
:107A30003E4805F0E9FF0028DBD101463B4805F050
:107A4000EBFFBDE870403B493B4817F019BC0028EC
:107A5000B6D0334B93F90020082AD6D0314A3248A9
:107A6000082119700223137007F038FCCDE710606D
:107A700018F096FA31490A68821AB2F5C87F0346AF
:107A800025D22F4B19782F4804F0A6FE58E7002383
:107A9000012088E701257DE72046FEF753FFB4E784
:107AA0001E4B1A68002A92D0022E91D0264BA41A9F
:107AB0009C428DD91A4B93F90020002AB8D0194A5C
:107AC000194800211970117007F008FCB0E70C206C
:107AD0000B601BF0E5FCFEF7BBFF0146D3E71D463C
:107AE000002060E7022B7FF458AF92F82E20022A84
:107AF000AFD0012AADD10A4B93F90010082994D0D8
:107B00001546ABE7406400207C67002044640020F9
:107B1000556B0020546B00203C600020C079002091
:107B20001D680020566B0020387A0020DC80002081
:107B30006C67002038BF0400B88200207467002002
:107B40007867002074780020804F1200FEF7DABFBB
:107B500030B53D48ADB017F06FFA3C4B1B78012BA8
:107B600058D03B4C23460E2213F8101B8DF80410FE
:107B700093E803000590ADF818100DF10500611CA5
:107B800021F0ACFC2346E57D53F8272FCDF82B20C0
:107B90009B88ADF82F3004F118010E2207A88DF84C
:107BA0001B5021F09BFC234694F82E5053F83E2F97
:107BB000CDF842209B88ADF8463004F12F010E220B
:107BC0000DF133008DF8325021F088FC13AC2149BF
:107BD000214811F09BFD204B1E490122204611F047
:107BE00079FF204612F042F808B92DB030BD01A946
:107BF0004522204611F0A4FD16221849204611F016
:107C00009FFD204612F006F81549164817F038FB7C
:107C10002DB030BD13AC104B0E492046002211F0A0
:107C200059FF204612F022F840B1452201A9204612
:107C300011F07AFF204611F0EDFFC8E7014645221A
:107C400001A820F0EFFCC2E75CA90020556B0020E2
:107C50003C600020DCBD0400B4980020386B00209C
:107C60005CBF0400B88200202DE9F04F2DED028B9F
:107C7000054699B00146744807F0CEFB002800F095
:107C8000CB8104460DF118084046214605F072F9F3
:107C900018F086F96D4B1B68984254D26C496D48B8
:107CA000DFF8EC916B4F17F07BFA6B49694817F0DE
:107CB000F7F99DF81E106748102217F0EBFB0DF145
:107CC0001D064946384617F03DFA16F801191022EC
:107CD000384617F0DFFB4645F3D1604E5D48DFF8CC
:107CE000B0A1DFF8709117F0ABFA5D49594817F071
:107CF000D7F971795748102217F0CCFB06F1040828
:107D000047465146484617F01DFA17F80119102248
:107D1000484617F0BFFBB04540F083814D4817F04F
:107D20008FFA4E4806220DF1190120F045FC064657
:107D3000002800F0BE824B49464817F031FA4A4904
:107D4000444817F02DFA18F02BF9484E0746C8237F
:107D5000002206212046376005F01CF9444B1B78B1
:107D6000012B00F0AD81002308A90F2220460A93C1
:107D7000CDE90833CDF82B3005F05AFA3D4BD3F856
:107D800000B0BBF1FF3F00F058823B493B48132253
:107D900021F0A4FB18F004F939493A4BCDF80CB0A6
:107DA00000F51C501030012208601A703648074652
:107DB00017F042F9C82018F0FFF8384617F03CF9E0
:107DC000039A324BC2EBC202CBEBCB0903EB82012D
:107DD00003EB890992004FEACB0308EE104A0492A4
:107DE0004FF0000805938A462C46384617F024F9D0
:107DF000D9F8003021469B6850469847002849D161
:107E000018F0CEF8194BB8F1040F186000F00B8190
:107E1000B8F1000F00F02A814FF4C87606FB08F68F
:107E200006F54876B6F5C87F354628BF4FF4C875C5
:107E3000284618F0C1F8384617F0FEF8761BF1D145
:107E400008F10108D1E700BF387A0020407900200E
:107E50008CBF0400B8820020A4BF04004479002035
:107E6000B8BF040008C004009CC00400647900206E
:107E7000556B002038600020C4C1040058780020F1
:107E80006C780020707800205CA90020F469002044
:107E900038C304007A48814617F0CEF8039A794B2C
:107EA000484603EB82184FEA821A17F0C5F840469D
:107EB0002546032718EE104A04F01EFD98B918F065
:107EC0006FF8714B012F18604FF4967000F03682F6
:107ED00018F072F8484617F0AFF84046013F04F03A
:107EE0000BFD0028EBD040466849012204F04EFE0D
:107EF000404604F053FE002800F03B83604817F032
:107F00009BF8059B6248049AA3EB0B03294650F8A3
:107F1000233010449B689847002840F0B383DFF873
:107F20009CA14FEA4B0920460CA900240F220E9475
:107F3000CDE90C44CDF83B4005F07AF9554B10944F
:107F40001868A042CDE91144CDF84B402CDD9DF8D6
:107F500019509DF81A609DF81B709DF81CC09DF883
:107F60001DE09DF81E804C4B214622461C78AC42F9
:107F700002F1010212D15C78B4420FD19C78BC426C
:107F80000CD1DC78644509D11C79744506D15C7943
:107F9000444503D1DC79002C40F05783824203F141
:107FA0001C0301F11C01E1D19DF830200CA93B4BD1
:107FB000002A08BF1946039B03EB4300C3EBC00034
:107FC00001300E22504421F089FA3549BDF81D4098
:107FD0000868DDF8191009EB0B03CBEBC3030AEBC0
:107FE00003020225116101304FF000010AF803502D
:107FF0009482D17306D02B4A2B482C4B117001224E
:1080000001601A70FFF7A4FD254A294929484FF05D
:10801000FF33136017F034F919B0BDEC028BBDE8E3
:10802000F08FB8466CE6164817F006F81C4B1B6834
:10803000013318EE104A0DD01F491A48132221F0BF
:108040004DFA17F0ADFF1849184B00F5FA60012200
:1080500008601A70124A4FF0FF332046136004F094
:10806000B1FF19B0BDEC028BBDE8F08F4FF4C870C2
:1080700017F0A2FF384616F0DFFF4FF00108B4E614
:108080005CA90020346900206479002049B3020013
:10809000E0680020586B00206472002080BF04005C
:1080A00038600020587800206C780020707800201C
:1080B000F8C10400B8820020D4C104003C60002054
:1080C000B94816F0B9FF10AE21460CA804F052FFD3
:1080D0000023314620222046CDE91033CDE9133369
:1080E000CDE915331293179305F0A2F89DF84030AF
:1080F00023B1AE49304621F0A3F950B99DF8313093
:1081000000939DF833209DF83230A949304621F084
:108110005BF9A849A84FA94817F042F8A849A74811
:1081200016F0BEFFB91DA54817F00CF8A549A348E5
:1081300017F036F8A449A14816F0B2FF31469F481F
:1081400017F000F89F499D4817F02AF89F499B486F
:1081500017F026F87B7D002B00F0D5809DF83120AC
:108160003B789A4240F0FD809DF832207B789A421D
:1081700040F0F780BA789DF833309A4240F0F180B1
:108180009DF83420FB789A4240F0EB809DF8352032
:108190003B799A4240F0E5807A799DF836309A42F0
:1081A00040F0DF80DFF888C2894CDFF860E2BCE88D
:1081B0000F000FC4DCF8003024F8023B854A1B0C8A
:1081C0004FF001080021237011608EF8008017F035
:1081D000E7FE814A814B82F8008000F6C4101860E7
:1081E0007F4C31460E22601C21F078F9DDF8310019
:1081F000BDF835207B4920610023E3736F48A282DC
:108200000223237016F0CCFF7748294604F0F2FDD4
:1082100000287BD0754804F06FFB002800F0B78081
:10822000724804F0BBFC7249644816F0B9FF6F480D
:1082300004F01EFC6F4B18706CE0DFF8F8A19DF89D
:108240001D309AF8002003939DF819709DF81A804C
:108250009DF81B909DF81C609DF81E30002A40F090
:10826000EB809AF81720002A40F01C819AF82E2003
:10827000002A40F0478160495048584D16F010FFE1
:1082800008A94E4816F0FCFF13225C49504821F023
:1082900025F917F085FE504A00F57A730121204632
:1082A0002B60117004F08EFE19B0BDEC028BBDE89E
:1082B000F08F5349414816F073FF10A92022204641
:1082C000CDE91066CDE91266CDE91466CDE91666F2
:1082D00004F0AEFF18B19DF84030002B5CD1494846
:1082E0000378002B00F03881394B47493B4D184645
:1082F000132221F0F3F80022C27417F051FE364A1F
:1083000000F2DC53CAE7414A137069E740492B4841
:1083100016F046FF7B7D002B7FF47EAE3D4807F0D4
:1083200051F800283FF478AE17F03AFE294B3A494D
:10833000024622481A6016F033FF6DE6374B1B6881
:1083400001333FF487AE13223549214821F0C6F8A6
:1083500017F026FE214A204B00F5FA6010601F70CE
:1083600078E63049154816F01BFF204604F02AFE37
:108370002D491748132221F0B1F817F011FE1749C3
:10838000154B00F2DC50012208601A7044E62749C0
:108390000A4816F005FFBDE71A4B10A918460E2231
:1083A00021F09CF886739FE75CA9002038C0040088
:1083B00010BC040040C00400386B0020B8820020CC
:1083C00060C0040078C004007CC0040094C00400B5
:1083D00058780020506B0020707800206C780020C6
:1083E00018600020C8C0040024790020CC78002048
:1083F000F0C00400B879002098C10400B4C10400A2
:10840000CCBF04004C790020F8BF04005D79002047
:1084100040C10400387A002068C1040038600020A0
:10842000E8C1040028C2040048C2040018C10400C6
:10843000B4C004003C6000209AF81020BA4240F01A
:10844000A4809AF81120424540F09F809AF81220AB
:108450004A4540F09A809AF81320B24240F0958045
:108460009AF8142003998A4240F08F809AF81520D8
:108470009A4240F08A800AF1010021F004F84FF09E
:10848000000B039000283FF491AC024608A99148E4
:1084900021F002F88346002800F0128100230393A4
:1084A0009B4683E49AF82720BA4240F0B7809AF8B6
:1084B0002820424540F0B2809AF829204A4540F0F1
:1084C000AD809AF82A20B24240F0A8809AF82B207A
:1084D00003998A4240F0A2809AF82C209A4240F0F8
:1084E0009D807D4820F0CFFF024630B17A4808A930
:1084F00020F0D2FF002800F0E7804FF0010BCDF80C
:108500000CB053E49AF83E20BA4274D19AF83F2056
:10851000424570D19AF840204A456CD19AF84120E2
:10852000B24268D19AF8422003998A4263D19AF8FC
:1085300043209A425FD1694820F0A5FF024630B13E
:10854000664808A920F0A8FF002800F0B4804FF08A
:10855000020BCDF80CB029E49DF819209DF81A30D3
:108560000F21CDE900329DF81B305D4A20F0F8FE66
:10857000BAE613225B495C485C4D20F0AFFF17F070
:108580000FFD5B4A00F6C41388E65248049320F0BE
:108590007AFF049B024600283FF463AE4D480493E3
:1085A00008A920F079FF049B834600287FF459AE88
:1085B000CDF80CB04F49504816F072FD0A225946CA
:1085C0004D4816F06FFF4D494B4816F0E9FD0BEB97
:1085D0004B03CBEBC3035344DDF81910BDF81D204A
:1085E00019619A82FFF7B4FA454B1B6801333FF4D7
:1085F000DDABFFF7CABB394820F045FF0246002833
:108600003FF439AE354808A920F046FF00287FF432
:1086100032AE4FF0020BCDF80CB0CBE72E480493EE
:1086200020F031FF049B024600283FF41FAE2A4889
:10863000049308A920F030FF049B00287FF416AEB5
:108640004FF0010BCDF80CB0B4E72E4B073110AE54
:1086500019440E22304620F041FF9DF830300022B0
:108660008DF84E2053B1304620F00DFF04460CA883
:1086700020F009FF844201D80CA99CE49DF8402019
:10868000314694E4204B9A44504604F035F90028D2
:108690003FF445AC504604F081FA504604F0E8F946
:1086A000DFF868A00BEB4B03CBEBC30353444FEA5B
:1086B0004B09987537E4022303939B46FFF776BB7B
:1086C000CDF80CB0FFF772BB012303939B46FFF775
:1086D0006DBB00BF3D600020546000206B60002037
:1086E00010BC040018C20400587800206C780020E8
:1086F000707800205CC20400B88200206CC20400C4
:108700003860002064720020206800203C60002057
:108710002DE9F84304466148614D06F053FE18BB4D
:108720002B688BB95F4D2B6823BB5C4806F04AFE73
:1087300010B15D4E357855B35C4A1368E31AB3F552
:10874000FA6F35D8BDE8F883594AE31A9342E9D95C
:10875000584B93F90020082A06D1574A01464F4842
:108760001970117006F0BAFD00232B604D4D2B6877
:10877000002BDAD017F014FC2B689842D5D34F4A5F
:108780004F490023136093802B600B70CDE74D4F52
:108790003B68002BD0D017F003FC3B688342804637
:1087A0003CD91E23484A11689942C5D01360C3E7DB
:1087B0003A48146006F006FE0028C3D0374800216E
:1087C00006F02AFE10B1FF2104F006FC3F4A1368B0
:1087D0004EF66021E01A884201D8002BB2D1146015
:1087E00017F0DEFB3A490A68821AB2F5C87F0346E1
:1087F00020D2384B1C783848214606F069FE3749AC
:10880000374816F04DFC214635480A2216F042FE44
:10881000BDE8F8433349324816F0C2BCC31A47F2E8
:108820002F5293420ED8304AA2FB03239B09C3F177
:108830001E03B7E70C200B601AF032FEFEF708F9B2
:108840000446D8E7294BDFF8B89093E803000E22DE
:10885000C9F80000A9F8041009F10600A3F10F01FE
:1088600020F03CFE4FF48073A9F81430FFF770F944
:10887000DFF854C01E491F483D60012313223370A6
:10888000CCF8005020F02AFE1B4A1C49144808F579
:10889000FA63136016F084FC4EE700BF387A0020BC
:1088A000C4790020407900205D79002054640020C4
:1088B000804F12001D680020566B00204479002074
:1088C0004C790020506B0020346000205064002060
:1088D0007467002078670020586A0020B8C204003E
:1088E000B8820020D8C20400D34D62102860002056
:1088F0008CC20400587800206C7800209CC20400D0
:10890000386B00202DE9F04F3A4CDFF8009187B02A
:10891000002201270E231146CDE90037204680238F
:108920000EF0E0FD0025344B34492361204665619B
:1089300016F008FCB4F91060314B0195D3F800B083
:108940004FF00A0A023631B22046CDF800A00923C2
:1089500003220EF0C7FD02365246042359464FF05B
:108960000118204663822682C4F8148016F09AFD0E
:1089700024496561204616F083FC3023019729467F
:1089800020460093102280230EF0F4FD1E4B93E846
:10899000070003AF87E80700A24618264FF0050B33
:1089A000D9F80030AB42504610D057F8041BC4F839
:1089B0001480A4F810B06682013516F061FC0C3604
:1089C000032DB6B2ECD107B0BDE8F08F01210B2327
:1089D000721ECDE9003112B27C2302210EF082FD1D
:1089E000002357F8041BA4F810B0504601356682E6
:1089F0006361E2E7DC77002002000400E0C20400CB
:108A000038600020E8C20400DCC70400C8790020F8
:108A1000F0B52A4C2A4E83B0204610F025FA0125E5
:108A200000220E231146CDE90035204680230EF0AA
:108A300059FD0027234B244923612046676116F026
:108A400081FB302339460093019520468023102274
:108A50000EF090FD3768D7B14FF0011363611B4BE7
:108A60001B491648236116F06DFB3368012B19D0A2
:108A70004FF001136361174B17491048236116F03B
:108A800061FB0E4803B0BDE8F04010F0FDB90B23C8
:108A9000CDE9003517227C23022120460EF022FD6D
:108AA0006761DCE70B22CDE9002304487C23252203
:108AB00002210EF017FD00236361DCE7DC77002064
:108AC000546A002002000300F4C2040005001800EC
:108AD000B8BB04000500260004C304002DE9F04FD4
:108AE000DFF8EC92AB4999F80030AB48AB4A0A6129
:108AF000002B87B014BF4FF0010B4FF0030B002287
:108B00005844A74FDFF8CC82A64DA74CA24E029046
:108B10004A6103921BBB2878A0F10200B0FA80F0F2
:108B2000400908B399F80030002B60D0002120469E
:108B300006F072FC824620B104F00CFA002840F0E6
:108B40001C81029B01369E4207F1010708F10408CF
:108B500005F117050FD099F80030002BDBD0204627
:108B600006F030FC0028DDD13070387017F018FAAC
:108B7000C8F80000E5E799F80040002C40F0968026
:108B80008A4D2B68013340F0D580039B002B40F0C9
:108B9000968087497F4816F0D5FA17F001FA854983
:108BA0000A68821AB2F5C87F034680F0EA80824BD9
:108BB0001C78632C00F2DE80282C00F20D810C233F
:108BC0000022CDE9003273481623012234210EF031
:108BD000D1FC7048794B036121460A2216F05AFCF9
:108BE00077496C4807B0BDE8F04F16F0ABBA9A462B
:108BF00002E0BAF1140FA4D01FFA8AF1204606F061
:108C00000BFC0AF1010A83460028F2D004F0A2F915
:108C10000028EED0594604A804F0ACF92A7C9DF84F
:108C200011309A42E5D19DF812206B7C9A42E0D136
:108C30009DF81320AB7C9A42DBD1EA7C9DF814307E
:108C40009A42D6D12A7D9DF815309A42D1D16A7DBB
:108C50009DF816309A42CCD1584604F0C7F910F16D
:108C6000800F3FF46EAF327822BB4B30ACBF002395
:108C700001233978994206D03B7017F091F9327888
:108C80003B78C8F800009A420AD017F089F9D8F862
:108C90000030C01AB0F52F7F2ABF3B78337833708D
:108CA000039A002B18BF1A4603924AE7039B33B975
:108CB00044496FE74730ACBF00230123D9E742495D
:108CC000344816F03FFA99F80040002C40F0A1809B
:108CD000314B1B78002B40F0DC802F4B5B78002B56
:108CE00040F0B3802C4B9B78002B43D0294BB3F939
:108CF00010400A27013400261D46184621B2CDE94E
:108D00000076A4B2092302220EF0ECFB4FF0030818
:108D10003A464FF00113A71C022128462F826B61AF
:108D2000A5F81280073416F0BDFB2C826E61A5F801
:108D300012801FE02549174816F004FA154B2F68DA
:108D4000B3F91060134801940A25711C09B200950B
:108D5000092302220EF0C6FB0E482A463946032399
:108D6000074603364FF0011506824561438216F02F
:108D700099FB7C6107B0BDE8F08F504604F036F9EE
:108D80006DE70C200B601AF08BFBFDF761FE0446CB
:108D90000FE700BFDC770020986700200200030087
:108DA000886700203C600020387A0020386000206E
:108DB00018C30400746700207867002036000300A1
:108DC0003CC3040020C3040030C3040028C30400D3
:108DD000556B00208C67002000250C23CDE9003561
:108DE0003D481623012234210EF07CFB3A483B4BD0
:108DF00003614FF001122146426104460A2216F037
:108E000049FB3749204616F09DF9656107B0BDE87A
:108E1000F08F314FB7F9104000250A26611CCDE9CB
:108E20000065384609B2092302220EF05BFB0334C9
:108E3000324603234FF00116294638463C827E61B4
:108E40007B8216F02FFB7D6194E7234BB3F9104032
:108E50000A27013400261D46184621B2CDE90076C6
:108E6000A4B2092302220EF03DFB4FF003083A465C
:108E70004FF00113A71C012128462F826B61A5F832
:108E80001280073416F00EFB2C826E61A5F812805A
:108E900028E7114BB3F9105001941E460A270135FB
:108EA00029B20097ADB20923022230460EF01AFB18
:108EB0004FF003083A464FF00113AF1C21463046ED
:108EC00037827361A6F81280073516F0EBFA358207
:108ED000A6F81280746100E7DC77002036000300FA
:108EE0003CC3040030B583B017F05AF8404B1B6800
:108EF00098423BD23F4C2378002B37D03E4D2B6815
:108F000063B117F04DF82B68984207D23B4A2168AD
:108F1000914252D0394A2168914229D0384C1625C5
:108F20000023CDE90053204678231D2204210EF0B2
:108F3000D9FA0123204601931D22042100957823AC
:108F40000EF018FB4FF0011363612A4820F09BFAE2
:108F5000284900EB4000C0F1400324222046238230
:108F6000628203B0BDE8304016F0ECB803B030BD0B
:108F70006168244A9142D1D1234A24491068884229
:108F8000CCD1918844F245329142C7D19BB117F0C0
:108F900007F82C68A0420ED217F002F8201A10F53C
:108FA0007A7F00F2E7331AD90121102003B0BDE81F
:108FB0003040FDF7E3B90021F7E7124A61689142BA
:108FC000A8D102F12852A168A2F56E02073A914297
:108FD000A0D1A18944F2435291429BD1D6E70C49DA
:108FE000A1FB032399096329A8BF6321DDE700BF23
:108FF0006C7800205878002040790020424C4F4384
:10900000DC7700204B45442060780020333020532B
:10901000D34D62102DE9F04F814C824E89B0302340
:1090200001271022CDE900372046802300214FF090
:109030000118C4F814800EF09DFA7B4B7B49236124
:10904000204616F07FF80A223168204616F0FCF917
:10905000774A336815689D4231DC0A23CDE9003731
:109060001F227C23022120460EF03CFA714B4FF068
:10907000000AC4E9043A002D6DD0336805F1FF39C8
:1090800099451FDB32686B1C934218DC6A4F4FF026
:109090000111C4E90471002B00F0B580954264DB36
:1090A0003268AB1C9A420ADB64484FF00111C4E9F4
:1090B0000401002B00F0AC800135AA4226DC09B087
:1090C000BDE8F08FDFF88881C9EBC90108EB8101A9
:1090D00002AF0731384616F0C5FE049B0E2B4FEA4F
:1090E000C90B66D8ABEB090908EB890839464C482F
:1090F00016F004F8524B98F90610494823610A22E9
:1091000016F0D0F9384616F0C7FEBBE7DFF840810D
:10911000C5EBC50108EB810102AF0731384616F0F7
:10912000A1FE049B0E2B4FEAC5065ED8751B08EB0B
:10913000850839463A4815F0E1FF424B98F9061088
:10914000374823610A2216F0ADF9384616F0A4FE1E
:1091500009B0BDE8F08F3C49204616F091F833681D
:10916000002BACDD344BC4E90438DFF8E480C5EBF8
:10917000C50108EB810102AF0731384616F072FED7
:10918000049B0E2B4FEAC50921D8A9EB050908EB72
:1091900089083946224815F0B1FF2C4B98F9061082
:1091A0001F4823610A2216F07DF9384616F074FE36
:1091B00076E7524605A80E23394616F0C1FE05A9EA
:1091C000384616F071FE05A816F066FE8AE705A877
:1091D0000E230022394616F0B3FE05A9384616F0D4
:1091E00063FE05A816F058FECFE705A80E2300225F
:1091F000394616F0A5FE05A9384616F055FE05A815
:1092000016F04AFE92E71049054816F039F847E78C
:109210000D49034816F034F809B0BDE8F08F00BFDF
:10922000DC770020487800200500140050C30400BB
:10923000BC7900200500200005002A00050034004C
:109240006400200064003400B8BB040064002A00FD
:10925000647200202DE9F041374B1B7882B043B196
:1092600016F09EFE354B1A6841F28833801A9842F8
:1092700045D8334C334F20460FF0F6FD4FF0010830
:1092800000220E231146CDE90038204680230EF03F
:1092900029F900252C4B2D4923612046656115F0E5
:1092A000FFFE2B4B2B492361204615F0F9FE30239E
:1092B0002946009310228023CDF8048020460EF02A
:1092C00059F9254B254D1A783E68254B002A18BFC1
:1092D0001D46D6B14FF001136361224B2249184855
:1092E000236115F0CDFF3B68012B19D04FF001131E
:1092F00063611E4B12482361294615F0C1FF1048D7
:1093000002B0BDE8F0410FF0BFBD0D23CDE900383C
:1093100016227C23022120460EF0E4F86661DCE789
:109320000D22CDE9002306487C23222202210EF0E3
:10933000D9F800236361DCE7506A00204C6A002002
:10934000DC770020A87900200200030078C3040025
:109350005400030084C30400556B002058C304006C
:1093600068C3040005001800B8BB04000500240011
:10937000F0B5264C83B0054620460FF075FD012759
:1093800000220E231146CDE90037204680230EF03F
:10939000A9F800263946204666610EF0D3FD1C4B25
:1093A0001C492361204615F07BFE39464FF001131E
:1093B000204663610EF0C6FD284620F064F8A0EB5D
:1093C0008003BB4013F1810FA4BF803343F34F06EA
:1093D00029461C230D486382268215F0B3FE102314
:1093E0000122CDE9003209483022802300210EF00D
:1093F000C1F8094B09490548236115F051FE03489E
:1094000003B0BDE8F0400FF03FBD00BFDC770020A7
:109410000A0003008CC3040012003400A0C304003F
:109420002DE9F04F2DED028BB74C8BB00127814613
:109430004FF00E0A1FFA89F502B2CDE900A72046C7
:10944000802300210EF096F8C5F133031BB205F11D
:109450000D02CDE9003712B2204680230021AE1C58
:109460000EF088F833B208EE103A0A2318EE102AEC
:10947000019720460093022105F103080EF032F80F
:109480000FFA88F704224FF0000BA04922822046F1
:10949000C4F814B0678215F055FE9D48A4F810A0DA
:1094A000678205F08FFF28B1DFF8B0A29AF800209C
:1094B000022A49D0974E33684FF001126261002BA7
:1094C00035D1954E737D2BB305F1140324226382AD
:1094D000924922828C4815F035FEB11D05A816F080
:1094E000C1FC079B002B00F0088103EB43035B00EA
:1094F000C3F180035B10203505A923826582824871
:1095000015F0FCFD05A816F0C7FC0BB0BDEC028BF6
:10951000BDE8F08F1A351A2381497B486582238282
:1095200015F010FE0BB0BDEC028BBDE8F08F16F00D
:1095300037FD33689842C4D2002B40F0F4810021FB
:109540004846FCF71BFFEDE702A80AF1010116F0FF
:1095500089FC049A0A2A4FF00A0300F25D824FF058
:1095600001196948C4F8149002A915F0C7FD6D4BA4
:109570001B78002B00F04981674B5A7D42B3197864
:109580009AF81020914223D159789AF811209142EB
:109590001ED199789AF81220914219D1D9789AF867
:1095A0001320914214D119799AF8142091420FD1C5
:1095B0005A799AF815309A420AD12E2205F11A03E7
:1095C00059495148C4F814902282638215F068FD0D
:1095D00016F0E6FC554B1B68C01A632840F2318236
:1095E00016F0DEFC524B1B68C01A632840F2218241
:1095F0004748002105F010FF814618B103F0AAFC8E
:1096000000285DD14B4BD3ED007A4B4BD3F8009043
:10961000B9F1060F40F3B2809FED487AF4EEC77AB5
:10962000F1EE10FA00F37B819FED4E7AF4EEC77AEB
:10963000F1EE10FA40F3838205221A6091464FF052
:10964000010A05F108023048CDF800A012B2032348
:1096500059210EF0ABFDD14500F38A81384B1D78BE
:10966000002D00F0C381282D00F36E81142D00F32E
:109670000182344A13780133DBB21D2B137000F2E0
:10968000F181314B1B78002B40F007824FF0011322
:10969000092D636100F36A816C2329461A482382ED
:1096A0000A22678215F0FEFE2849174815F04AFD88
:1096B00002A816F0F1FB0BB0BDEC028BBDE8F08FF9
:1096C000484603F093FC00F17703DBB2762B194B8D
:1096D00088BFD3ED007A98D89FED1D7AD3ED007A3C
:1096E000DFED1C6A67EE877A07EE100AB8EEC77ADC
:1096F000E7EE267AC3ED007A87E7174905A816F04A
:10970000F5FB079BF1E600BFDC770020F0D70400F3
:10971000387A002040790020386B0020E0C3040034
:10972000F4C304005D790020D4C3040068790020EC
:10973000747900201460002084670020000068C253
:10974000B879002080670020486A00203CC30400EC
:109750009A99193FCDCCCC3EECC304001860002090
:1097600000005CC2000080C200008CC2000098C2F1
:109770000000A4C20000B6C20000BCC2B9F1000FD4
:10978000C0F2AA80B9F1050F40F093811FED0C7A69
:10979000F4EEC77AF1EE10FA00F3C1801FED0F7AF4
:1097A000F4EEC77AF1EE10FA3FF749AF1FED127AE7
:1097B000F4EEC77AF1EE10FA00F3BA811FED157AD4
:1097C000F4EEC77AF1EE10FA00F3A5801FED187AD7
:1097D000F4EEC77AF1EE10FA00F3A6811FED1B7AC2
:1097E000B4EEE77AF1EE10FA00F153811FED1E7A24
:1097F000F4EEC77AF1EE10FA40F29E81C3F80090C1
:10980000B9F1000F3FF42AAF19E7DFF87C93D9F8DC
:109810000030002B3FF4DCAE16F0C2FBD9F800306C
:1098200047F23052C31A93423FF6D2AECD49CE4AE8
:10983000CE484FF0640909FB03F9A1FB09194FF069
:10984000010A4FEA5939A2FB0323052105F112024F
:10985000B9F1640F4FEA931CCDE9001A12B24FF030
:1098600066034FF00D0114BFCB464FF0630BCCF1F4
:109870001E060DF07FFE05F1130203210FFA89F396
:109880000091BA48CDF804A012B20E210DF02AFEC4
:109890005B46B74A0096142105A81FF061FD05A894
:1098A0001FF0F1FD00EB400000FA0AF3C3F1800362
:1098B00043FA0AF305F11A0205A923826282AB4832
:1098C00015F040FC082205F12403AA492282638294
:1098D000A64815F0E5FB7BE69FEDA77AF4EEC77A84
:1098E000F1EE10FA1BDC9FEDA97AF4EEC77AF1EEE7
:1098F00010FA3FF7A1AE9FEDA77AF4EEC77AF1EE2A
:1099000010FA00F315819FEDA57AF4EEC77AF1EE17
:1099100010FA40F3828103221A6091468FE60622F4
:109920001A6091468BE616F03BFB3468A042BFF408
:1099300006AE16F035FB201A10F57A7F00F2E731FB
:1099400040F288800121FBE501210A23CDE90031A5
:1099500018EE102A1823854866210DF0C3FD002358
:10996000632D6361C8BF67233FF797AE692394E611
:10997000EA1D7E48CDF800A012B204235B210EF050
:1099800015FCB9F1020F7FF769AEAA1D7748CDF833
:1099900000A012B205235D210EF008FCB9F1030FFF
:1099A0007FF75CAE6A1D7148CDF800A012B20623A5
:1099B0005F210EF0FBFBB9F1040F7FF74FAE2A1DBC
:1099C0006A48CDF800A012B2072361210EF0EEFB29
:1099D000B9F1060F7FF442AE6448CDF800A00FFA4B
:1099E00088F2082363210EF0E1FB37E601210A2308
:1099F000CDE9003118EE102A5C48182366210DF0DD
:109A0000B9FD4FF0011269235C49678262612382CC
:109A1000564815F097FB4BE65A4605A802A916F0E2
:109A20008FFA05A902A816F03FFA05A816F034FA35
:109A300095E54B231F21678223824C480EF0DCF909
:109A4000D6E551222B1D1E212282638247480EF04B
:109A5000D3F9C5E5444BA3FB013189096329A8BFAC
:109A600063216DE546490B78002083F001030B70FC
:109A7000107008E601210A23CDE9003118EE102A02
:109A800018233A4866210DF075FD4FF0011363610C
:109A90006CE701221A609146D1E501210A23CDE944
:109AA000003118EE102A3148182366210DF062FDAE
:109AB000ECE59FED317AF4EEC77AF1EE10FA3FF75C
:109AC0002EAFB9F1040F75D19FED2E7AF4EEC77A5F
:109AD000F1EE10FA3FF7B0AD9FED2E7AF4EEC77AB3
:109AE000F1EE10FA3FF7ABAD9FED2C7AF4EEC77AAA
:109AF000F1EE10FA3FF70FAF9FED2B7AF4EEC77A35
:109B0000F1EE10FA10DC9FED277AF4EEC77AF1EE51
:109B100010FABEDC9FED267AF4EEC77AF1EE10FA69
:109B20000AD904221A608AE502221A60914686E563
:109B300004221A60914682E500221A608EE59FEDAC
:109B4000157AF4EEC77AF1EE10FAF1DC9FED137A94
:109B5000F4EEC77AF1EE10FA3FF7DDAE4FF00609EA
:109B600034E600BF73B2E745D34D6210DC770020C6
:109B7000B0C30400C0C30400000068C2DCC304001A
:109B8000486A0020000074C2506B0020000080C2B0
:109B9000000086C200008CC2000092C2000098C281
:109BA00000009EC20000B6C20000A4C20000B0C205
:109BB0000000BCC21FED0B7AF4EEC77AF1EE10FA8A
:109BC0003FF73AADB9F1030F34D11FED0F7AF4EE40
:109BD000C77AF1EE10FAABDC1FED107AF4EEC77A1B
:109BE000F1EE10FA3FF797AE1FED117AF4EEC77A57
:109BF000F1EE10FA98DC1FED157AF4EEC77AF1EE6B
:109C000010FA3FF746AF1FED167AF4EEC77AF1EE81
:109C100010FA91D903221A6011E51FED1D7AF4EEB6
:109C2000C77AF1EE10FA3FF77FAF1FED207A4FF0C1
:109C30000009D5E51FED297AF4EEC77AF1EE10FAA6
:109C40003FF776AFB9F1020F22D11FED2D7AF4EE76
:109C5000C77AF1EE10FA3FF75EAE1FED2D7AF4EE03
:109C6000C77AF1EE10FA3FF75FAF1FED327AF4EEEC
:109C7000C77AF1EE10FA3FF70CAF1FED337AF4EE2E
:109C8000C77AF1EE10FA7FF657AF02221A60D6E4D7
:109C90001FED3E7AF4EEC77AF1EE10FA3FF73BAED5
:109CA000B9F1010F1AD11FED427AF4EEC77AF1EE45
:109CB00010FA3FF739AF1FED457AF4EEC77AF1EEAF
:109CC00010FA3FF7E6AE1FED467AF4EEC77AF1EEF2
:109CD00010FA7FF631AFC3F80090B0E41FED4E7A72
:109CE000F4EEC77AF1EE10FA3FF71EAFB9F1000FAC
:109CF0007FF474AD1FED537AF4EEC77AF1EE10FAEB
:109D00003FF7C7AE1FED567AF4EEC77AF1EE10FAC0
:109D10007FF612AFC3F80090A0E400BF2DE9F04F2A
:109D2000CF4B2DED028B1B688B428FB00C468346C8
:109D300054D00E230127CDE9003702B28023C94851
:109D4000029700210DF016FC00261FFA8BFBC54D73
:109D5000029B01930BF102080FFA88F34FF00A0AF5
:109D60001A460BF103072846022108EE103A4FF07D
:109D700000095346CDF800A066F30F0905970DF0D2
:109D8000B1FB39B204230F4666F31F4952460391D3
:109D90002846214604EB44062B82C5F814906F82B6
:109DA000C4EBC60615F07EFBAF4B6F829B5D0E22A7
:109DB0002A82022B4FEA4402049225D00299002203
:109DC00061F30F0261F31F426A61A3B1012B00F03E
:109DD000FE800FB0BDEC028BBDE8F08F0E23012694
:109DE000CDE9003602B280239E4800210DF07AFBB7
:109DF00000230293A9E79D49284615F0A3F90FB067
:109E0000BDEC028BBDE8F08F974B711C08A819447C
:109E100008EE900A16F026F80A9B534500F20881D6
:109E2000029A9048002362F30F0362F31F4318EE77
:109E3000901A07936B6115F061F916F0B1F88C4B2D
:109E400053F82430C01A632840F2E88016F0A8F8CE
:109E5000884B53F82430C01A632840F2D680824BD6
:109E6000069410364FF0000833444446DFF83CA215
:109E7000029F984602E0142C00F01A81A1B25046CD
:109E800005F0CAFA013406460028F4D003F062F85F
:109E90000028F0D031460BA803F06CF898F80010B9
:109EA0009DF82D209142E6D198F801109DF82E20C2
:109EB0009142E0D198F802109DF82F209142DAD11A
:109EC00098F803109DF830209142D4D198F80410EE
:109ED0009DF831209142CED198F805109DF832209E
:109EE0009142C8D13046069C029703F07FF806469F
:109EF00016F056F806F17703DBB2762B00F2A98054
:109F00005D4A52F82430C31AC82B40F2A2805B4B42
:109F10009FED5B6ADFED5B6A42F8240003EB84038C
:109F2000D3ED007A07EE106A67EE867AB8EEC77A4C
:109F3000E7EE267AC3ED007A534B53F82460062EE1
:109F400000F3C080002EC0F2E281052E00F089816E
:109F50009FED4E7AF4EEC77AF1EE10FA00F3FF812E
:109F6000042E40F06D829FED4A7AF4EEC77AF1EE4E
:109F700010FA00F3B7809FED477AF4EEC77AF1EE5E
:109F800010FA00F3B2809FED447AF4EEC77AF1EE56
:109F900010FA00F3F9819FED417AF4EEC77AF1EE01
:109FA00010FA00F3F9819FED3E7AF4EEC77AF1EEF4
:109FB00010FA00F3ED819FED3B7AF4EEC77AF1EEF3
:109FC00010FA40F23982042243F824208DE0364909
:109FD000284615F0B7F8244B711C08A8194408EE60
:109FE000900A15F03FFF0A9B0A2B00F2BC8118EE85
:109FF000901A1C4815F082F818EE900A15F04CFFE4
:10A000000FB0BDEC028BBDE8F08F039A15486A8251
:10A010004B231F212B820DF0EFFE20E751220BF185
:10A0200004031E210F482A826B820DF0E5FE0DE726
:10A0300018EE901A53460BA8002215F081FF0BABC7
:10A0400018EE900A194615F02FFF0BA815F024FF03
:10A05000E6E60A4B03EB8403D3ED007A6CE700BF1E
:10A0600030600020DC7700203C60002008C4040041
:10A0700068790020747900202464002004600020A6
:10A080006666663FCDCCCC3D30640020000068C2DF
:10A09000000074C200008CC2000098C20000A4C27C
:10A0A0000000B6C20000BCC20CC40400387A002014
:10A0B000069C029715F074FFBB4B03EB8403D3EDB2
:10A0C000007A39E79FEDB97AF4EEC77AF1EE10FA2B
:10A0D00000F345819FEDC07AF4EEC77AF1EE10FAF5
:10A0E00040F3F980052643F82460029B00930BF1AE
:10A0F0000802AF4812B2032359210EF057F8012E7F
:10A1000044DC049B2344C4EBC304AA4B1C4494F9D1
:10A110001640002C1DDD282C6EDC142C00F3EB8087
:10A12000A54A13780133DBB21D2B137040F29680E1
:10A13000A2490B78002083F001030B701070002BF4
:10A1400040F0D980079B6B61092CCCBF69236C233D
:10A1500062E09B4B029A1B7895480192632B4FF06B
:10A160000A03009318EE102A4FF018034FF066010F
:10A1700067D90DF0B7F9039A92498D48C5F8149044
:10A180006A236A822B8214F0DDFF51E0029F884827
:10A1900000970BF1070212B204235B210EF006F8C0
:10A1A000022EAEDD0BF106028148009712B20523A4
:10A1B0005D210DF0FBFF032EA3DD0BF105027C48B2
:10A1C000009712B206235F210DF0F0FF042E98DDF8
:10A1D0000BF104027648009712B2072361210DF0BB
:10A1E000E5FF062E8DD1BDF9142071480097082394
:10A1F00063210DF0DBFF84E7029A01920A230093AA
:10A2000018EE102A6A48182366210DF06BF9632CAA
:10A21000C5F8149098DD672321462B826448039B80
:10A220006B820A2215F03EF96749614814F08AFFF3
:10A2300018EE900A15F030FE0FB0BDEC028BBDE8B1
:10A24000F08F0DF097F9079A6A616923039A5F49C5
:10A2500057486A822B8214F075FFE9E7574B1B7849
:10A260006DE79FED5B7AF4EEC77AF1EE10FA76DCDB
:10A270009FED597AF4EEC77AF1EE10FA3FF735AF59
:10A280009FED587AF4EEC77AF1EE10FA00F3888069
:10A290009FED537AF4EEC77AF1EE10FA74DC9FED7D
:10A2A000547AF4EEC77AF1EE10FA75DC9FED4F7A2E
:10A2B000F4EEC77AF1EE10FA6ADC9FED4F7AF4EE15
:10A2C000C77AF1EE10FA40F2B78043F82460002E0E
:10A2D0003FF417AF09E79FED437AF4EEC77AF1EE4A
:10A2E00010FA5DDC9FED3E7AF4EEC77AF1EE10FADB
:10A2F0004ADC0626D3E7029A01920A23009318EE5D
:10A30000102A2B48182366210DF034F91AE79FED27
:10A31000277AF4EEC77AF1EE10FA20DC9FED2E7A60
:10A32000F4EEC77AF1EE10FA3FF7DCAE9FED2D7A2E
:10A33000F4EEC77AF1EE10FA32DC9FED297AF4EEF2
:10A34000C77AF1EE10FA1FDC9FED297AF4EEC77A96
:10A35000F1EE10FA20DC9FED277A0026A8E706260A
:10A3600043F82460C1E618EE901A53460BA8002269
:10A3700015F0E6FD0BAB18EE900A194615F094FDAA
:10A380000BA815F089FD32E6032643F82460ACE6FD
:10A39000012643F82460A8E6022643F82460A4E6D8
:10A3A000042643F82460A0E604600020000068C290
:10A3B000DC7700203C60002020640020486A0020F8
:10A3C000B879002004C404003CC30400DCC30400CA
:10A3D00000005CC200009EC2000080C2000086C275
:10A3E000000098C200008CC2000092C20000B6C2F9
:10A3F0000000A4C20000B0C20000BCC21FED087A79
:10A40000F4EEC77AF1EE10FABEDC012E76D11FED24
:10A410000F7AF4EEC77AF1EE10FABDDC1FED0D7A7B
:10A42000F4EEC77AF1EE10FAB2DC1FED0D7AF4EE1D
:10A43000C77AF1EE10FAB4D8002243F8242060E67F
:10A440001FED1B7AF4EEC77AF1EE10FA3FF74AAE31
:10A45000032E26D11FED1F7AF4EEC77AF1EE10FA23
:10A460009EDC1FED217AF4EEC77AF1EE10FA8BDC58
:10A470001FED217AF4EEC77AF1EE10FA8CDC1FEDB5
:10A48000257AF4EEC77AF1EE10FA81DC1FED267A18
:10A49000F4EEC77AF1EE10FACED9032243F8242065
:10A4A00023E61FED307AF4EEC77AF1EE10FA3FF7AB
:10A4B00077AF022EA2D11FED347AF4EEC77AF1EE17
:10A4C00010FA3FF761AF1FED367AF4EEC77AF1EE7E
:10A4D00010FA3FF761AF1FED3B7AF4EEC77AF1EE69
:10A4E00010FA3FF755AF1FED3C7AF4EEC77AF1EE64
:10A4F00010FAA1D9022243F82420F6E51FED447A90
:10A50000F4EEC77AF1EE10FA3FF746AF002E7FF473
:10A51000CDAE1FED487AF4EEC77AF1EE10FA3FF7B0
:10A5200037AF1FED4B7AF4EEC77AF1EE10FA83D90C
:10A5300043F82460E5E500BF2DE9F047C04C82B048
:10A5400015F02EFD20460EF08FFC204601210DF067
:10A55000F9FCBC4B1A78032A00F02481BA4D2B7801
:10A56000012B0FD0022A4AD0002A00F0DB80012AFA
:10A5700000F0AC81FEF7B6FCB14802B0BDE8F04790
:10A580000EF082BC042A00F0C880B04804F01AFF24
:10A59000002840F0858100220E2301251146CDE9D7
:10A5A0000035A74880230CF09DFFA94B0022C4E989
:10A5B0000432FEF793FA09F0F1FC002800F02D8137
:10A5C000A44D95F90030082B00F013810C230026D0
:10A5D000CDE9003601222A23994855210CF0CAFF03
:10A5E0009D4A95F90030C4E90426002B00F09F81B4
:10A5F000042B00F0AB811020FEF712FFBAE7DFF862
:10A600009C8215F0CDFCD8F800A0BAF1000F0746E7
:10A6100023DD924E002540F6B83902E0013555455C
:10A620001BDAC5EBC50106EB810089008369FB1AC3
:10A630004B45F3D9AAEB0503C3EBC3030AF1FF3A79
:10A640009A001C315545A2F11C02314401DA1DF07B
:10A65000CFFF5545C8F800A0E3DBFCF7EBFE804BCD
:10A66000804A1B78D8F8000010602BB3002823DD47
:10A670007D4A7A4B15785678977892F803C092F80D
:10A6800004E092F8058000221978A94240F0838006
:10A690005978B1427FD19978B9427CD1D978614556
:10A6A00079D11979714576D15979414573D16F497D
:10A6B0006F4B01320A601A60002201210E23CDE99E
:10A6C00000315F48114680230CF00CFF604B694954
:10A6D0005B480026C4E9043614F034FDB4F9105088
:10A6E000654B0196D3F8008055480A27023529B2F8
:10A6F0000097092302220CF0F5FE02353A460323A7
:10A7000041464FF001174E4825826761638214F07D
:10A71000C9FE6661FEF77EFC2CE702B0BDE8F0479B
:10A72000FEF776B90E23012611462046CDE9003604
:10A7300080230CF0D7FEFEF7D1F909F02FFC00289A
:10A7400000F0DB80434E96F90030082B00F0C1800A
:10A750000C230027CDE9003701222A233848552150
:10A760000CF008FF3C4A96F90030C4E90427002B9E
:10A7700000F0E280042B00F0EE802978B9B91020B7
:10A78000FFF7CCFA01212120FFF7C8FA022132207D
:10A79000FFF7C4FAEEE60132904203F11C037FF4A6
:10A7A00073AF89E702B0BDE8F047FEF753BD302331
:10A7B0000122CDE9003222488023102200210CF032
:10A7C000D9FE224804F0FEFD002800F0A9802B4BA2
:10A7D0002B491B48236114F0B5FC2A4B2A499A687F
:10A7E0002161002A00F0AD801968154814F0AAFC18
:10A7F000C0E60C230022CDE9003211482A230122B1
:10A8000055210CF06FFE214B21490D484FF00112EC
:10A81000C4E9043214F096FCEDE60C2301902A46BC
:10A820000093074809234B210CF05CFE194B1A4991
:10A8300003484FF00112C4E9043214F083FCBFE670
:10A84000DC770020546B0020556B0020387A002004
:10A85000020003001D6800205900030064720020FC
:10A860005E7900204878002080790020BC790020A3
:10A870005478002034C404003860002008001C0014
:10A8800044C40400AC79002008002A005C000300E6
:10A890001CC404004D00030018C40400586B0020C1
:10A8A0002F48002104F0B8FD054600283FF473AEA0
:10A8B00002F050FB00283FF46EAE284602F096FBF3
:10A8C00043063FF468AEFBF7D7FF64E6FEF71AF8DD
:10A8D00050E60C230022CDE9003222482A2301222F
:10A8E00055210CF0FFFD204B20491E484FF001126E
:10A8F000C4E9043214F026FC3FE70C2301903246F1
:10A900000093204609234B210CF0ECFD184B19490C
:10A9100023614FF001122046626114F013FC11E72D
:10A92000154B16490F48236114F0BAFB22E614496F
:10A930000C4814F007FC5EE611490A4814F002FCCA
:10A940001BE71049074814F0FDFB13E60E490548C4
:10A9500014F0F8FB4FE60C49024814F0F3FB0CE747
:10A96000387A0020DC7700205C0003001CC404005F
:10A970004D00030018C4040014002600F4C30400B2
:10A9800024C4040038C004002CC4040010B51C49C1
:10A990009AB004461B480EF045FE58BB01A8184A61
:10A9A000184901230EF034FE01A80FF05FF9D8B169
:10A9B00001220DF1030101A88DF803400EF0C0FE45
:10A9C00001A80EF037FF01A80FF024F90E490F4837
:10A9D00014F0B8FB0E4B0F490C48002C18BF194659
:10A9E00014F04EFC1AB010BD0B49084814F048FC96
:10A9F0001AB010BD024903480EF088FECEE700BF32
:10AA0000E8BE0400B49800204CC40400B8820020C2
:10AA100020C3040018C3040064C404002DE9F04FEF
:10AA2000044685B0092018F0E7FDF8B9AF4B1A7855
:10AA3000002A55D0AE4B1D6841F28833651B9D42FC
:10AA400040F29080AB4EA6FB0536B609C6F108066B
:10AA5000002E61DCB5F5FA5F40F28480A64B1A78CF
:10AA6000002A00F0C58205B0BDE8F08F9F4D2B781D
:10AA7000002BF8D09E4B1B68E31AA3F59C52093AB1
:10AA800040F6B7318A4234D99C4A1278002A3BD129
:10AA9000322B39D99A4E9B4A33781460032B7BD0E2
:10AAA000002B40F0A180984B1A78002A40F0548186
:10AAB00096490B68581C00F00C8203EB4302944843
:10AAC0009449C3EBC2020B60825C002A40F0F9811A
:10AAD000914892490023022203600B60327013E018
:10AAE000834986480C6001210270197005B0BDE8E9
:10AAF000F08F8B498B4814F053FB8149834B002026
:10AB00004FF0FF3208701A60002332202B7005B01E
:10AB1000BDE8F04F15F050BA834F38460EF0A4F957
:10AB2000384601210DF00EFA804B3B614FF00112C7
:10AB30007A617F49384614F0B3FA7E4B3B610A22B2
:10AB40003146384614F0AEFC384601210DF0FAF9D2
:10AB5000794B7A493B61384614F0A2FA38460EF038
:10AB600093F977E7654B1A78002A7FF47CAF624A45
:10AB70001278002A7FF477AFB5F5966F7FF673AF42
:10AB800060486F4904605E4D64480A6003240121F7
:10AB90002C700260197066E7694B1C68002C00F08D
:10ABA0009B80012CB0D1584B5F4D1878B0FA80F0E3
:10ABB0004009FFF7EBFE28460EF056F921462846DD
:10ABC0000DF0C0F95F4B60492B614FF001126A61D3
:10ABD000284614F065FA28460EF056F95B495148AC
:10ABE00014F0DEFAFBF76EFB042B00F0D280022B90
:10ABF00000F01C81012B87D1554B1B68002B00F006
:10AC00005781012B00F08C81022B7FF47DAFDFF8A0
:10AC100004913F4FDFF83C814FF0000B4FF0170AD3
:10AC200004E00BF1010BBBF1140F36D01FFA8BF1CE
:10AC3000404604F0F1FB04460028F2D002F08AF905
:10AC40000028EED0214602A802F094F9D9F800308D
:10AC50009DF809100AFB03F31033FA18FB5C8B42D2
:10AC6000DFD151789DF80A309942DAD191789DF878
:10AC70000B309942D5D1D1789DF80C309942D0D182
:10AC800011799DF80D309942CBD152799DF80E3053
:10AC90009A42C6D1204602F095F9D9F80020172330
:10ACA00003FB02F3002403F110015A1CFC54781832
:10ACB000BB187C508480BC509C605C60C3F80B4027
:10ACC000FCF746FF1549114A34704FF0FF330C6012
:10ACD0001360C9F8003017E70C49104A00234FF001
:10ACE000FF300860136033700EE700BF506A002029
:10ACF0004C6A0020D34D62103D6400203C6400206B
:10AD0000546B002064790020556B002030600020D7
:10AD10003C60002038600020BC790020547800207E
:10AD200000C50400B8820020DC7700200400120077
:10AD30009CC404003D0020000D002E00B4C404009B
:10AD4000A879002025001E001CC5040028C50400A9
:10AD5000C8790020387A0020B84C237823B9B84F3E
:10AD60003B68002B40F0B780B64B5B7D2BB9B648F3
:10AD700004F028FB002800F0C780B44CB44AB54961
:10AD8000B5480023236013600423337014F008FADD
:10AD9000BAE6AE4B1B68002B9ED0012B7FF4B4AEFD
:10ADA000AE4BA84AA548A64992F815800024C3F8DE
:10ADB00009409C821C61C3F80140C3F80540DC6077
:10ADC0001C70146094809471547504700C60FCF7CE
:10ADD000BFFEA349A04814F0E3F9A24AA24B9A4847
:10ADE0000421117001221A7004F078FA964804F0D8
:10ADF000E9FA002840F0AD801322B8F1000F00F00E
:10AE0000A3809A499A481EF069FB994B0024DC7490
:10AE100015F0C6F88E4A9749974B146000F5FA6012
:10AE20004FF0FF32347008601A606DE6934B1C6877
:10AE3000002C3DD0924A1278002A3FF465AE013CC6
:10AE40001C23904A904903FB04F30878D75C87429F
:10AE500013447FF459AE58784A7890427FF454AE48
:10AE600098788A7890427FF44FAEC878DA7890422A
:10AE70007FF44AAE08791A7990427FF445AE4A7958
:10AE80005B799A427FF440AE804802F0E7FD64208F
:10AE900015F092F87E4B7F48242101FB043101F02C
:10AEA000B5F8754A4FF0FF310023116033702BE67F
:10AEB000714879494FF0FF33002203600B60327014
:10AEC00022E6764862490023012203600B6032705B
:10AED0001AE60A6018E6664E71495F4814F060F998
:10AEE0004FF0000801236F49237013223046C7F842
:10AEF00000801EF0F3FA86F8138015F051F85D4BD0
:10AF000000F2DC501860FFE56749594813221EF033
:10AF1000E5FA15F045F8574B00F2DC501860F3E500
:10AF20004B4A5749554C59480023136002220B7075
:10AF30002360327002F068FD014600287FF4E4AD22
:10AF4000524802F069FDDFE5584949481EF0C6FA4B
:10AF50005BE73D48214604F05FFA074600283FF4CE
:10AF60004BAF0DF108094846394602F003F8504B43
:10AF7000B8F1000F40F0C080BDF80D20DDF80900E9
:10AF80009A80186015F00CF84A4C4B4A4B4900F572
:10AF9000EA433033136020460E221EF09FFA2378D6
:10AFA00084F80E80002B00F0998045492A48DFF88C
:10AFB00028B1DFF8A4A014F073F89DF80E1026480D
:10AFC000102214F067FA05245946504614F0BAF8D6
:10AFD00019F804101022504614F05CFA013CF3D129
:10AFE00038491D4814F0DCF8384601F0EBFF03E760
:10AFF000354C3649184801251D7014F0D1F820460B
:10B000000DF032FF294620460CF09CFF304B2361A7
:10B010004FF0011262612F49204614F041F820469A
:10B020000DF032FF4FF4FA7014F0C6FF4FF080437A
:10B030005722C3F81C25FBF745F900BF5D790020B6
:10B04000506B0020386B0020387A0020546A0020B2
:10B050005478002090C50400B88200203C60002095
:10B06000BCC504001D680020566B002040C60400CB
:10B07000587800206C78002030600020BC790020D7
:10B080005E7900206472002080790020DC8000203E
:10B090005C6B0020487A002038600020C8790020CE
:10B0A00050C5040080C50400B0C5040040C30400BE
:10B0B000447900204C79002040790020196000205C
:10B0C000E4C50400F8C50400DC770020C8C404000F
:10B0D00011001C00ECC4040038C304009DF80920D2
:10B0E0009DF80A3001920093094A9DF80B302046E2
:10B0F0000F211EF035F958E70649074A0C601C601D
:10B1000006499C800648147014F04AF86CE700BFAA
:10B1100010BC0400407900204C79002004C60400D3
:10B12000B88200202DE9F04F5C4D2B78012B85B0C3
:10B1300000F0A4805A4B1C78A4F10204B4FA84F401
:10B14000640908F02BFF00B96CB9564C01E014F00B
:10B1500065FA204614F05AFA03462046002BF6D131
:10B1600005B0BDE8F08F14F01BFF4E4CDFF84C81AA
:10B1700060F07F070646FFB2204614F047FA002829
:10B18000EED0204614F046FA0206C3B20FD4F72BD5
:10B1900052D8204614F042FA204614F037FA00281C
:10B1A000DED0204614F036FA0206C3B2EFD53E4A8E
:10B1B000F72B166040D800F0E000C02820460CBFF6
:10B1C0004FF0020B4FF0030B14F020FA5845C7DB89
:10B1D000364B00221B7B8DF804300DF10409ADF8CD
:10B1E00005200BEB090A204614F018FA09F8010BA8
:10B1F000CA45F8D19DF8043003F0F002902A2FD010
:10B20000802A30D09DF806209DF8051028788DF80A
:10B210000A3001284FF080038DF80B108DF80C20B8
:10B220008DF809708DF808300BF1020202A913D0D5
:10B23000404601F05BFC9FE7204614F0EFF92B78C5
:10B240008DF80A008022012B8DF808208DF80970F6
:10B250004FF0030202A9EBD1154801F0ABFA8BE7DE
:10B260009DF806207AB99DF80510124A505C002816
:10B2700082D0002050549DF80620C7E70E4804F005
:10B28000A1F804465DE79DF805100A4810F801C0D2
:10B2900094453FF471AF4254B8E700BF556B0020AE
:10B2A0003C60002060A9002068790020DCC7040011
:10B2B000C86A00209C670020387A0020346900208A
:10B2C00070B51C481C4D1D4E13F0B6FE14F068FE00
:10B2D000044608F063FE1A4B1A78824218BF1870B1
:10B2E000FFF720FF2046FCF737F92046FFF796FBD3
:10B2F0002B788BB93368E31A202B0DD82046FCF746
:10B30000DBF92046FCF728F80E4B1B78204663B982
:10B31000BDE87040FCF70ABBFFF70EF92B783460EC
:10B32000002BEBD000232B70E8E7BDE87040FDF761
:10B33000EFB900BF5CA90020707800201C640020D9
:10B340001C680020556B0020022A0DD9F0B52C4B4B
:10B35000984283B009D003F14004A04249D0803321
:10B36000984249D003B0F0BD704700200546032A3B
:10B370008C7839D0042ACE7839D00F798DF80540F1
:10B38000F72C40EA141388BF40F00F008DF804300A
:10B390008DF8066088BF8DF804008DF8077008F0FE
:10B3A000FDFD60B1174B186848B101A905F06AFBB3
:10B3B00014F0F6FD144B43F8250003B0F0BD002D4A
:10B3C000F6D11248214614F04DF9F72CF0D80F4869
:10B3D000314604F0E00414F045F9C02CE8D03946B9
:10B3E0000A4814F03FF9E3E700263746C6E700278E
:10B3F000C4E710200125BAE720200225B7E700BFE7
:10B40000346900201C7A00207479002060A9002093
:10B41000022B31D970B5032B947882B01AD0042B4B
:10B42000D57839D0167908F0B9FDC8B11B4B18682A
:10B43000B0B1F72C21D90F22002362F3070364F384
:10B440000F2365F3174366F31F6301A9019305F00A
:10B4500019FB0BE000252E4608F0A0FD0028E5D1E1
:10B460000F48214614F0FEF8F72C08D914F098FD87
:10B470000C4B186002B070BD70472209DCE7084829
:10B48000294604F0E00414F0EDF8C02CEED031466B
:10B49000034814F0E7F8E9E70026C4E71C7A002027
:10B4A00060A90020747900202DE9F04F6B4E3378AD
:10B4B00089B013B16A48FDF75BFF6A4813F0BCFD21
:10B4C000FA2014F079FD337813B16748FDF750FF87
:10B4D0006648042103F014FD642014F06DFD3378F8
:10B4E00013B16348FDF744FF032300931A465F48F6
:10B4F000F72103F0C1FC337813B15E48FDF738FF44
:10B50000584813F099FD4FF4167014F055FD554846
:10B5100013F092FD03220021544803F021FD51480D
:10B5200013F08AFD322014F047FD337813B15248EE
:10B53000FDF71EFF06221146504800F063FD5049FA
:10B540004A4803F0A3FE4F494C4800F095FD4E4990
:10B550004A4800F093FD337813B14C48FDF708FFDB
:10B56000502014F029FD4A4D4A4F4B4CDFF84CA1B6
:10B57000DFF84C914FF0000B484B5A46514602A859
:10B5800003EB8B181DF020FF32780BF1010B02A8A2
:10B590000AB1FDF7EDFE2A68284652689047294611
:10B5A000384601F081F9226820465268904701220E
:10B5B0004946404601F0EAFA2146404601F074F956
:10B5C000142014F0F9FCBBF1030F05F11C0507F181
:10B5D000400704F11C04CFD1314803F005F931488C
:10B5E000122101F09BF8112211462E4801F0AEF80D
:10B5F00001212C4801F098F82A4800F0A5FD14F02C
:10B60000CFFC29490A68821AB2F5C87F03461CD2CA
:10B61000264B1978234801F0ADF8337813B124484C
:10B62000FDF7A6FE2349244802F0F2F950222248F1
:10B63000C82102F0E3F901211F4802F0D7F92820C0
:10B6400014F0BAFC09B0BDE8F08F0C200B6017F0C5
:10B6500027FFFBF7FDF90146DCE700BF1864002077
:10B6600050C604005CA9002064C60400387A00209B
:10B670007CC604008CC604009CC60400487A0020E6
:10B68000ACC60400697C020059650200B4C604001F
:10B69000F469002034690020E06800202068002060
:10B6A0000C790020747800207467002078670020EF
:10B6B000D0C6040039720200DC800020C0C604003D
:10B6C0002163020038B56E4C237813B16D48FDF745
:10B6D0004FFE6D4813F0B0FCFA2014F06DFC237897
:10B6E00013B16A48FDF744FE6948042103F0D8FB12
:10B6F000642014F061FC237813B16648FDF738FE2E
:10B70000614813F099FC4FF4167014F055FC5E4834
:10B7100013F092FC002201215D4803F021FC5A48FD
:10B7200013F08AFC322014F047FC237813B15A48F6
:10B73000FDF71EFE06221146554802F025F957492D
:10B74000534802F02BF95649514802F029F955485F
:10B7500002F084F954494E4803F098FD4C48082102
:10B7600003F0BCFD237813B15048FDF701FE5048AB
:10B7700003F0DAFE4E48642103F0AAFE237813B1E9
:10B780004C48FDF7F5FD502014F016FC237813B15A
:10B790004948FDF7EDFD642014F00EFC474803F026
:10B7A00023F847481E2100F0B9FF112211464448F2
:10B7B00000F0CCFF4248142100F0B4FF414940485A
:10B7C000012200F0C9FF3E4800F0BEFC642014F0E6
:10B7D000F3FB3D4801F0FCFA3C493D48012201F0F1
:10B7E000D5F939493A4801F05FF8237813B139485F
:10B7F000FDF7BEFD384800F075FA0621364800F026
:10B8000049FA40F2C131344800F058FA2B49324825
:10B8100000F0FCF9314800F00FFA2F48012100F048
:10B8200087FA2D48F422202100F07EFA2A481E21B2
:10B8300000F078FA2A4B5B7DA3B92A4D2A482B4A9F
:10B8400004210124297004701360114803F046FD9F
:10B850000021214800F0DAFABDE8384024492548A3
:10B8600013F00EBD204B1F4C0821022221701A70CC
:10B8700014F096FB1D4B94F900101860E5E700BF2B
:10B8800018640020DCC604005CA9002064C6040023
:10B89000387A00208CC60400F0C60400697C0200DF
:10B8A00059650200DC80002000C7040010C70400B6
:10B8B000586A0020B4C604001CC70400206B002096
:10B8C000C86A002011B40200247900203965020002
:10B8D000CC7800202CC7040078800020BC80002099
:10B8E000386B00201D680020566B0020C4790020B2
:10B8F0003CC70400B882002070B5C8209CB014F08A
:10B900005BFB4FF4FA51844813F070FB824813F04C
:10B9100093FB82480DF032FC814980480DF082FE95
:10B92000002840F0C6807F4E30707F4C7F4B8048AF
:10B93000236042F68A6140F23A3204F051FD7D49BB
:10B940007B4804F055FD7C497948734D04F04CFD6B
:10B950007A49774804F050FD79484FF4E13104F01A
:10B960004DFC47F61221774813F0CAFE206805F017
:10B9700081F814F015FB04460AE013F05DFB0A2081
:10B9800014F01AFB14F00CFB001BB0F5FA6F05D88D
:10B9900008F004FB03462846002BEED0642014F088
:10B9A0000BFB0121152017F085FD0121152017F053
:10B9B00005FE782014F000FB072206216248634C44
:10B9C0000BF046FB60480BF0C9FA142014F0F4FAAF
:10B9D00001235F4800933C2202210CF095FF207068
:10B9E000002841D15B49564813F04AFC2378002BCC
:10B9F00048D1FBF74FFA782014F0DEFA3378012BA8
:10BA000054D0FFF751FD282014F0D6FA022104206B
:10BA100017F050FD0221052017F04CFD02210920EE
:10BA200017F048FD042017F0E7FD0446052017F045
:10BA3000E3FD40EA4403484C4849DBB202220420BB
:10BA4000237014F0BBF802224449052014F0B6F824
:10BA5000502014F0B1FAFEF76FFD4FF47A612E48D2
:10BA600013F0C4FA1CB070BD39480DF0FDF9384828
:10BA70000DF00AFA237893B9962014F09DFA2378F2
:10BA8000002BB6D03648FDF773FC3378002B3BD142
:10BA90002378002BADD03348FDF76AFCA9E7324884
:10BAA000FDF766FC962014F087FAE8E7FFF70AFE38
:10BAB000A9E703A81A4A194900230DF0A9FD03A814
:10BAC0000EF0D4F800283FF42EAF01220DF10B0147
:10BAD00003A80EF029F8134E9DF80B4003A80EF0B2
