:020000022000DC
:106000000000042059290400992904009B29040058
:106010009D2904009F290400A1290400000000001C
:10602000000000000000000000000000D52804006F
:10603000A529040000000000F5280400A929040097
:10604000AD2B0400AB290400E1FE03003175030011
:10605000E5750300AB290400B9010400AB29040075
:10606000AB290400AB290400AB290400AB290400D0
:10607000AB290400AB290400AB290400AB290400C0
:10608000AB29040025260400AB290400AB29040039
:10609000AB290400AB2904001DF80200AB29040061
:1060A000AB290400AB290400AB290400AB29040090
:1060B000AB290400AB290400000000000000000030
:1060C000AB290400AB290400AB290400C130040053
:1060D000AB290400AB290400AB290400D510030050
:1060E000AB290400AB290400AB2904000000000028
:1060F00000000000AB29040000000000393104005A
:10610000000000000000000000000000000000008F
:10611000000000000000000000000000000000007F
:10612000000000000000000000000000000000006F
:10613000000000000000000000000000000000005F
:10614000000000000000000000000000000000004F
:10615000000000000000000000000000000000003F
:10616000000000000000000000000000000000002F
:10617000000000000000000000000000000000001F
:10618000000000000000000000000000000000000F
:1061900000000000000000000000000000000000FF
:1061A00000000000000000000000000000000000EF
:1061B00000000000000000000000000000000000DF
:1061C00000000000000000000000000000000000CF
:1061D00000000000000000000000000000000000BF
:1061E00000000000000000000000000000000000AF
:1061F000000000000000000000000000000000009F
:10620000F1EE103A43F08073E1EE103A704700BFB0
:1062100010B5054C237833B9044B13B10448AFF3E0
:1062200000800123237010BDFC63002000000000EB
:10623000F403050008B5034B1BB103490348AFF352
:10624000008008BD0000000000640020F403050089
:10625000154B002B08BF134B9D46A3F5803A002138
:106260008B460F461348144A121A22F0D5FB0F4BE7
:10627000002B00D098470E4B002B00D098470020F1
:10628000002104000D000D48002802D00C48AFF397
:10629000008022F057FB200029001CF0B5FB22F003
:1062A0002BFB00BF000008000000042000000000DD
:1062B00000000000FC630020E8B4002000000000A3
:1062C00000000000BFF34F8F0549064BCA6802F477
:1062D000E0621343CB60BFF34F8F00BFFDE700BF09
:1062E00000ED00E00400FA0538B5054CA4F1C00546
:1062F00054F8403D1B6820469847AC42F8D138BD61
:10630000F469002038B5054CA4F1C00554F8403DAF
:106310001B6820469847AC42F8D138BDE0680020A1
:10632000124B984230B4144608D003F14002904218
:1063300016D08033984216D030BC7047012200201E
:10634000002CF9D000EB4005094C91F900300949C7
:10635000C0EBC50004440848A37530BC19F0DAB995
:1063600002220120ECE703220220E9E72068002056
:106370003C6000200CC00400C482002070B52A4C90
:106380008AB085B20E462046012111F0D5FF05F1F5
:1063900010012B234FF001126182204623492382F2
:1063A000626119F0C9F80E22214902A823F0ACFA63
:1063B0009DF8083000228DF8162043B302A823F080
:1063C00078FA00EB40004300C3F1800305F11C02A2
:1063D0005B1002A914482382628219F0ADF8154AB5
:1063E0003346102106A823F0B5F906A823F061FA78
:1063F00000EB40035B00C3F180035B1006A9273567
:1064000009482382658219F097F80AB070BD0A4BDB
:106410000A4A18785978CDE900100F219B7802A814
:1064200023F098F9CAE700BFDC77002038C00400E9
:106430004C79002050C004004479002040C0040082
:1064400010B504201DF0D2FA044605201DF0CEFA46
:106450000E4A0F49137840EA440040EA8303DBB256
:10646000C0B2CB5610705BB10A4A1168002901DD39
:10647000002B08DB1168002903DB11680B44136053
:1064800010BD002BF9DD136010BD00BF4C7800205B
:10649000C8CC04005078002010B5044B044640F8E6
:1064A000083B08F0D7FB204610BD00BF58CD0400C4
:1064B00010B5044B044640F80C3B08F0CBFB2046DB
:1064C00010BD00BF2CCD040070B5064C064EA4F1E3
:1064D000540544F80C6C20461C3C08F0BBFBAC4255
:1064E000F7D170BD246900202CCD040070B5064C96
:1064F000064EA4F1540544F80C6C20461C3C08F0F0
:10650000A9FBAC42F7D170BD386A00202CCD040045
:1065100010B5074B044640F8183B05F0F5FF204640
:10652000044B40F8083B08F095FB204610BD00BF27
:1065300008CE040058CD040002B97047034B0A7816
:10654000034804491A7019F0E5B800BFC479002067
:10655000C48200205CC00400564B1A68013218BF88
:106560004FF0FF32F0B518BF1A60534B1C78012C66
:1065700083B0014625D0514809F048F90146C8B119
:10658000684606F0F1FE4E4B9DF801101A789DF812
:1065900002009DF803409DF804509DF805609DF8A9
:1065A0000670022A50D0DA7D022A68D093F82E2095
:1065B000022A30D04349444803B0BDE8F04018F007
:1065C000E9BF424B424A43491C70002313700B60E1
:1065D00019F0E0FE404A414B527D414D186082B9AE
:1065E000404E1A6040493848347004232B7018F02C
:1065F000D1FF95F90010314803B0BDE8F04009F033
:1066000067B8384B39493048082402222C701A7078
:1066100018F0C0FFEDE793F83EC08C45CAD193F85F
:106620003F108142C6D193F84010A142C2D193F8E5
:106630004110A942BED193F84210B142BAD193F8A9
:106640004310B94214D0B5E71A7C8A42ABD15A7CC8
:106650008242A8D19A7CA242A5D1DA7CAA42A2D1D8
:106660001A7DB2429FD15A7DBA4208BF00229AD108
:1066700002EB4201C2EBC102012199549AE793F85F
:1066800027208A4292D193F8282082428ED193F813
:106690002920A2428AD193F82A20AA4286D193F8CF
:1066A0002B20B24282D193F82C20BA4208BF01229B
:1066B000DED07BE738600020556B0020447A002054
:1066C0003C600020ECC00400C48200201860002060
:1066D0005D790020506B0020386B0020D0790020BD
:1066E0001D680020566B0020B4C004007CC004006C
:1066F00038B52B4B1A7C12B11A78022A2AD193F89A
:10670000272012B1DA7D022A24D193F83E201AB153
:1067100093F82E30022B1DD1224B1B78022B0AD16D
:1067200021485022C82107F063FB1F4807F066FB91
:1067300000282FD038BD1C4807F060FB044610BB72
:106740001A4D2B78002BF5D019491A4818F022FF62
:106750002C7038BD134B1B78022BE1D0124850220D
:106760004FF4967107F044FB0F4807F047FB0028F1
:10677000E0D101460C4807F049FBBDE838400E491E
:106780000C4818F007BF084807F062FB074B0122CE
:106790001A7038BD0146BDE83840034807F036BBE3
:1067A0003C600020546B0020E880002048640020FA
:1067B0004CC10400C482002014C104002DE9F0473C
:1067C000284B294EDFF8A480DFF8A4A0DFF8A490BE
:1067D000186082B001273378022B07D00137042FCD
:1067E00006F11706F7D102B0BDE8F087002501E0F9
:1067F000142D2ED0A9B2404609F008F80135044600
:106800000028F5D006F0A0FD0028F1D0214668460A
:1068100006F0AAFD327C9DF801309A42E8D1727CE4
:106820009DF802309A42E3D1B27C9DF803309A423F
:10683000DED1F27C9DF804309A42D9D1327D9DF8A8
:1068400005309A42D4D1727D9DF806309A42C5D067
:10685000CEE73A465146484618F05CFF01233370B4
:10686000BCE700BF7C6700203C600020447A002029
:106870006CC10400C48200202B4B1968084400EB53
:10688000D07040102DE9F041284E186044B214F148
:10689000490F327829DB14F13F0F2BDA022A2BD073
:1068A000012A154638BF0125AA4221D0204F19F0F0
:1068B00071FD3B68C01AB0F5487F19D319F06AFD25
:1068C000022D386035702BD0012D25D0194D0021B7
:1068D0002970194808F0FCFE95F90030174918484E
:1068E0002246BDE8F04118F015BF0225AA42DDD1CD
:1068F000BDE8F0810025F9E714F1450FD0DB0C4D20
:1069000019F048FD2B68C01AB0F5487FF0D319F094
:1069100041FD012328603370064D04212970D8E71A
:10692000044D08212970D4E710600020566B002028
:106930004C6400201D680020447A002088C10400B7
:10694000C48200202DE9F04F3C4B3D4E3D4F186076
:106950004FF0000983B006F14508CA463378022B90
:1069600016D01736B045F9D1B9F1000F07D1364B23
:1069700093F90020082A4DD003B0BDE8F08FBAF19A
:10698000000FF9D0504603B0BDE8F04FFFF774BFD9
:10699000002501E0142DE4D0A9B2384608F036FFF6
:1069A000013504460028F5D006F0CEFC83460028C9
:1069B000F0D02146684606F0D7FC327C9DF80130C5
:1069C0009A42E7D1727C9DF802309A42E2D1B27CC1
:1069D0009DF803309A42DDD1F27C9DF804309A4252
:1069E000D8D1327D9DF805309A42D3D1727D9DF881
:1069F00006309A42CED1FF21204606F0E7FC204621
:106A000006F0EEFC430616D0BAF1000F0ED1D946BF
:106A10008246A6E70D4A0B4883F80090494682F863
:106A2000009003B0BDE8F04F08F052BE8245A8BF09
:106A300082464FFA8AFAD94693E700BF6C67002076
:106A40003C600020447A00201D680020566B002026
:106A500030B5142483B000251CF022FF013C05440E
:106A6000FAD1132D3CD9204B204C9FED217AD4ED47
:106A7000006ADFED205A9FED206AA3FB05352B0944
:106A800007EE903AF8EEE77AF5EE406A67EE877A1D
:106A9000F1EE10FA08BFF0EE676A67EEA57A9FED97
:106AA000177AE6EE867A642300934FF4D27227EECB
:106AB000877A0023BDEEC77A4FF4AA7117EE100A49
:106AC000C4ED007A19F0BAFB002807DD6428A8BFDE
:106AD0006420C0B20A4B187003B030BD0120F9E742
:106AE000074B187803B030BDCDCCCCCC70670020FC
:106AF0000000903B9A99993E3333333F0000C842DF
:106B0000786700202DE9F043032189B0BA48DFF807
:106B10006883BA4CBA4FBB4EDFF86093BA4D0AF0A7
:106B200089F90121B9480AF085F904A841F60F0155
:106B300008F098F804A9404606F06CFB04A808F099
:106B400089F82246B249404621F09EFE04A842F64A
:106B5000192108F087F804A9384606F081F804A83E
:106B600008F078F82246AB49DFF81483384621F064
:106B70008BFEA949A94F304608F082F822464946C3
:106B8000304621F081FEA649284608F079F82246D1
:106B90004946284621F078FED6E90232716805910F
:106BA000404604A907920693049706F033FB04A815
:106BB00008F050F8D6E9023271680792CDE9047105
:106BC00008F11C0004A9069306F024FB04A808F0B1
:106BD00041F873680593D6E9026204A908F1380008
:106BE000CDE90662049706F015FB04A808F032F818
:106BF00022468C49DFF88C828B4EDFF88C92002085
:106C000021F042FED5E9023269680792CDE90471AC
:106C1000404604A9069306F023F804A808F01AF8E1
:106C2000D5E9023269680792CDE9047108F14000A4
:106C300004A9069306F014F804A808F00BF86B6892
:106C40000593D5E9025204A908F18000CDE9065266
:106C5000049706F005F804A807F0FCFF22467349E4
:106C6000734D744FDFF82482002021F00DFE04A83C
:106C700041F60F0107F0F6FF04A9304606F0CAFA04
:106C800004A807F0E7FF04A841F60F0107F0EAFFA8
:106C900004A906F11C0006F0BDFA04A807F0DAFF0B
:106CA00004A841F60F0107F0DDFF04A906F1380042
:106CB00006F0B0FA04A807F0CDFF22465E495F4E09
:106CC000002021F0E1FD04A842F6192107F0CAFFD7
:106CD00004A9284605F0C4FF04A807F0BBFF04A8D8
:106CE00042F6192107F0BEFF04A905F1400005F0A6
:106CF000B7FF04A807F0AEFF04A842F6192107F079
:106D0000B1FF04A905F1800005F0AAFF04A807F06F
:106D1000A1FF22464A494B4D002021F0B5FD4A4BC8
:106D20004A4A02934FF0FF33CDE900323846484BD0
:106D30004022802111F0A0FE22464649384621F02B
:106D4000A3FD4549454F04A807F0BAFF04A94846EA
:106D500007F060FF04A807F07DFF22464146484641
:106D600021F092FD3E49DFF8289104A807F0A8FF22
:106D700004A9384605F096FE04A807F06BFF2246EA
:106D80003146384621F080FD284608F0A3FD224612
:106D90003449354F284621F077FD3449344D484673
:106DA00019F05AFA22463349484621F06DFD04A8ED
:106DB00041F60F0107F056FF04A9384607F02AFFF5
:106DC00004A807F047FF22464146384621F05CFD03
:106DD00004A842F6192107F045FF04A9284605F04A
:106DE00061FE04A807F036FF22463146284621F00E
:106DF0004BFD09B0BDE8F083007A00200060002060
:106E0000CC7800209879002088790020D87900205B
:106E1000B164020009CC0200BCC1040070CD0400C2
:106E2000E4C10400ED640200E0680020E9620200B1
:106E300020680020DC770020C964020009C5020038
:106E400005630200586A0020A0860100801A06002F
:106E500048970020D98A0300E8CC0400C86A0020C3
:106E6000D8CC0400116502000C790020E0E0040099
:106E7000747800208D0204002479002055EC020073
:106E8000F469002034690020206B0020996402001E
:106E9000AC790020F0B53148ADB012F069FB2F4B52
:106EA0002F4913A8002213F00FF813A813F0D8F8F5
:106EB00000284CD02B4C0025452201A9C4E90055DF
:106EC000C4E9025513A82561A58213F027F82146CD
:106ED000162213A813F022F8064613A813F094F80C
:106EE000162E28D1204B0DF1050403F1450601278C
:106EF000002514F8012C022A14BF03F8012C03F812
:106F0000017C21460E22184622F0FEFC2246034652
:106F100052F80F1F857317339288C0F80F10B342D1
:106F2000A0F8132004F11704E3D11049104818F019
:106F3000A1FB2DB0F0BDC4E90055C4E902550D49CF
:106F4000256125750A48657518F024FBCAE70A49CA
:106F5000074818F08FFB2DB0F0BD00BFC09800208F
:106F60000CC20400386B00203D6000205CC20400AD
:106F7000C482002020C2040078C204002DE9F84F2A
:106F800019F008FA1E4B1D68002D37DDDFF87480FC
:106F9000DFF874B08146002440F6B83302E00134D3
:106FA000AC422BDAC4EBC40108EB8100E600826935
:106FB000A9EB02029A424FEA8101F0D92F1BC7EBDD
:106FC000C702013D92001C31A542A2F11C024144BE
:106FD0004FEAC70A0EDD21F005FD30198000574445
:106FE00000F12401BA00243A5944584421F0FAFC33
:106FF00040F6B833024AAC421560D3DBBDE8F88FE7
:10700000586B0020647200205C6B00202DE9F04773
:1070100090F81C80866984B000240294CDE9004475
:107020000C70CDF80B40B8F1000F2ED00F4603E0E6
:1070300001352C44444525DA355D631C32192B4457
:1070400005B343451EDC5378092B2BD0082BEFD119
:107050009DF80090B9F1000FEAD105F1FF3ABAF1BD
:107060000E0FA8BF4FF00E0AA11C524631446846CD
:1070700021F0AAFC013504AB9A442C4444450AF89B
:10708000109CD9DB9DF8003013B904B0BDE8F0873F
:107090000E226946384622F037FC0023BB7304B049
:1070A000BDE8F087013D0E2DA8BF0E250234311931
:1070B0002A46384621F088FC00237B5504B0BDE801
:1070C000F08700BF7C4B2DE9F0411D7804468C46CB
:1070D000002D40F08780D97D002940F0A28093F8F0
:1070E0002E10002940F0C2801CF1550F3DDB734F7C
:1070F000DFF8D0E13968002940DD94F80380734659
:1071000000251878404532D15E78207986422ED10C
:107110009E78607986422AD1DE78A079864226D18F
:107120001E79E079864222D15E79207A86421ED18C
:10713000C5EBC5070EEB8707614E87F806C019F04F
:1071400029F94FEAC5084544B86106EB850604F104
:10715000200720686168A268E36835460FC51034CF
:10716000BC422E46F5D120682860BDE8F08101358B
:107170008D4203F11C03C4D13129F6DCC1EBC101FE
:1071800026468B0056F8030F4EF803000EEB8105E0
:1071900007331146B288AA800EEB030085F806C0BB
:1071A0000E2222F0B1FB00236B7519F0F3F8D7F82B
:1071B00000C0434EA8610CEBCC0306EB830604F140
:1071C000200E20686168A268E36835460FC5103458
:1071D00074452E46F5D1206828600CF101033B6010
:1071E000BDE8F081187CE17888427FF474AF2079A3
:1071F000597C88427FF46FAF987C617988427FF434
:107200006AAFD87CA17988427FF465AFE079197DB7
:1072100088427FF460AF207A597D88423FF467AF9F
:1072200059E793F82700E17888427FF458AF93F844
:107230002800217988427FF452AF93F829006179C0
:1072400088427FF44CAF93F82A00A17988427FF4FA
:1072500046AF93F82B00E17988427FF440AF93F872
:107260002C00217A88423FF442AF38E793F83E0081
:10727000E17888427FF438AF93F83F002179884263
:107280007FF432AF93F84000617988427FF42CAFED
:1072900093F84100A17988427FF426AF93F8420029
:1072A000E17988427FF420AF93F84310237A994222
:1072B0003FF41DAF18E700BF3C600020586B002072
:1072C0005C6B0020647200202DE9F041704C84B0AA
:1072D00069460546FFF79AFE2378012B5FD0E67DCD
:1072E000012E79D094F82E80B8F1010F00F097802C
:1072F0009DF8002082B1012B44D04FF0FF37012EC2
:1073000010D0B8F1010F2ED0002F1DDA95F913100F
:107310006A462846FFF7D6FE5E4806F08FFD04B0A9
:10732000BDE8F081237E002BEBD05B480E2269463E
:1073300022F0C8FA0028E4D1013740F09680B8F175
:10734000010F00F09E80374654497A1C544818F0CB
:10735000E1F9504806F07CFD2946524805F050F806
:1073600004B0BDE8F08194F82F30002BCCD04E480B
:107370000E22694622F0A6FA0028C5D10137C5D1F0
:107380000227E1E76378002BB7D048480E22694610
:1073900022F098FA003818BF01204742AFE7217C5D
:1073A000EA7891429BD1617C2A79914297D1A17C64
:1073B0006A79914293D1E17CAA7991428FD1217D62
:1073C000EA7991428BD1617D2A7A914208BF0026E9
:1073D00085D13749721CB9E794F82710EA789142B1
:1073E00080D194F828102A7991427FF47BAF94F8E9
:1073F00029106A7991427FF475AF94F82A10AA791E
:1074000091427FF46FAF94F82B10EA7991427FF4A8
:1074100069AF94F82C102A7A9142DAD062E794F896
:107420003E10EA7891427FF463AF94F83F102A79D6
:1074300091427FF45DAF94F840106A7991427FF4F5
:1074400057AF94F84110AA7991427FF451AF94F864
:107450004210EA7991427FF44BAF94F843102A7AB4
:1074600091427FF445AF0226B3E7B8F1010F7FF4F4
:107470004DAF94F82F30002B3FF448AF6FF0010769
:1074800075E794F82F304746002B7FF470AF5BE729
:107490003C600020E880002054600020D0C204003E
:1074A000C4820020547A00206B6000203D600020E0
:1074B0009CC204002DE9F041044618F06BFF2849F6
:1074C0000A68821AB2F5C87F31D2264B1D78264A47
:1074D000264B1068632DA4EB000494BF3226962639
:1074E0009C42234C3746237802D94BB3BDE8F08148
:1074F000DFF898801BB998F80030B342F6D01D48E9
:10750000812111F0C9FB39461A4811F0C5FB1A4810
:107510001A4B88F80070632D88BF03460025324659
:10752000257017491748BDE8F04118F0F3B8034635
:107530000C200B601CF0AEF9FFF78AFA0546C6E78F
:107540000C48812111F0A8FB0A48012111F0A4FB8D
:10755000012323700C490B48BDE8F04118F08AB8AC
:10756000746700207867002064790020E0930400AD
:107570005C790020DC7700201CC3040020C30400D9
:1075800040C30400C482002024C304009B67002081
:107590002DE9F04F444B2DED028B1A689DB0012A66
:1075A0000A927CDD414B4249079306911C3B1146F0
:1075B000C2EBC20203EB820308934B1E0B93002322
:1075C0000993099B0A9A0133934209935DDA079A5A
:1075D000A2F11C0308EE103A069B914618EE100A21
:1075E0004946019322F042F9079B069F0597A3F1B4
:1075F0002308019BCDF8088003F124040DF1300E1F
:10760000A9F1070C13AE0028CDF810E0CDF80CC09E
:107610003D46B2460194A34631DDB8E80F00AEE81E
:107620000F0098E807008EE80700BCE80F00029FF3
:107630000FC79CE80700049B1F4688E807000FCF90
:10764000039F0FC79EE807008CE807000FCD0FC609
:107650000FCD0FC6D5F800C0C6F800C00FCC059EF0
:107660000FC60FCC0FC6BAE80F0026682E60ABE835
:107670000F00BAE80F00ABE80F00C4F800C0089A8A
:10768000019B09F11C099145A8D1069B0B9A243353
:107690000693079B1C330793099B934291D11DB01E
:1076A000BDEC028BBDE8F08F586B00208772002084
:1076B0005C6B0020454B1A68002A1A68D8BF5242FA
:1076C000032A2BDD1A68002AF0B421DD01242746A5
:1076D00004261A683E493F4D09782860921B1A60BB
:1076E0003D4A032910601AD019BB3C4B1B784BBB99
:1076F0003B4B1A6801323B4A06D014683C44022CCA
:10770000A8BF022424EAE47414601C60F0BC704733
:1077100000246FF003064FF0FF37DAE77047314A75
:10772000314913683B4483F3010313600B60F0BCE1
:10773000704701290ED0022918D00429F7D12B4A0D
:107740002849EEE7264A274B4FF0FF30F0BC106087
:1077500019607047264A234913683B44022BA8BF8F
:10776000022323EAE37313600B60E0E7214A136806
:10777000FB181DD420491B4809688B42A8BF0B4643
:1077800013600360C3B1013BD1D49942CFDD1B4AE2
:107790001B4C1C4E1C4DC3EBC30302EB830393E84D
:1077A0000300012200232060A18032702B70BEE70D
:1077B0000C4900230B601360114A124C124900233C
:1077C00001202370136093800870B0E75078002088
:1077D000546B00206079002064790020556B0020F4
:1077E0003060002054780020A8790020546A0020DE
:1077F000D4790020C87900204878002064720020E5
:10780000807900205E7900205B7900201B4AF8B562
:1078100013780446BBB91A4E3268013212D0194DA2
:107820002A6841F65831821A8A420BD91648174AFB
:107830000360174917484FF0FF331360336017F0A8
:10784000A9FE2C60F8BD0F4D296841F65830611A29
:107850008142F7D9013B032BF3D8094F0B480A4962
:107860000D4E4FF0FF333B60036000230B6009486F
:107870000A491370337017F08DFEE2E7546B002055
:1078800030600020647900205478002038600020A7
:1078900074C30400C48200205E79002090C30400F9
:1078A0002DE9F047684E694DDFF8CC91DFF8CC81C7
:1078B000674F84B0306801A909F0E2FA00284DD082
:1078C0002B789DF805A0012B79D09DF804402F2C32
:1078D0004FEA241488BF002404EB4403C4EBC30321
:1078E00018F80300A0F10200B0FA80F04009002867
:1078F000E0D01AF0800F67D1FB68D90131D5554B24
:107900001A68D2072DD55B689B09534A52F8241098
:10791000C1EB932000284FEA9323D8BF4B1C63F0A0
:107920007F01BAF1F70F42F82430C9B222D92B787F
:107930008DF809108022012B8DF80AA08DF80820FF
:1079400048D0464802A9032200EB841005F0C8FA8B
:10795000306801A909F094FA0028B1D104B0BDE85B
:10796000F08719F05BFF3E4BA0FB0301830A43EA5B
:107970008153CAE70AF0F003902B9DF806009DF8AA
:1079800007202DD0802B2CD0B02B48D0E02B50D00E
:107990002B788DF80910012B4FF080018DF80AA08B
:1079A0008DF80B008DF80C208DF8081027D02B488F
:1079B000052200EB841002A905F092FA7AE7484606
:1079C00007F0FAFE002492E718F0E4FC254B43F898
:1079D000240091E7032202A9234805F0E5F869E7AE
:1079E0009AB9224B03EBC41313F800C0BCF1000F8B
:1079F0003FF460AF4FF0000C03F800C0C8E7052269
:107A000002A9194805F0D0F854E7184B03EBC4134A
:107A100013F800C094453FF44DAF1A54B8E7144B27
:107A200003EBC41313F800C094453FF443AF1A545A
:107A3000AEE7104B33F814E040EAC21CE6453FF4D1
:107A400039AF23F814C0A3E7287A0020556B002033
:107A5000F0ED00E0001000E05864002034690020E0
:107A600040420F0068790020C86A00206C64002042
:107A7000EC65002064640020447A00203C60002013
:107A8000754A13684EF66021C31A8B4270B50446DE
:107A900000F29780714B1B68E31AB3F5FA6F02D9B5
:107AA0002046FEF78BFE6E4A1368E31AB3F5FA6FB1
:107AB00005D36C4B14601B780BB9FEF719FE6A4BAB
:107AC0006A4A1E78022E00F08F801378012B00F096
:107AD000B080D57D012D00F0AF8092F82E30A3F15B
:107AE0000105B5FA85F56D091378022B79D0A3F15C
:107AF0000103B3FA83F35B090020D17D92F82E20B5
:107B0000022921D0012908BF0123022A20D0012AFD
:107B100047D0E8B9002D6DD1022E23D1544B1A68FD
:107B200002B91C60534B93F90020082A2AD0524A0C
:107B30005248082119700223137007F0C9FD5048FC
:107B400006F05CF918B370BD022A01D0012A2AD0D0
:107B50004BBB4C4B1B68E31AB3F57A7F46D875B91B
:107B6000022E0CD0424B464800221A6006F046F91D
:107B70000028E8D0BDE87040414806F069B93C4BA8
:107B800000221A603E4806F039F90028DBD1014690
:107B90003B4806F03BF9BDE870403B493B4817F0D5
:107BA00069BD0028B6D0334B93F90020082AD6D0FF
:107BB000314A3248082119700223137007F088FDFA
:107BC000CDE7106018F0E6FB31490A68821AB2F579
:107BD000C87F034625D22F4B19782F4804F0F6FFB3
:107BE00058E70023012088E701257DE72046FEF7BE
:107BF000A9FEB4E71E4B1A68002A92D0022E91D03B
:107C0000264BA41A9C428DD91A4B93F90020002AC6
:107C1000B8D0194A194800211970117007F058FDA1
:107C2000B0E70C200B601BF035FEFEF711FF01469C
:107C3000D3E71D46002060E7022B7FF458AF92F88F
:107C40002E20022AAFD0012AADD10A4B93F90010A1
:107C5000082994D01546ABE7406400207C670020DB
:107C600044640020556B0020546B00203C600020D1
:107C7000CC7900201D680020566B0020447A00203B
:107C8000E88000206C670020B4C30400C482002098
:107C9000746700207867002074780020804F1200FD
:107CA000FEF730BF30B53D48ADB017F0BFFB3C4BE1
:107CB0001B78012B58D03B4C23460E2213F8101B87
:107CC0008DF8041093E803000590ADF818100DF13D
:107CD0000500611C21F018FE2346E57D53F8272F8F
:107CE000CDF82B209B88ADF82F3004F118010E221F
:107CF00007A88DF81B5021F007FE234694F82E505C
:107D000053F83E2FCDF842209B88ADF8463004F161
:107D10002F010E220DF133008DF8325021F0F4FDC9
:107D200013AC2149214811F0EBFE204B1E490122E2
:107D3000204612F0C9F8204612F092F908B92DB089
:107D400030BD01A94522204611F0F4FE1622184943
:107D5000204611F0EFFE204612F056F9154916485C
:107D600017F088FC2DB030BD13AC104B0E492046E7
:107D7000002212F0A9F8204612F072F940B1452213
:107D800001A9204612F0CAF8204612F03DF9C8E7D2
:107D90000146452201A820F03FFEC2E768A9002065
:107DA000556B00203C6000200CC20400C0980020ED
:107DB000386B0020D8C30400C48200202DE9F04FA6
:107DC00001469BB00746B94807F020FD002800F0A7
:107DD000698105460DF120084046294605F0C4FAA0
:107DE00018F0D8FAB24B1B68984254D2B149B24845
:107DF000DFF81893B04E17F0CDFBB049AE4817F03E
:107E000049FB9DF82610AC48102217F03DFD0DF1FE
:107E100025044946304617F08FFB14F8011910224B
:107E2000304617F031FD4445F3D1A54CA248DFF8A8
:107E3000DCA2DFF8849217F0FDFBA2499E4817F000
:107E400029FB61799C48102217F01EFD04F10408FB
:107E500046465146484617F06FFB16F801191022A6
:107E6000484617F011FD444540F07181924817F0E3
:107E7000E1FB934806220DF1210120F097FD044615
:107E8000002800F00D8390498B4817F083FB8F4941
:107E9000894817F07FFB18F07DFA8D4E0446C82301
:107EA000002206212846346005F06EFA894B1B78C3
:107EB000012B00F0578100230AA90F2228460C93BA
:107EC000CDE90A33CDF8333005F0ACFB9DF828300E
:107ED00033B181490AA821F091FC002840F00082CA
:107EE0007E4B1C6800218C421491CDE91211CDF813
:107EF00053102CDD7A4B9DF821609DF822C09DF82F
:107F000023E09DF824809DF825A09DF826B00693D7
:107F10000A461878B04202F1010212D15878604541
:107F20000FD1987870450CD1D878404509D118798F
:107F3000504506D15879584503D1D879002840F0EA
:107F40009782A24203F11C0301F11C01E1D1654BB0
:107F500003931B680493013300F00F82624B0022ED
:107F60001A60049B059361496148132221F0CCFCFF
:107F700018F010FA5F49604B00F51C5010300122D8
:107F800008601A705D48044617F050FAC82018F0CF
:107F90000DFA204617F04AFA059B594A0499C3EB9B
:107FA000C30302EB830B9B00C1EBC1080693CB001C
:107FB00002EB880800260793204617F037FAD8F816
:107FC000003039469B6858469847002840F0A18207
:107FD00018F0E0F93E4B052E186000F09980002E55
:107FE00000F0B780012E00F08E82022E00F08E820B
:107FF000032E40F2DC5908BF4FF4FA69B9F5C87F87
:10800000CA4628BF4FF4C87A504618F0CFF9204628
:1080100017F00CFAB9EB0A09F0D10136CCE79DF85C
:108020004830002B40F0C784049A09EB0203C2EBEE
:10803000C3035B445B78002B40F00685059B314C05
:1080400003EB4300C3EBC0000130584421460E222D
:1080500021F05AFC049A0399BDF825400868DDF820
:10806000211009EB0203C2EBC3030BEB0302022551
:10807000116101304FF000010BF803509482D1736D
:1080800006D01B4A1B481C4B1170012201601A705C
:10809000FFF708FE039A1C4907484FF0FF331360AF
:1080A00017F0E8FA1BB0BDE8F08F00BF447A00205B
:1080B0004079002008C40400C482002020C40400C9
:1080C0004479002034C4040084C4040018C50400AA
:1080D00064790020556B0020B4C40400586B002064
:1080E0006472002038600020C0790020C0C60400FF
:1080F000587800206C7800207078002068A9002053
:10810000F4690020FCC30400F4C6040004C80400A1
:10811000BB4817F08BF9039B1B6801330DD0B9499D
:10812000B948132221F0F0FB18F034F9B749B84BE5
:1081300000F5FA60012208601A70039A4FF0FF33CD
:108140002846136005F038F91BB0BDE8F08FB04643
:108150007EE64FF4C87018F029F9204617F066F94A
:10816000012629E7A64817F061F912AC29460EA8A6
:1081700005F0FAF80023214620222846CDE91233E3
:10818000CDE91533CDE917331493199305F04AFA65
:108190009DF8483023B19F49204621F067FB50B934
:1081A0009DF8393000939DF83B209DF83A309A496C
:1081B000204621F003FB9949994E9A4817F0EAF9B5
:1081C0009949984817F066F9B11D964817F0B4F927
:1081D0009649944817F0DEF99549924817F05AF9F4
:1081E0002146904817F0A8F990498E4817F0D2F927
:1081F00090498C4817F0CEF9737D002B00F0278250
:1082000032789DF839309A4240F03C829DF83A200D
:1082100073789A4240F036829DF83B20B3789A42B8
:1082200040F030829DF83C20F3789A4240F02A8258
:1082300032799DF83D309A4240F0248272799DF85F
:108240003E309A4240F01E82DFF818C26E4DDFF8D1
:1082500018E2BCE80F000FC5DCF8003025F8023B3F
:10826000754A1B0C4FF0010800212B7011608EF82D
:10827000008018F08FF8664A644B82F8008000F6A0
:10828000C41018606D4D21460E22681C21F03CFB85
:10829000DDF83900BDF83D20694928610023EB7302
:1082A0006048AA8202232B7017F074F9654839469A
:1082B00004F09AFF002800F0CD81634804F016FD19
:1082C000002800F0F581604804F062FE5F495548DF
:1082D00017F060F95C4804F0C5FD5D4B1870BDE116
:1082E0005C4B03931B68049301337FF437AE9DF816
:1082F00026209DF821409DF822A09DF823809DF81E
:1083000024609DF825300592DFF860B19BF80020CD
:10831000002A40F051829BF81720002A40F0BA82D0
:108320009BF82E20002A4AD04FF0FF3204929BF88F
:108330003E20A24240F04F839BF83F20524540F040
:108340004A839BF84020424540F045839BF84120FA
:10835000B24240F040839BF842209A4240F03B8377
:108360009BF8432005998A4240F035830223CDE9EA
:108370000433394B00221A6004E69DF828209DF84A
:1083800026109DF821409DF822A09DF823809DF89D
:1083900024609DF825300591002AB5D1DFF8CCB0D6
:1083A0009BF80010002940F0B3819BF81720002AA9
:1083B00040F08B819BF82E20002A40F04882DFF8A5
:1083C0009890039317F0E6FFD9F80020039B074627
:1083D000002A40F09282214ADDF82100BDF82530C4
:1083E0001F49106093800F48C9F8007017F052F8C9
:1083F0000C480AA917F03EF9284604F0DDFF51E6C3
:1084000068A90020D0C60400587800206C780020AD
:1084100070780020B4C4040040C00400BCC4040050
:10842000386B0020C4820020DCC40400F4C40400C3
:10843000F8C4040010C50400506B00201860002030
:1084400044C5040024790020CC7800206CC50400C9
:10845000C479002038600020C0790020B87900205D
:1084600094C6040030C504005D7900203C60002003
:10847000069B07310B44194612A80E2221F044FA3C
:108480009DF8483000248DF85640002B3FF45FAD36
:1084900012A90E220AA821F037FA8DF8364056E5C7
:1084A000AD49AE4817F076F812A920222846CDE94A
:1084B0001244CDE91444CDE91644CDE9184405F041
:1084C000B1F820B19DF84830002B40F0F680A44868
:1084D0000378002B00F00482A24BA349A34C18465A
:1084E000132221F011FA0022C27417F053FFA04AA0
:1084F00000F2DC53012128462360117004F05CFF78
:108500001BB0BDE8F08F4FF4966977E54FF4C8696A
:1085100074E59848984E804616F088FF059B4046C3
:1085200006EB83164FEA831B16F080FF30460324C8
:1085300004F0DCFB90B917F02DFF904B012C186074
:108540004FF4967070D017F031FF404616F06EFF72
:108550003046013C04F0CAFB0028ECD03046884984
:10856000012204F00DFD304604F012FD002800F059
:10857000FA81804816F05AFF079B049C8148069AAE
:108580001B1B394650F8233010449B68984700283D
:1085900040F06482DFF81CB24FEA44090024284608
:1085A0000EA90F221094CDE90E44CDF8434005F0FA
:1085B00039F8754B12941868A042CDE91344CDF8F0
:1085C00053402DDD714B9DF821509DF822609DF8A0
:1085D00023709DF824C09DF825E09DF82680069321
:1085E000214622461C78AC4202F1010212D15C788D
:1085F000B4420FD19C78BC420CD1DC78644509D1DF
:108600001C79744506D15C79444503D1DC79002C92
:1086100040F0B581824203F11C0301F11C01E1D15C
:108620009DF838300EACFCE4039B1B6801333FF42B
:1086300084AD132256494B4821F066F917F0AAFE83
:108640004A4A4B4B00F5FA6010601C7075E5514AC0
:10865000137017E65049414816F09CFF737D002BBC
:108660007FF420AD4D4807F0A7F800283FF41AAD7D
:1086700017F090FE4A4B4B49024638481A6016F0F4
:1086800089FF0FE54849354816F084FF284604F075
:1086900093FE46493348132221F036F917F07AFE4B
:1086A0003249334B00F2DC50012208601A70F9E4C1
:1086B0003F492A4816F06EFFD0E7294B12A9184609
:1086C0000E2221F021F9847306E79BF82720A242AD
:1086D0007FF470AE9BF8282052457FF46BAE9BF878
:1086E000292042457FF466AE9BF82A20B2427FF4EF
:1086F00061AE9BF82B209A427FF45CAE9BF82C2055
:1087000005998A427FF456AE0123CDE9043330E661
:108710009BF81010A1427FF448AE9BF81110514510
:108720007FF443AE9BF8121041457FF43EAE9BF8B8
:108730001310B1427FF439AE9BF8141099427FF4C4
:1087400034AE9BF81510059881427FF42EAE0023BD
:10875000CDE904330DE600BF48C40400C482002004
:108760004C7900205878002074C404006C780020F4
:108770007078002068A90020346900206479002006
:108780003DB70200E0680020586B002064720020B2
:10879000E4C604005D790020BCC50400447A0020D2
:1087A000506B0020E4C5040024C7040044C7040043
:1087B00094C504003C6000209BF81020A24214D114
:1087C0009BF81120524510D19BF8122042450CD144
:1087D0009BF81320B24208D19BF814209A4204D18E
:1087E0009BF8152005998A42B1D09BF80120002AF8
:1087F0003FF491ADB94806930E220AA921F062F820
:10880000069B049000287FF486AD9BF81720002A71
:1088100043D19BF82E20002A7FF489ADB049B1489E
:1088200016F038FE049CAF480A22214617F034F8AF
:10883000AD49AC4816F0AEFE039BAC4A1B680594EC
:108840000021013311603FF49DABFFF78CBB9BF817
:108850003E20A2427FF4B3AD9BF83F2052457FF407
:10886000AEAD9BF8402042457FF4A9AD9BF8412076
:10887000B2427FF4A4AD9BF842209A427FF49FADB0
:108880009BF8432005998A427FF499AD0223CDE9F4
:1088900004336EE54FF0FF3204929BF82720A2428A
:1088A00040F0BA809BF82820524540F0B5809BF8F4
:1088B0002920424540F0B0809BF82A20B24240F087
:1088C000AB809BF82B209A4240F0A6809BF82C208E
:1088D00005998A4240F0A0800123CDE9043348E5A0
:1088E0009DF821209DF822300F21CDE900329DF81E
:1088F00023307F4A20F02EFFEEE57E4A1178A14218
:108900007FF46AAD517851457FF466AD9178414569
:108910007FF462ADD178B1427FF45EAD11799942B6
:108920007FF45AAD537905998B427FF455AD724966
:108930006C4816F0AFFD6B480AA916F09BFED9F8FB
:108940000030FB1AB3F5FA7FFFF456AD6B496C4863
:10895000132220F0D9FF6B496B4B07F57A77012280
:108960000F601A7048E5132268496548654C20F08D
:10897000CBFF17F00FFD644A00F6C413BAE5069B5F
:1089800007310B4412AC19460E22204620F0BCFFE2
:108990009DF8383000228DF85620002B3FF43FAB75
:1089A000204620F086FF05460EA820F082FF854273
:1089B0003FF635AB0EAC5649204620F01FFF00288D
:1089C0003FF432AB059B03EB4300C3EBC000013027
:1089D0005844FFF73BBB9BF82F20B2B14D4806939C
:1089E0000E220AA920F06EFF069B70B9049A01328C
:1089F0006DD049493B48039316F0CCFD039BDEE460
:108A00009BF82E20002A7FF492AC049A002ABFF62D
:108A100005AF0232EDD0D2E49BF81820002AEFD047
:108A20003E4806930E220AA920F04CFF069B002820
:108A3000E6D1049A013244D09BF82E20002AD8D0E7
:108A40006FF00102049272E4059B03EB4304C3EB55
:108A5000C40401345C442046FFF7F8BA304B9B4411
:108A6000584604F043F928B9049BDFF8B8B04FEA40
:108A7000430993E5584604F08BFA584604F0F2F99E
:108A8000642802464FF003044FF078000DD9012C02
:108A9000EAD017F08BFC584604F0E4F9642802464B
:108AA00004F1FF344FF07800F1D80499DFF874B086
:108AB00001EB4103C1EBC3035B444FEA41099A75E3
:108AC0006CE59BF82E202AB901230493A6E6022325
:108AD0000493A3E60122049229E400BF3D60002034
:108AE00014C60400C482002024C60400C0790020FB
:108AF00040C00400B879002094C60400B0C6040049
:108B0000587800206C7800207078002014C704008A
:108B1000B4C404006B60002058C6040054600020F8
:108B2000206800203C6000202DE9F843044661489D
:108B3000614D06F041FE18BB2B688BB95F4D2B6869
:108B400023BB5C4806F038FE10B15D4E357855B356
:108B50005C4A1368E31AB3F5FA6F35D8BDE8F883B9
:108B6000594AE31A9342E9D9584B93F90020082A4D
:108B700006D1574A01464F481970117006F0A8FDFA
:108B800000232B604D4D2B68002BDAD017F002FC30
:108B90002B689842D5D34F4A4F49002313609380E6
:108BA0002B600B70CDE74D4F3B68002BD0D017F0FA
:108BB000F1FB3B68834280463CD91E23484A11683A
:108BC0009942C5D01360C3E73A48146006F0F4FD3B
:108BD0000028C3D03748002106F018FE10B1FF214D
:108BE00004F0F4FB3F4A13684EF66021E01A884215
:108BF00001D8002BB2D1146017F0CCFB3A490A68B7
:108C0000821AB2F5C87F034620D2384B1C78384808
:108C1000214606F057FE3749374816F03BFC2146FF
:108C200035480A2216F030FEBDE8F8433349324891
:108C300016F0B0BCC31A47F22F5293420ED8304AF6
:108C4000A2FB03239B09C3F11E03B7E70C200B60B3
:108C50001AF020FEFDF7FCFE0446D8E7294BDFF8AA
:108C6000B89093E803000E22C9F80000A9F8041098
:108C700009F10600A3F10F0120F046FE4FF48073C6
:108C8000A9F81430FFF70EF8DFF854C01E491F484A
:108C90003D60012313223370CCF8005020F034FEE5
:108CA0001B4A1C49144808F5FA63136016F072FC5D
:108CB0004EE700BF447A0020D079002040790020A0
:108CC0005D79002054640020804F12001D68002050
:108CD000566B0020447900204C790020506B002016
:108CE0003460002050640020746700207867002002
:108CF000586A002084C70400C4820020A4C704006E
:108D0000D34D62102860002058C704005878002016
:108D10006C78002068C70400386B00202DE9F04F04
:108D20003A4CDFF8009187B0002201270E2311464C
:108D3000CDE90037204680230EF0CEFD0025344BD0
:108D4000344923612046656116F0F6FBB4F91060E2
:108D5000314B0195D3F800B04FF00A0A023631B218
:108D60002046CDF800A0092303220EF0B5FD0236FF
:108D70005246042359464FF001182046638226824A
:108D8000C4F8148016F088FD24496561204616F069
:108D900071FC30230197294620460093102280233E
:108DA0000EF0E2FD1E4B93E8070003AF87E80700D3
:108DB000A24618264FF0050BD9F80030AB425046BA
:108DC00010D057F8041BC4F81480A4F810B06682C1
:108DD000013516F04FFC0C36032DB6B2ECD107B0BE
:108DE000BDE8F08F01210B23721ECDE9003112B2D4
:108DF0007C2302210EF070FD002357F8041BA4F819
:108E000010B05046013566826361E2E7DC770020EE
:108E100002000400ACC7040038600020B4C704009E
:108E2000B8CC0400D4790020F0B52A4C2A4E83B087
:108E3000204610F013FA012500220E231146CDE939
:108E40000035204680230EF047FD0027234B2449A0
:108E500023612046676116F06FFB3023394600938B
:108E600001952046802310220EF07EFD3768D7B191
:108E70004FF0011363611B4B1B491648236116F029
:108E80005BFB3368012B19D04FF001136361174B63
:108E900017491048236116F04FFB0E4803B0BDE898
:108EA000F04010F0EBB90B23CDE9003517227C23FD
:108EB000022120460EF010FD6761DCE70B22CDE9B0
:108EC000002304487C23252202210EF005FD002307
:108ED0006361DCE7DC770020546A002002000300B5
:108EE000C0C7040005001800E8BF04000500260004
:108EF000D0C704002DE9F04FDFF8EC92AB4999F8A8
:108F00000030AB48AB4A0A61002B87B014BF4FF06A
:108F1000010B4FF0030B00225844A74FDFF8CC821F
:108F2000A64DA74CA24E02904A6103921BBB287823
:108F3000A0F10200B0FA80F0400908B399F80030BF
:108F4000002B60D00021204606F060FC824620B154
:108F500004F0FAF9002840F01C81029B01369E4281
:108F600007F1010708F1040805F117050FD099F87A
:108F70000030002BDBD0204606F01EFC0028DDD19F
:108F80003070387017F006FAC8F80000E5E799F875
:108F90000040002C40F096808A4D2B68013340F051
:108FA000D580039B002B40F0968087497F4816F0C0
:108FB000C3FA17F0EFF985490A68821AB2F5C87F3B
:108FC000034680F0EA80824B1C78632C00F2DE803E
:108FD000282C00F20D810C230022CDE900327348C9
:108FE0001623012234210EF0BFFC7048794B036137
:108FF00021460A2216F048FC77496C4807B0BDE8C4
:10900000F04F16F099BA9A4602E0BAF1140FA4D0C4
:109010001FFA8AF1204606F0F9FB0AF1010A83469D
:109020000028F2D004F090F90028EED0594604A8A8
:1090300004F09AF92A7C9DF811309A42E5D19DF806
:1090400012206B7C9A42E0D19DF81320AB7C9A42AF
:10905000DBD1EA7C9DF814309A42D6D12A7D9DF866
:1090600015309A42D1D16A7D9DF816309A42CCD102
:10907000584604F0B5F910F1800F3FF46EAF327826
:1090800022BB4B30ACBF002301233978994206D074
:109090003B7017F07FF932783B78C8F800009A42AD
:1090A0000AD017F077F9D8F80030C01AB0F52F7F42
:1090B0002ABF3B7833783370039A002B18BF1A46C7
:1090C00003924AE7039B33B944496FE74730ACBF8B
:1090D00000230123D9E74249344816F02DFA99F8C4
:1090E0000040002C40F0A180314B1B78002B40F059
:1090F000DC802F4B5B78002B40F0B3802C4B9B78AF
:10910000002B43D0294BB3F910400A270134002625
:109110001D46184621B2CDE90076A4B209230222E9
:109120000EF0DAFB4FF003083A464FF00113A71C8C
:10913000022128462F826B61A5F81280073416F0B1
:10914000ABFB2C826E61A5F812801FE02549174801
:1091500016F0F2F9154B2F68B3F91060134801941B
:109160000A25711C09B20095092302220EF0B4FBF6
:109170000E482A4639460323074603364FF00115A9
:1091800006824561438216F087FB7C6107B0BDE82B
:10919000F08F504604F024F96DE70C200B601AF0B4
:1091A00079FBFDF755FC04460FE700BFDC77002094
:1091B0009867002002000300886700203C600020C0
:1091C000447A002038600020E4C70400746700205F
:1091D000786700203600030008C80400ECC70400CC
:1091E000FCC70400F4C70400556B00208C67002006
:1091F00000250C23CDE900353D48162301223421FA
:109200000EF06AFB3A483B4B03614FF001122146D6
:10921000426104460A2216F037FB3749204616F011
:109220008BF9656107B0BDE8F08F314FB7F9104099
:1092300000250A26611CCDE90065384609B20923DC
:1092400002220EF049FB0334324603234FF001168D
:10925000294638463C827E617B8216F01DFB7D618B
:1092600094E7234BB3F910400A27013400261D462A
:10927000184621B2CDE90076A4B2092302220EF0ED
:109280002BFB4FF003083A464FF00113A71C0121B6
:1092900028462F826B61A5F81280073416F0FCFA7D
:1092A0002C826E61A5F8128028E7114BB3F910509B
:1092B00001941E460A27013529B20097ADB2092351
:1092C000022230460EF008FB4FF003083A464FF0FA
:1092D0000113AF1C2146304637827361A6F8128015
:1092E000073516F0D9FA3582A6F81280746100E7C6
:1092F000DC7700203600030008C8040030B583B0D6
:1093000017F048F8404B1B6898423BD23F4C2378FB
:10931000002B37D03E4D2B6863B117F03BF82B681C
:10932000984207D23B4A2168914252D0394A21687B
:10933000914229D0384C16250023CDE90053204610
:1093400078231D2204210EF0C7FA01232046019341
:109350001D220421009578230EF006FB4FF0011327
:1093600063612A4820F0A5FA284900EB4000C0F1CB
:109370004003242220462382628203B0BDE83040AD
:1093800016F0DAB803B030BD6168244A9142D1D1F9
:10939000234A244910688842CCD1918844F245324E
:1093A0009142C7D19BB116F0F5FF2C68A0420ED2B6
:1093B00016F0F0FF201A10F57A7F00F2E7331AD981
:1093C0000121102003B0BDE83040FCF7D7BF0021D9
:1093D000F7E7124A61689142A8D102F12852A168C8
:1093E000A2F56E02073A9142A0D1A18944F24352FC
:1093F00091429BD1D6E70C49A1FB0323990963292C
:10940000A8BF6321DDE700BF6C78002058780020FA
:1094100040790020424C4F43DC7700204B454420EC
:109420006078002033302053D34D62102DE9F04F87
:10943000814C824E89B0302301271022CDE90037BC
:109440002046802300214FF00118C4F814800EF04C
:109450008BFA7B4B7B492361204616F06DF80A227C
:109460003168204616F0EAF9774A336815689D425C
:1094700031DC0A23CDE900371F227C23022120465C
:109480000EF02AFA714B4FF0000AC4E9043A002D9D
:109490006DD0336805F1FF3999451FDB32686B1CCD
:1094A000934218DC6A4F4FF00111C4E90471002B9C
:1094B00000F0B580954264DB3268AB1C9A420ADB4F
:1094C00064484FF00111C4E90401002B00F0AC80A6
:1094D0000135AA4226DC09B0BDE8F08FDFF88881AB
:1094E000C9EBC90108EB810102AF0731384616F01C
:1094F000B3FE049B0E2B4FEAC90B66D8ABEB0909F0
:1095000008EB890839464C4815F0F2FF524B98F9A0
:109510000610494823610A2216F0BEF9384616F0B3
:10952000B5FEBBE7DFF84081C5EBC50108EB810163
:1095300002AF0731384616F08FFE049B0E2B4FEA20
:10954000C5065ED8751B08EB850839463A4815F004
:10955000CFFF424B98F90610374823610A2216F0D4
:109560009BF9384616F092FE09B0BDE8F08F3C49F1
:10957000204616F07FF83368002BACDD344BC4E98D
:109580000438DFF8E480C5EBC50108EB810102AFC8
:109590000731384616F060FE049B0E2B4FEAC509D2
:1095A00021D8A9EB050908EB89083946224815F0AE
:1095B0009FFF2C4B98F906101F4823610A2216F0D2
:1095C0006BF9384616F062FE76E7524605A80E2380
:1095D000394616F0AFFE05A9384616F05FFE05A81D
:1095E00016F054FE8AE705A80E230022394616F02D
:1095F000A1FE05A9384616F051FE05A816F046FE54
:10960000CFE705A80E230022394616F093FE05A9E0
:10961000384616F043FE05A816F038FE92E71049CA
:10962000054816F027F847E70D49034816F022F8D9
:1096300009B0BDE8F08F00BFDC770020487800203B
:10964000050014001CC80400C87900200500200093
:1096500005002A0005003400640020006400340086
:10966000E8BF040064002A00647200202DE9F04184
:10967000374B1B7882B043B116F08CFE354B1A681D
:1096800041F28833801A984245D8334C334F2046F4
:109690000FF0E4FD4FF0010800220E231146CDE942
:1096A0000038204680230EF017F900252C4B2D4959
:1096B00023612046656115F0EDFE2B4B2B4923619C
:1096C000204615F0E7FE3023294600931022802320
:1096D000CDF8048020460EF047F9254B254D1A7829
:1096E0003E68254B002A18BF1D46D6B14FF0011326
:1096F0006361224B22491848236115F0BBFF3B6888
:10970000012B19D04FF0011363611E4B12482361E6
:10971000294615F0AFFF104802B0BDE8F0410FF048
:10972000ADBD0D23CDE9003816227C230221204651
:109730000EF0D2F86661DCE70D22CDE90023064881
:109740007C23222202210EF0C7F800236361DCE7AC
:10975000506A00204C6A0020DC770020A8790020A5
:109760000200030044C804005400030050C8040071
:10977000556B002024C8040034C8040005001800FC
:10978000E8BF040005002400F0B5264C83B0054670
:1097900020460FF063FD012700220E231146CDE97C
:1097A0000037204680230EF097F8002639462046E1
:1097B00066610EF0C1FD1C4B1C492361204615F06B
:1097C00069FE39464FF00113204663610EF0B4FD87
:1097D000284620F06EF8A0EB8003BB4013F1810F08
:1097E000A4BF803343F34F0629461C230D486382F0
:1097F000268215F0A1FE10230122CDE9003209488E
:109800003022802300210EF0AFF8094B09490548AA
:10981000236115F03FFE034803B0BDE8F0400FF0B0
:109820002DBD00BFDC7700200A00030058C80400EB
:10983000120034006CC804002DE9F04F2DED028BAE
:10984000B74C8BB0012781464FF00E0A1FFA89F5FD
:1098500002B2CDE900A72046802300210EF084F853
:10986000C5F133031BB205F10D02CDE9003712B289
:10987000204680230021AE1C0EF076F833B208EEAD
:10988000103A0A2318EE102A01972046009302216D
:1098900005F103080EF020F80FFA88F704224FF0C4
:1098A000000BA04922822046C4F814B0678215F04C
:1098B00043FE9D48A4F810A0678205F07DFF28B103
:1098C000DFF8B0A29AF80020022A49D0974E3368F8
:1098D0004FF001126261002B35D1954E737D2BB391
:1098E00005F1140324226382924922828C4815F0E8
:1098F00023FEB11D05A816F0AFFC079B002B00F05E
:10990000088103EB43035B00C3F180035B10203548
:1099100005A923826582824815F0EAFD05A816F0A4
:10992000B5FC0BB0BDEC028BBDE8F08F1A351A23E5
:1099300081497B486582238215F0FEFD0BB0BDECAA
:10994000028BBDE8F08F16F025FD33689842C4D233
:10995000002B40F0F48100214846FCF70FFDEDE7B5
:1099600002A80AF1010116F077FC049A0A2A4FF0C6
:109970000A0300F25D824FF001196948C4F814909F
:1099800002A915F0B5FD6D4B1B78002B00F0498145
:10999000674B5A7D42B319789AF81020914223D12F
:1099A00059789AF8112091421ED199789AF812208C
:1099B000914219D1D9789AF81320914214D119798A
:1099C0009AF8142091420FD15A799AF815309A4298
:1099D0000AD12E2205F11A0359495148C4F81490AE
:1099E0002282638215F056FD16F0D4FC554B1B689D
:1099F000C01A632840F2318216F0CCFC524B1B682F
:109A0000C01A632840F221824748002105F0FEFE7B
:109A1000814618B103F098FC00285DD14B4BD3ED83
:109A2000007A4B4BD3F80090B9F1060F40F3B280A7
:109A30009FED487AF4EEC77AF1EE10FA00F37B81DD
:109A40009FED4E7AF4EEC77AF1EE10FA40F383827E
:109A500005221A6091464FF0010A05F108023048CC
:109A6000CDF800A012B2032359210EF099FDD14583
:109A700000F38A81384B1D78002D00F0C381282D1A
:109A800000F36E81142D00F30182344A1378013300
:109A9000DBB21D2B137000F2F181314B1B78002BD0
:109AA00040F007824FF00113092D636100F36A81D2
:109AB0006C2329461A4823820A22678215F0ECFE9D
:109AC0002849174815F038FD02A816F0DFFB0BB047
:109AD000BDEC028BBDE8F08F484603F081FC00F13D
:109AE0007703DBB2762B194B88BFD3ED007A98D879
:109AF0009FED1D7AD3ED007ADFED1C6A67EE877A61
:109B000007EE100AB8EEC77AE7EE267AC3ED007AC0
:109B100087E7174905A816F0E3FB079BF1E600BFAE
:109B2000DC770020CCDC0400447A0020407900205F
:109B3000386B0020ACC80400C0C804005D79002068
:109B4000A0C8040068790020747900201460002007
:109B500084670020000068C2C4790020806700206C
:109B6000486A002008C804009A99193FCDCCCC3E21
:109B7000B8C804001860002000005CC2000080C269
:109B800000008CC2000098C20000A4C20000B6C24F
:109B90000000BCC2B9F1000FC0F2AA80B9F1050FF4
:109BA00040F093811FED0C7AF4EEC77AF1EE10FAD3
:109BB00000F3C1801FED0F7AF4EEC77AF1EE10FAD0
:109BC0003FF749AF1FED127AF4EEC77AF1EE10FAC3
:109BD00000F3BA811FED157AF4EEC77AF1EE10FAB0
:109BE00000F3A5801FED187AF4EEC77AF1EE10FAB3
:109BF00000F3A6811FED1B7AB4EEE77AF1EE10FABE
:109C000000F153811FED1E7AF4EEC77AF1EE10FADF
:109C100040F29E81C3F80090B9F1000F3FF42AAFE3
:109C200019E7DFF87C93D9F80030002B3FF4DCAE65
:109C300016F0B0FBD9F8003047F23052C31A934205
:109C40003FF6D2AECD49CE4ACE484FF0640909FB6B
:109C500003F9A1FB09194FF0010A4FEA5939A2FB98
:109C60000323052105F11202B9F1640F4FEA931C99
:109C7000CDE9001A12B24FF066034FF00D0114BF88
:109C8000CB464FF0630BCCF11E060DF06DFE05F1D7
:109C9000130203210FFA89F30091BA48CDF804A00A
:109CA00012B20E210DF018FE5B46B74A0096142141
:109CB00005A81FF04FFD05A81FF0FBFD00EB4000BD
:109CC00000FA0AF3C3F1800343FA0AF305F11A021A
:109CD00005A923826282AB4815F02EFC082205F10B
:109CE0002403AA4922826382A64815F0D3FB7BE6AF
:109CF0009FEDA77AF4EEC77AF1EE10FA1BDC9FED28
:109D0000A97AF4EEC77AF1EE10FA3FF7A1AE9FED13
:109D1000A77AF4EEC77AF1EE10FA00F315819FED01
:109D2000A57AF4EEC77AF1EE10FA40F382810322AD
:109D30001A6091468FE606221A6091468BE616F06D
:109D400029FB3468A042BFF406AE16F023FB201AAC
:109D500010F57A7F00F2E73140F288800121FBE5BF
:109D600001210A23CDE9003118EE102A1823854875
:109D700066210DF0B1FD0023632D6361C8BF672329
:109D80003FF797AE692394E6EA1D7E48CDF800A020
:109D900012B204235B210EF003FCB9F1020F7FF72E
:109DA00069AEAA1D7748CDF800A012B205235D2147
:109DB0000EF0F6FBB9F1030F7FF75CAE6A1D714838
:109DC000CDF800A012B206235F210EF0E9FBB9F135
:109DD000040F7FF74FAE2A1D6A48CDF800A012B2DB
:109DE000072361210EF0DCFBB9F1060F7FF442AED0
:109DF0006448CDF800A00FFA88F2082363210EF022
:109E0000CFFB37E601210A23CDE9003118EE102AF5
:109E10005C48182366210DF0A7FD4FF0011269235D
:109E20005C49678262612382564815F085FB4BE6E8
:109E30005A4605A802A916F07DFA05A902A816F04F
:109E40002DFA05A816F022FA95E54B231F2167820B
:109E500023824C480EF0CAF9D6E551222B1D1E2153
:109E60002282638247480EF0C1F9C5E5444BA3FB4B
:109E7000013189096329A8BF63216DE546490B7843
:109E8000002083F001030B70107008E601210A2303
:109E9000CDE9003118EE102A18233A4866210DF05A
:109EA00063FD4FF0011363616CE701221A60914674
:109EB000D1E501210A23CDE9003118EE102A3148FD
:109EC000182366210DF050FDECE59FED317AF4EE9C
:109ED000C77AF1EE10FA3FF72EAFB9F1040F75D142
:109EE0009FED2E7AF4EEC77AF1EE10FA3FF7B0AD9F
:109EF0009FED2E7AF4EEC77AF1EE10FA3FF7ABAD94
:109F00009FED2C7AF4EEC77AF1EE10FA3FF70FAF1F
:109F10009FED2B7AF4EEC77AF1EE10FA10DC9FED8C
:109F2000277AF4EEC77AF1EE10FABEDC9FED267ABE
:109F3000F4EEC77AF1EE10FA0AD904221A608AE523
:109F400002221A60914686E504221A60914682E553
:109F500000221A608EE59FED157AF4EEC77AF1EED5
:109F600010FAF1DC9FED137AF4EEC77AF1EE10FAF5
:109F70003FF7DDAE4FF0060934E600BF73B2E745A8
:109F8000D34D6210DC7700207CC804008CC804002C
:109F9000000068C2A8C80400486A0020000074C21B
:109FA000506B0020000080C2000086C200008CC2FE
:109FB000000092C2000098C200009EC20000B6C21B
:109FC0000000A4C20000B0C20000BCC21FED0B7AAA
:109FD000F4EEC77AF1EE10FA3FF73AADB9F1030F9C
:109FE00034D11FED0F7AF4EEC77AF1EE10FAABDC44
:109FF0001FED107AF4EEC77AF1EE10FA3FF797AE44
:10A000001FED117AF4EEC77AF1EE10FA98DC1FED2D
:10A01000157AF4EEC77AF1EE10FA3FF746AF1FED6E
:10A02000167AF4EEC77AF1EE10FA91D903221A608B
:10A0300011E51FED1D7AF4EEC77AF1EE10FA3FF745
:10A040007FAF1FED207A4FF00009D5E51FED297A8B
:10A05000F4EEC77AF1EE10FA3FF776AFB9F1020FDE
:10A0600022D11FED2D7AF4EEC77AF1EE10FA3FF708
:10A070005EAE1FED2D7AF4EEC77AF1EE10FA3FF7DF
:10A080005FAF1FED327AF4EEC77AF1EE10FA3FF7C8
:10A090000CAF1FED337AF4EEC77AF1EE10FA7FF6CB
:10A0A00057AF02221A60D6E41FED3E7AF4EEC77A6B
:10A0B000F1EE10FA3FF73BAEB9F1010F1AD11FEDE7
:10A0C000427AF4EEC77AF1EE10FA3FF739AF1FED9E
:10A0D000457AF4EEC77AF1EE10FA3FF7E6AE1FEDDF
:10A0E000467AF4EEC77AF1EE10FA7FF631AFC3F894
:10A0F0000090B0E41FED4E7AF4EEC77AF1EE10FA5C
:10A100003FF71EAFB9F1000F7FF474AD1FED537A26
:10A11000F4EEC77AF1EE10FA3FF7C7AE1FED567AAC
:10A12000F4EEC77AF1EE10FA7FF612AFC3F80090A2
:10A13000A0E400BF2DE9F04FCF4B2DED028B1B6843
:10A140008B428FB00C46834654D00E230127CDE9B5
:10A15000003702B28023C948029700210DF004FCA9
:10A1600000261FFA8BFBC54D029B01930BF10208E1
:10A170000FFA88F34FF00A0A1A460BF10307284634
:10A18000022108EE103A4FF000095346CDF800A026
:10A1900066F30F0905970DF09FFB39B204230F46B4
:10A1A00066F31F49524603912846214604EB4406B4
:10A1B0002B82C5F814906F82C4EBC60615F06CFBB9
:10A1C000AF4B6F829B5D0E222A82022B4FEA440224
:10A1D000049225D00299002261F30F0261F31F421D
:10A1E0006A61A3B1012B00F0FE800FB0BDEC028BC1
:10A1F000BDE8F08F0E230126CDE9003602B28023A0
:10A200009E4800210DF068FB00230293A9E79D49B9
:10A21000284615F091F90FB0BDEC028BBDE8F08F28
:10A22000974B711C08A8194408EE900A16F014F810
:10A230000A9B534500F20881029A9048002362F37A
:10A240000F0362F31F4318EE901A07936B6115F02A
:10A250004FF916F09FF88C4B53F82430C01A63283E
:10A2600040F2E88016F096F8884B53F82430C01A74
:10A27000632840F2D680824B069410364FF00008D7
:10A2800033444446DFF83CA2029F984602E0142C77
:10A2900000F01A81A1B2504605F0B8FA0134064622
:10A2A0000028F4D003F050F80028F0D031460BA875
:10A2B00003F05AF898F800109DF82D209142E6D14D
:10A2C00098F801109DF82E209142E0D198F80210E4
:10A2D0009DF82F209142DAD198F803109DF8302094
:10A2E0009142D4D198F804109DF831209142CED1FA
:10A2F00098F805109DF832209142C8D13046069C4E
:10A30000029703F06DF8064616F044F806F177035D
:10A31000DBB2762B00F2A9805D4A52F82430C31AD2
:10A32000C82B40F2A2805B4B9FED5B6ADFED5B6A5E
:10A3300042F8240003EB8403D3ED007A07EE106AA1
:10A3400067EE867AB8EEC77AE7EE267AC3ED007A32
:10A35000534B53F82460062E00F3C080002EC0F249
:10A36000E281052E00F089819FED4E7AF4EEC77AE6
:10A37000F1EE10FA00F3FF81042E40F06D829FEDA4
:10A380004A7AF4EEC77AF1EE10FA00F3B7809FED47
:10A39000477AF4EEC77AF1EE10FA00F3B2809FED3F
:10A3A000447AF4EEC77AF1EE10FA00F3F9819FEDEA
:10A3B000417AF4EEC77AF1EE10FA00F3F9819FEDDD
:10A3C0003E7AF4EEC77AF1EE10FA00F3ED819FEDDC
:10A3D0003B7AF4EEC77AF1EE10FA40F239820422A9
:10A3E00043F824208DE03649284615F0A5F8244B83
:10A3F000711C08A8194408EE900A15F02DFF0A9B5D
:10A400000A2B00F2BC8118EE901A1C4815F070F867
:10A4100018EE900A15F03AFF0FB0BDEC028BBDE8C4
:10A42000F08F039A15486A824B231F212B820DF06F
:10A43000DDFE20E751220BF104031E210F482A8282
:10A440006B820DF0D3FE0DE718EE901A53460BA861
:10A45000002215F06FFF0BAB18EE900A194615F0AD
:10A460001DFF0BA815F012FFE6E60A4B03EB840371
:10A47000D3ED007A6CE700BF30600020DC7700206D
:10A480003C600020D4C80400687900207479002062
:10A4900024640020046000206666663FCDCCCC3D7D
:10A4A00030640020000068C2000074C200008CC24A
:10A4B000000098C20000A4C20000B6C20000BCC2E6
:10A4C000D8C80400447A0020069C029715F062FF69
:10A4D000BB4B03EB8403D3ED007A39E79FEDB97AE8
:10A4E000F4EEC77AF1EE10FA00F345819FEDC07AE1
:10A4F000F4EEC77AF1EE10FA40F3F980052643F83E
:10A500002460029B00930BF10802AF4812B20323B0
:10A5100059210EF045F8012E44DC049B2344C4EB82
:10A52000C304AA4B1C4494F91640002C1DDB282CB4
:10A530006EDC142C00F3EB80A54A13780133DBB2F8
:10A540001D2B137040F29680A2490B78002083F0F7
:10A5500001030B701070002B40F0D980079B6B61DA
:10A56000092CCCBF69236C2362E09B4B029A1B78B9
:10A5700095480192632B4FF00A03009318EE102ABE
:10A580004FF018034FF0660167D90DF0A5F9039A53
:10A5900092498D48C5F814906A236A822B8214F080
:10A5A000CBFF51E0029F884800970BF1070212B2DF
:10A5B00004235B210DF0F4FF022EAEDD0BF1060249
:10A5C0008148009712B205235D210DF0E9FF032EAB
:10A5D000A3DD0BF105027C48009712B206235F2130
:10A5E0000DF0DEFF042E98DD0BF104027648009793
:10A5F00012B2072361210DF0D3FF062E8DD1BDF9D4
:10A60000142071480097082363210DF0C9FF84E7E7
:10A61000029A01920A23009318EE102A6A4818231E
:10A6200066210DF059F9632CC5F8149098DD672365
:10A6300021462B826448039B6B820A2215F02CF979
:10A640006749614814F078FF18EE900A15F01EFE75
:10A650000FB0BDEC028BBDE8F08F0DF085F9079AC5
:10A660006A616923039A5F4957486A822B8214F012
:10A6700063FFE9E7574B1B786DE79FED5B7AF4EEDC
:10A68000C77AF1EE10FA76DC9FED597AF4EEC77ACC
:10A69000F1EE10FA3FF735AF9FED587AF4EEC77A36
:10A6A000F1EE10FA00F388809FED537AF4EEC77A4A
:10A6B000F1EE10FA74DC9FED547AF4EEC77AF1EE05
:10A6C00010FA75DC9FED4F7AF4EEC77AF1EE10FACE
:10A6D0006ADC9FED4F7AF4EEC77AF1EE10FA40F2A1
:10A6E000B78043F82460002E3FF417AF09E79FEDD1
:10A6F000437AF4EEC77AF1EE10FA5DDC9FED3E7A14
:10A70000F4EEC77AF1EE10FA4ADC0626D3E7029A95
:10A7100001920A23009318EE102A2B481823662171
:10A720000DF022F91AE79FED277AF4EEC77AF1EEE1
:10A7300010FA20DC9FED2E7AF4EEC77AF1EE10FAD3
:10A740003FF7DCAE9FED2D7AF4EEC77AF1EE10FA0A
:10A7500032DC9FED297AF4EEC77AF1EE10FA1FDCB5
:10A760009FED297AF4EEC77AF1EE10FA20DC9FED26
:10A77000277A0026A8E7062643F82460C1E618EEEB
:10A78000901A53460BA8002215F0D4FD0BAB18EE1F
:10A79000900A194615F082FD0BA815F077FD32E6F8
:10A7A000032643F82460ACE6012643F82460A8E6BB
:10A7B000022643F82460A4E6042643F82460A0E6B9
:10A7C00004600020000068C2DC7700203C600020AC
:10A7D00020640020486A0020C4790020D0C804000A
:10A7E00008C80400A8C8040000005CC200009EC2A3
:10A7F000000080C2000086C2000098C200008CC227
:10A80000000092C20000B6C20000A4C20000B0C2A4
:10A810000000BCC21FED087AF4EEC77AF1EE10FA20
:10A82000BEDC012E76D11FED0F7AF4EEC77AF1EE81
:10A8300010FABDDC1FED0D7AF4EEC77AF1EE10FAD6
:10A84000B2DC1FED0D7AF4EEC77AF1EE10FAB4D84F
:10A85000002243F8242060E61FED1B7AF4EEC77A4D
:10A86000F1EE10FA3FF74AAE032E26D11FED1F7A04
:10A87000F4EEC77AF1EE10FA9EDC1FED217AF4EEC9
:10A88000C77AF1EE10FA8BDC1FED217AF4EEC77A6D
:10A89000F1EE10FA8CDC1FED257AF4EEC77AF1EEBA
:10A8A00010FA81DC1FED267AF4EEC77AF1EE10FA89
:10A8B000CED9032243F8242023E61FED307AF4EEAC
:10A8C000C77AF1EE10FA3FF777AF022EA2D11FED53
:10A8D000347AF4EEC77AF1EE10FA3FF761AF1FED6C
:10A8E000367AF4EEC77AF1EE10FA3FF761AF1FED5A
:10A8F0003B7AF4EEC77AF1EE10FA3FF755AF1FED51
:10A900003C7AF4EEC77AF1EE10FAA1D9022243F8AC
:10A910002420F6E51FED447AF4EEC77AF1EE10FA42
:10A920003FF746AF002E7FF4CDAE1FED487AF4EE30
:10A93000C77AF1EE10FA3FF737AF1FED4B7AF4EE1E
:10A94000C77AF1EE10FA83D943F82460E5E500BF39
:10A950002DE9F041C04C82B015F01CFD20460EF0F0
:10A960007DFC204601210DF0E7FCBC4B1A78032A40
:10A9700000F0F680BA4D2B78012B0FD0022A4AD076
:10A98000002A00F0B480012A00F04E81FEF7B6FCE8
:10A99000B14802B0BDE8F0410EF070BC042A00F0EE
:10A9A0009B80B04804F008FF002840F02781002277
:10A9B0000E2301251146CDE90035A74880230CF070
:10A9C0008BFFA94B0022C4E90432FEF793FA09F089
:10A9D000DFFC002800F0FF80A44D95F90030082B23
:10A9E00000F0E5800C230026CDE9003601222A2361
:10A9F000994855210CF0B8FF9D4A95F90030C4E9FB
:10AA00000426002B00F07281042B00F07E811020C0
:10AA1000FEF712FFBAE7FCF7B1FAFCF7B9FD954B68
:10AA20009549964A1B780868106023B3002822DDF8
:10AA3000934A944B15785678977892F803C092F819
:10AA400004E092F8058000221978A94249D159788A
:10AA5000B14246D19978B94243D1D978614540D1C4
:10AA6000197971453DD1597941453AD18649874B8C
:10AA700001320A601A60002201210E23CDE9003163
:10AA80007548114680230CF027FF774B80497248A8
:10AA90000026C4E9043614F04FFDB4F910507D4B84
:10AAA0000196D3F800806C480A27023529B2009736
:10AAB000092302220CF010FF02353A4603234146D7
:10AAC0004FF00117644825826761638214F0E4FE49
:10AAD0006661FEF7ABFC59E702B0BDE8F041FEF756
:10AAE000A3B90132904203F11C03ADD1C3E70E2399
:10AAF000012611462046CDE9003680230CF0ECFEFD
:10AB0000FEF7F8F909F044FC002800F0D580574E14
:10AB100096F90030082B00F08A800C230027CDE93D
:10AB2000003701222A234C4855210CF01DFF504AC2
:10AB300096F90030C4E90427002B00F0DC80042BD8
:10AB400000F0E880297881B91020FFF7F3FA01219D
:10AB50002120FFF7EFFA02213220FFF7EBFA15E789
:10AB600002B0BDE8F041FEF781BD30230122CDE9FE
:10AB7000003239488023102200210CF0F5FE3948BC
:10AB800004F01AFE002800F0AA80434B43493248E3
:10AB9000236114F0D1FC424B42499A682161002A9A
:10ABA00000F0AE8019682C4814F0C6FCEEE60C23C9
:10ABB0000022CDE9003228482A23012255210CF039
:10ABC0008BFE394B394924484FF00112C4E9043255
:10ABD00014F0B2FC1BE70C2301902A4600931E4898
:10ABE00009234B210CF078FE314B32491A484FF0C3
:10ABF0000112C4E9043214F09FFCEDE6194800216B
:10AC000004F004FE054600283FF4D1AE02F09CFBA0
:10AC100000283FF4CCAE284602F0E2FB43063FF4A6
:10AC2000C6AEFBF729FEC2E6FEF778F8AEE60C23C7
:10AC30000022CDE9003208482A23012255210CF0D8
:10AC40004BFE194B194904484FF00112C4E9043274
:10AC500014F072FC76E700BFDC770020546B002014
:10AC6000556B0020447A0020020003001D6800207C
:10AC7000590003005E790020586B002048780020BE
:10AC80008079002064720020C87900205478002068
:10AC900000C904003860002008001C0010C904002E
:10ACA000AC79002008002A005C000300E8C804001A
:10ACB0004D000300E4C804000C23019032460093C9
:10ACC000204609234B210CF007FE154B1549236143
:10ACD0004FF001122046626114F02EFC17E7124B70
:10ACE00012491348236114F0D5FB4FE6114910486F
:10ACF00014F022FC8BE60F490D4814F01DFC21E7EF
:10AD00000D490B4814F018FC40E60C49084814F0B3
:10AD100013FC7CE60949064814F00EFC12E700BF5C
:10AD20004D000300E4C8040014002600C0C804005D
:10AD3000DC770020F0C80400B4C40400F8C80400A4
:10AD400010B51C499AB004461B480EF065FE58BB6E
:10AD500001A8184A184901230EF054FE01A80FF06B
:10AD60007FF9D8B101220DF1030101A88DF803404C
:10AD70000EF0E0FE01A80EF057FF01A80FF044F915
:10AD80000E490F4814F0D8FB0E4B0F490C48002C0D
:10AD900018BF194614F06EFC1AB010BD0B490848D4
:10ADA00014F068FC1AB010BD024903480EF0A8FE6A
:10ADB000CEE700BF64C30400C098002018C9040097
:10ADC000C4820020ECC70400E4C7040030C90400BA
:10ADD0002DE9F04F044685B0092018F007FEF8B9B8
:10ADE000AF4B1A78002A55D0AE4B1D6841F288331C
:10ADF000651B9D4240F29080AB4EA6FB0536B6091E
:10AE0000C6F10806002E61DCB5F5FA5F40F28480D9
:10AE1000A64B1A78002A00F0228305B0BDE8F08F17
:10AE20009F4D2B78002BF8D09E4B1B68E31AA3F59F
:10AE30009C52093A40F6B7318A4234D99C4A12787A
:10AE4000002A3BD1322B39D99A4E9B4A3378146071
:10AE5000032B7BD0002B40F0A180984B1A78002A5E
:10AE600040F0528196490B68581C00F0008203EBB9
:10AE7000430294489449C3EBC2020B60825C002AEF
:10AE800000F0F781914892490023012203600B6092
:10AE9000327013E0834986480C60012102701970FA
:10AEA00005B0BDE8F08F8B498B4814F073FB8149E6
:10AEB000834B00204FF0FF3208701A6000233220CD
:10AEC0002B7005B0BDE8F04F15F070BA834F3846CF
:10AED0000EF0C4F9384601210DF02EFA804B3B618B
:10AEE0004FF001127A617F49384614F0D3FA7E4B55
:10AEF0003B610A223146384614F0CEFC3846012127
:10AF00000DF01AFA794B7A493B61384614F0C2FACF
:10AF100038460EF0B3F977E7654B1A78002A7FF4CC
:10AF20007CAF624A1278002A7FF477AFB5F5966F4E
:10AF30007FF673AF60486F4904605E4D64480A60F5
:10AF4000032401212C700260197066E7694B1C68AC
:10AF5000002C00F09B80012CB0D1584B5F4D18782D
:10AF6000B0FA80F04009FFF7EBFE28460EF076F9C4
:10AF7000214628460DF0E0F95F4B60492B614FF008
:10AF800001126A61284614F085FA28460EF076F917
:10AF90005B49514814F0FEFAFBF794F9042B00F0DA
:10AFA000D080022B00F01A81012B87D1474B1B6800
:10AFB000002B00F05381012B00F0A381022B7FF4C2
:10AFC0007DAFDFF804913F4FDFF838814FF0000B81
:10AFD0004FF0170A04E00BF1010BBBF1140F36D050
:10AFE0001FFA8BF1404604F011FC04460028F2D011
:10AFF00002F0AAF90028EED0214602A802F0B4F926
:10B00000D9F800309DF809100AFB03F31033FA1841
:10B01000FB5C8B42DFD151789DF80A309942DAD13E
:10B0200091789DF80B309942D5D1D1789DF80C30AC
:10B030009942D0D111799DF80D309942CBD15279F6
:10B040009DF80E309A42C6D1204602F0B5F9D9F8E3
:10B050000020172303FB02F3002403F110015A1C04
:10B06000FC547818BB187C508480BC509C605C6099
:10B07000C3F80B40FCF716FE1549114A34704FF027
:10B08000FF330C601360C9F8003017E70C49104A11
:10B0900000234FF0FF300860136033700EE700BFED
:10B0A000506A00204C6A0020D34D62103D6400209D
:10B0B0003C640020546B002064790020556B002014
:10B0C000306000203C60002038600020D4790020EF
:10B0D00054780020CCC90400C4820020DC77002012
:10B0E0000400120068C904003D0020000D002E007D
:10B0F00080C90400A879002025001E00E8C90400CA
:10B10000F4C90400447A00208E4C237823B98E4F72
:10B110003B68002B40F0D0808C4B5B7D2BB98C487A
:10B1200004F04AFB002800F0E0808A4C8A4A8B49F0
:10B130008B480023236013600423337014F02AFA31
:10B14000BCE6844B1B68002BA0D0012B7FF4B6AE6D
:10B15000844B7E4A7B487C4992F815800024C3F8D2
:10B1600009409C821C61C3F80140C3F80540DC60C3
:10B170001C70146094809471547504700C60FCF71A
:10B1800091FD7949764814F005FA784A784B704871
:10B190000421117001221A7004F09AFA6C4804F02C
:10B1A0000BFB002840F00E811322B8F1000F00F0D5
:10B1B000C380704970481EF0A7FB6F4B0024DC74FD
:10B1C00015F0E8F8644A6D496D4B146000F5FA60BB
:10B1D0004FF0FF32347008601A606FE6694B1C68EC
:10B1E000002C3BD0013C55D4674B1B68A34251DD7A
:10B1F000664B1B78002B4DD01C23654A654903FB29
:10B2000004F30878D75C8742134443D158784A78CE
:10B2100090423FD198788A7890423BD1D878CA78CA
:10B22000904237D108791A79904233D14A795B79C3
:10B230009A422FD1584802F00BFE642015F0B6F860
:10B24000564B5748242101FB043101F0D9F84C4AF0
:10B250004FF0FF310023116033702FE64848514909
:10B260004FF0FF33002203600B60327026E60A6065
:10B2700024E6454A4C49434F374C44480023136069
:10B28000444A0B6002213B6023600370136093808B
:10B29000317013E6384B4549184613221EF034FB33
:10B2A0000022C27415F076F83449414B00F57A70EB
:10B2B000012208601A7001E62F4E3E49284814F01A
:10B2C00069F94FF0000801233B49237013223046EF
:10B2D000C7F800801EF018FB86F8138015F05AF8A6
:10B2E000264B00F2DC501860E8E53449224813226E
:10B2F0001EF00AFB15F04EF8204B00F2DC501860EF
:10B30000DCE5224A204928481E4F134C00231370C5
:10B31000204A0B60036002211F4813609380317044
:10B320003B60236002F06AFD014600287FF4C6AD51
:10B33000194802F06BFDC1E521490F481EF0E4FAFF
:10B340003BE700BF5D790020506B0020386B002088
:10B35000447A0020546A0020547800205CCA04001B
:10B36000C48200203C60002088CA04001D680020C0
:10B37000566B00200CCB0400587800206C7800201D
:10B3800030600020C8790020586B00205E790020D2
:10B390006472002080790020E88000205C6B00202F
:10B3A000547A002038600020487800201CCB04002C
:10B3B000707800201CCA04004CCA04007CCA040037
:10B3C0000CC804004548214604F020FA074600282E
:10B3D0003FF4EAAE0DF108094846394601F0C4FFD2
:10B3E0003F4BB8F1000F6DD1BDF80D20DDF809001D
:10B3F0009A80186014F0CEFF3A4C3B4A3B4900F566
:10B40000EA433033136020460E221EF07DFA237883
:10B4100084F80E80002B47D035493648DFF8F4B069
:10B42000DFF8D0A014F036F89DF80E103148102245
:10B4300014F02AFA05245946504614F07DF819F8FC
:10B4400004101022504614F01FFA013CF3D12A498F
:10B45000284814F09FF8384601F0AEFFA4E6274CC8
:10B460002749244801251D7014F094F820460DF05A
:10B47000F5FE294620460CF05FFF224B23614FF07A
:10B48000011262612049204614F004F820460DF0B4
:10B49000F5FE4FF4FA7014F089FF4FF08043572205
:10B4A000C3F81C25FAF70EFF9DF809209DF80A3015
:10B4B00001920093154A9DF80B3020460F211EF093
:10B4C00049F9A9E70849074A0C601C6010499C80AB
:10B4D0000848147014F05EF8BDE700BF447A0020FD
:10B4E000447900204C790020407900201960002028
:10B4F000B0CA0400C4820020C4CA0400DC77002063
:10B5000094C9040011001C00B8C9040040C0040024
:10B51000D0CA040004C804002DE9F04F5C4D2B781C
:10B52000012B85B000F0A4805A4B1C78A4F10204D2
:10B53000B4FA84F4640908F02BFF00B96CB9564CD6
:10B5400001E014F065FA204614F05AFA034620464A
:10B55000002BF6D105B0BDE8F08F14F01BFF4E4C68
:10B56000DFF84C8160F07F070646FFB2204614F0FA
:10B5700047FA0028EED0204614F046FA0206C3B27D
:10B580000FD4F72B52D8204614F042FA204614F07C
:10B5900037FA0028DED0204614F036FA0206C3B28D
:10B5A000EFD53E4AF72B166040D800F0E000C028E7
:10B5B00020460CBF4FF0020B4FF0030B14F020FAA3
:10B5C0005845C7DB364B00221B7B8DF804300DF14C
:10B5D0000409ADF805200BEB090A204614F018FA0F
:10B5E00009F8010BCA45F8D19DF8043003F0F002C8
:10B5F000902A2FD0802A30D09DF806209DF8051083
:10B6000028788DF80A3001284FF080038DF80B1050
:10B610008DF80C208DF809708DF808300BF10202BE
:10B6200002A913D0404601F05BFC9FE7204614F0CE
:10B63000EFF92B788DF80A008022012B8DF8082075
:10B640008DF809704FF0030202A9EBD1154801F003
:10B65000ABFA8BE79DF806207AB99DF80510124ADF
:10B66000505C002882D0002050549DF80620C7E787
:10B670000E4804F0A1F804465DE79DF805100A485D
:10B6800010F801C094453FF471AF4254B8E700BFD1
:10B69000556B00203C6000206CA9002068790020D8
:10B6A000B8CC0400C86A00209C670020447A0020BF
:10B6B0003469002070B51C481C4D1D4E13F0B6FEB9
:10B6C00014F068FE044608F063FE1A4B1A788242B2
:10B6D00018BF1870FFF720FF2046FBF7EBFF20464E
:10B6E000FFF776FB2B788BB93368E31A202B0DD844
:10B6F0002046FCF78BF82046FBF7DCFE0E4B1B7850
:10B70000204663B9BDE87040FCF7BAB9FFF720F9ED
:10B710002B783460002BEBD000232B70E8E7BDE8DA
:10B720007040FDF701BA00BF68A9002070780020C2
:10B730001C6400201C680020556B0020022A0DD9D3
:10B74000F0B52C4B984283B009D003F14004A042DD
:10B7500049D08033984249D003B0F0BD70470020F3
:10B760000546032A8C7839D0042ACE7839D00F794F
:10B770008DF80540F72C40EA141388BF40F00F0005
:10B780008DF804308DF8066088BF8DF804008DF8C0
:10B79000077008F0FDFD60B1174B186848B101A9AA
:10B7A00005F06AFB14F0F6FD144B43F8250003B0D6
:10B7B000F0BD002DF6D11248214614F04DF9F72CBA
:10B7C000F0D80F48314604F0E00414F045F9C02CDD
:10B7D000E8D039460A4814F03FF9E3E70026374637
:10B7E000C6E70027C4E710200125BAE7202002257C
:10B7F000B7E700BF34690020287A00207479002060
:10B800006CA90020022B31D970B5032B947882B03B
:10B810001AD0042BD57839D0167908F0B9FDC8B103
:10B820001B4B1868B0B1F72C21D90F22002362F30B
:10B83000070364F30F2365F3174366F31F6301A93E
:10B84000019305F019FB0BE000252E4608F0A0FD42
:10B850000028E5D10F48214614F0FEF8F72C08D94E
:10B8600014F098FD0C4B186002B070BD70472209AF
:10B87000DCE70848294604F0E00414F0EDF8C02C99
:10B88000EED03146034814F0E7F8E9E70026C4E7B4
:10B89000287A00206CA90020747900202DE9F04F4F
:10B8A0006B4E337889B013B16A48FDF76DFF6A4873
:10B8B00013F0BCFDFA2014F079FD337813B167481A
:10B8C000FDF762FF6648042103F014FD642014F0C4
:10B8D0006DFD337813B16348FDF756FF03230093E2
:10B8E0001A465F48F72103F0C1FC337813B15E4874
:10B8F000FDF74AFF584813F099FD4FF4167014F005
:10B9000055FD554813F092FD03220021544803F0E1
:10B9100021FD514813F08AFD322014F047FD3378A1
:10B9200013B15248FDF730FF06221146504800F08F
:10B9300063FD50494A4803F0A3FE4F494C4800F0CC
:10B9400095FD4E494A4800F093FD337813B14C48B9
:10B95000FDF71AFF502014F029FD4A4D4A4F4B4C79
:10B96000DFF84CA1DFF84C914FF0000B484B5A46E2
:10B97000514602A803EB8B181DF020FF32780BF123
:10B98000010B02A80AB1FDF7FFFE2A68284652689B
:10B9900090472946384601F081F9226820465268CE
:10B9A000904701224946404601F0EAFA21464046C6
:10B9B00001F074F9142014F0F9FCBBF1030F05F148
:10B9C0001C0507F1400704F11C04CFD1314803F0F6
:10B9D00005F93148122101F09BF8112211462E4839
:10B9E00001F0AEF801212C4801F098F82A4800F047
:10B9F000A5FD14F0CFFC29490A68821AB2F5C87F68
:10BA000003461CD2264B1978234801F0ADF8337851
:10BA100013B12448FDF7B8FE2349244802F0F2F997
:10BA200050222248C82102F0E3F901211F4802F008
:10BA3000D7F9282014F0BAFC09B0BDE8F08F0C202B
:10BA40000B6017F027FFFBF703F80146DCE700BFA8
:10BA5000186400202CCB040068A9002040CB04000F
:10BA6000447A002058CB040068CB040078CB040053
:10BA7000547A002088CB0400BD7D02005965020085
:10BA800090CB0400F469002034690020E0680020B5
:10BA9000206800200C790020747800207467002052
:10BAA00078670020ACCB0400C9720200E880002057
:10BAB0009CCB04002163020038B56E4C237813B18F
:10BAC0006D48FDF761FE6D4813F0B0FCFA2014F0EC
:10BAD0006DFC237813B16A48FDF756FE69480421CE
